{
  "_format": "hh-sol-artifact-1",
  "contractName": "ApeSwapZapFullV5",
  "sourceName": "contracts/ApeSwapZapFullV5.sol",
  "abi": [
    {
      "inputs": [
        {
          "internalType": "contract IWETH",
          "name": "WNative",
          "type": "address"
        },
        {
          "internalType": "contract ITreasury",
          "name": "goldenBananaTreasury",
          "type": "address"
        }
      ],
      "stateMutability": "nonpayable",
      "type": "constructor"
    },
    {
      "inputs": [],
      "name": "T",
      "type": "error"
    },
    {
      "anonymous": false,
      "inputs": [
        {
          "components": [
            {
              "internalType": "contract IERC20",
              "name": "inputToken",
              "type": "address"
            },
            {
              "internalType": "uint256",
              "name": "inputAmount",
              "type": "uint256"
            },
            {
              "internalType": "enum IZapSwap.SwapType2",
              "name": "swapType",
              "type": "uint8"
            },
            {
              "internalType": "address",
              "name": "caller",
              "type": "address"
            },
            {
              "internalType": "bytes[]",
              "name": "swapData",
              "type": "bytes[]"
            },
            {
              "internalType": "address",
              "name": "to",
              "type": "address"
            },
            {
              "internalType": "uint256",
              "name": "deadline",
              "type": "uint256"
            }
          ],
          "indexed": false,
          "internalType": "struct IZapSwap.SwapParams",
          "name": "params",
          "type": "tuple"
        }
      ],
      "name": "Zap",
      "type": "event"
    },
    {
      "anonymous": false,
      "inputs": [
        {
          "indexed": false,
          "internalType": "uint256",
          "name": "inputAmount",
          "type": "uint256"
        },
        {
          "indexed": false,
          "internalType": "contract ICErc20",
          "name": "market",
          "type": "address"
        },
        {
          "indexed": false,
          "internalType": "uint256",
          "name": "outputAmount",
          "type": "uint256"
        }
      ],
      "name": "ZapLending",
      "type": "event"
    },
    {
      "anonymous": false,
      "inputs": [
        {
          "indexed": false,
          "internalType": "uint256",
          "name": "inputAmount",
          "type": "uint256"
        },
        {
          "indexed": false,
          "internalType": "contract ICErc20",
          "name": "market",
          "type": "address"
        }
      ],
      "name": "ZapLendingMarket",
      "type": "event"
    },
    {
      "anonymous": false,
      "inputs": [
        {
          "components": [
            {
              "internalType": "uint256",
              "name": "inputAmount",
              "type": "uint256"
            },
            {
              "internalType": "contract IMiniApeV2",
              "name": "miniApe",
              "type": "address"
            },
            {
              "internalType": "uint256",
              "name": "pid",
              "type": "uint256"
            },
            {
              "internalType": "address",
              "name": "recipient",
              "type": "address"
            }
          ],
          "indexed": false,
          "internalType": "struct ApeSwapZapMiniApeV2.zapMiniApeV2Params",
          "name": "params",
          "type": "tuple"
        }
      ],
      "name": "ZapMiniApeV2",
      "type": "event"
    },
    {
      "anonymous": false,
      "inputs": [
        {
          "components": [
            {
              "internalType": "uint256",
              "name": "inputAmount",
              "type": "uint256"
            },
            {
              "internalType": "contract IBEP20RewardApeV5",
              "name": "pool",
              "type": "address"
            },
            {
              "internalType": "address",
              "name": "recipient",
              "type": "address"
            }
          ],
          "indexed": false,
          "internalType": "struct ApeSwapZapPools.ZapPoolParams",
          "name": "params",
          "type": "tuple"
        }
      ],
      "name": "ZapPool",
      "type": "event"
    },
    {
      "anonymous": false,
      "inputs": [
        {
          "components": [
            {
              "internalType": "contract ICustomBill",
              "name": "bill",
              "type": "address"
            },
            {
              "internalType": "uint256",
              "name": "inputAmount",
              "type": "uint256"
            },
            {
              "internalType": "uint256",
              "name": "maxPrice",
              "type": "uint256"
            },
            {
              "internalType": "address",
              "name": "recipient",
              "type": "address"
            }
          ],
          "indexed": false,
          "internalType": "struct ApeSwapZapTBills.zapTBillParams",
          "name": "params",
          "type": "tuple"
        }
      ],
      "name": "ZapTBill",
      "type": "event"
    },
    {
      "anonymous": false,
      "inputs": [
        {
          "indexed": false,
          "internalType": "contract IERC20",
          "name": "inputToken",
          "type": "address"
        },
        {
          "indexed": false,
          "internalType": "uint256",
          "name": "inputAmount",
          "type": "uint256"
        },
        {
          "indexed": false,
          "internalType": "uint256",
          "name": "vaultPid",
          "type": "uint256"
        }
      ],
      "name": "ZapVault",
      "type": "event"
    },
    {
      "inputs": [],
      "name": "BANANA",
      "outputs": [
        {
          "internalType": "contract IERC20",
          "name": "",
          "type": "address"
        }
      ],
      "stateMutability": "view",
      "type": "function"
    },
    {
      "inputs": [],
      "name": "GNANA",
      "outputs": [
        {
          "internalType": "contract IERC20",
          "name": "",
          "type": "address"
        }
      ],
      "stateMutability": "view",
      "type": "function"
    },
    {
      "inputs": [],
      "name": "GNANA_TREASURY",
      "outputs": [
        {
          "internalType": "contract ITreasury",
          "name": "",
          "type": "address"
        }
      ],
      "stateMutability": "view",
      "type": "function"
    },
    {
      "inputs": [],
      "name": "LENDING_NATIVE_UNDERLYING",
      "outputs": [
        {
          "internalType": "address",
          "name": "",
          "type": "address"
        }
      ],
      "stateMutability": "view",
      "type": "function"
    },
    {
      "inputs": [],
      "name": "WNative",
      "outputs": [
        {
          "internalType": "contract IWETH",
          "name": "",
          "type": "address"
        }
      ],
      "stateMutability": "view",
      "type": "function"
    },
    {
      "inputs": [
        {
          "components": [
            {
              "internalType": "address",
              "name": "lpRouter",
              "type": "address"
            },
            {
              "internalType": "address",
              "name": "token0",
              "type": "address"
            },
            {
              "internalType": "address",
              "name": "token1",
              "type": "address"
            },
            {
              "internalType": "address",
              "name": "arrakisPool",
              "type": "address"
            },
            {
              "internalType": "uint256",
              "name": "amount0Desired",
              "type": "uint256"
            },
            {
              "internalType": "uint256",
              "name": "amount1Desired",
              "type": "uint256"
            },
            {
              "internalType": "uint256",
              "name": "amount0Min",
              "type": "uint256"
            },
            {
              "internalType": "uint256",
              "name": "amount1Min",
              "type": "uint256"
            },
            {
              "internalType": "address",
              "name": "recipient",
              "type": "address"
            },
            {
              "internalType": "uint256",
              "name": "deadline",
              "type": "uint256"
            }
          ],
          "internalType": "struct IZapLiquidity.AddLiquidityArrakisParams",
          "name": "params",
          "type": "tuple"
        }
      ],
      "name": "addLiquidityArrakis",
      "outputs": [
        {
          "internalType": "uint256",
          "name": "amount0Lp",
          "type": "uint256"
        },
        {
          "internalType": "uint256",
          "name": "amount1Lp",
          "type": "uint256"
        }
      ],
      "stateMutability": "payable",
      "type": "function"
    },
    {
      "inputs": [
        {
          "components": [
            {
              "internalType": "address",
              "name": "lpRouter",
              "type": "address"
            },
            {
              "internalType": "address",
              "name": "token0",
              "type": "address"
            },
            {
              "internalType": "address",
              "name": "token1",
              "type": "address"
            },
            {
              "internalType": "uint256",
              "name": "amount0Desired",
              "type": "uint256"
            },
            {
              "internalType": "uint256",
              "name": "amount1Desired",
              "type": "uint256"
            },
            {
              "internalType": "uint256",
              "name": "amount0Min",
              "type": "uint256"
            },
            {
              "internalType": "uint256",
              "name": "amount1Min",
              "type": "uint256"
            },
            {
              "internalType": "address",
              "name": "recipient",
              "type": "address"
            },
            {
              "internalType": "uint256",
              "name": "deadline",
              "type": "uint256"
            }
          ],
          "internalType": "struct IZapLiquidity.AddLiquidityV2Params",
          "name": "params",
          "type": "tuple"
        }
      ],
      "name": "addLiquidityV2",
      "outputs": [
        {
          "internalType": "uint256",
          "name": "amount0Lp",
          "type": "uint256"
        },
        {
          "internalType": "uint256",
          "name": "amount1Lp",
          "type": "uint256"
        }
      ],
      "stateMutability": "payable",
      "type": "function"
    },
    {
      "inputs": [
        {
          "components": [
            {
              "internalType": "address",
              "name": "lpRouter",
              "type": "address"
            },
            {
              "internalType": "address",
              "name": "token0",
              "type": "address"
            },
            {
              "internalType": "address",
              "name": "token1",
              "type": "address"
            },
            {
              "internalType": "uint24",
              "name": "fee",
              "type": "uint24"
            },
            {
              "internalType": "int24",
              "name": "tickLower",
              "type": "int24"
            },
            {
              "internalType": "int24",
              "name": "tickUpper",
              "type": "int24"
            },
            {
              "internalType": "uint256",
              "name": "amount0Desired",
              "type": "uint256"
            },
            {
              "internalType": "uint256",
              "name": "amount1Desired",
              "type": "uint256"
            },
            {
              "internalType": "uint256",
              "name": "amount0Min",
              "type": "uint256"
            },
            {
              "internalType": "uint256",
              "name": "amount1Min",
              "type": "uint256"
            },
            {
              "internalType": "address",
              "name": "recipient",
              "type": "address"
            },
            {
              "internalType": "uint256",
              "name": "deadline",
              "type": "uint256"
            }
          ],
          "internalType": "struct IZapLiquidity.AddLiquidityV3Params",
          "name": "params",
          "type": "tuple"
        }
      ],
      "name": "addLiquidityV3",
      "outputs": [
        {
          "internalType": "uint256",
          "name": "tokenId",
          "type": "uint256"
        },
        {
          "internalType": "uint128",
          "name": "liquidity",
          "type": "uint128"
        },
        {
          "internalType": "uint256",
          "name": "amount0",
          "type": "uint256"
        },
        {
          "internalType": "uint256",
          "name": "amount1",
          "type": "uint256"
        }
      ],
      "stateMutability": "payable",
      "type": "function"
    },
    {
      "inputs": [
        {
          "components": [
            {
              "internalType": "uint256",
              "name": "inputAmount",
              "type": "uint256"
            },
            {
              "components": [
                {
                  "internalType": "address",
                  "name": "swapRouter",
                  "type": "address"
                },
                {
                  "internalType": "enum IZapAnalyzer.SwapType",
                  "name": "swapType",
                  "type": "uint8"
                },
                {
                  "internalType": "address[]",
                  "name": "path",
                  "type": "address[]"
                },
                {
                  "internalType": "uint24[]",
                  "name": "uniV3PoolFees",
                  "type": "uint24[]"
                }
              ],
              "internalType": "struct IZapAnalyzer.SwapPath[]",
              "name": "path0",
              "type": "tuple[]"
            },
            {
              "components": [
                {
                  "internalType": "address",
                  "name": "swapRouter",
                  "type": "address"
                },
                {
                  "internalType": "enum IZapAnalyzer.SwapType",
                  "name": "swapType",
                  "type": "uint8"
                },
                {
                  "internalType": "address[]",
                  "name": "path",
                  "type": "address[]"
                },
                {
                  "internalType": "uint24[]",
                  "name": "uniV3PoolFees",
                  "type": "uint24[]"
                }
              ],
              "internalType": "struct IZapAnalyzer.SwapPath[]",
              "name": "path1",
              "type": "tuple[]"
            },
            {
              "components": [
                {
                  "internalType": "address",
                  "name": "lpRouter",
                  "type": "address"
                },
                {
                  "internalType": "enum IZapAnalyzer.LiquidityType",
                  "name": "liquidityType",
                  "type": "uint8"
                },
                {
                  "internalType": "uint24",
                  "name": "uniV3PoolLPFee",
                  "type": "uint24"
                },
                {
                  "internalType": "int24",
                  "name": "tickLower",
                  "type": "int24"
                },
                {
                  "internalType": "int24",
                  "name": "tickUpper",
                  "type": "int24"
                },
                {
                  "internalType": "address",
                  "name": "arrakisFactory",
                  "type": "address"
                }
              ],
              "internalType": "struct IZapAnalyzer.LiquidityPath",
              "name": "liquidityPath",
              "type": "tuple"
            }
          ],
          "internalType": "struct IZapAnalyzer.SwapReturnsParams",
          "name": "params",
          "type": "tuple"
        }
      ],
      "name": "estimateSwapReturns",
      "outputs": [
        {
          "components": [
            {
              "internalType": "uint256",
              "name": "swapToToken0",
              "type": "uint256"
            },
            {
              "internalType": "uint256",
              "name": "swapToToken1",
              "type": "uint256"
            },
            {
              "internalType": "uint256",
              "name": "minAmountSwap0",
              "type": "uint256"
            },
            {
              "internalType": "uint256",
              "name": "minAmountSwap1",
              "type": "uint256"
            },
            {
              "internalType": "uint256",
              "name": "minAmountLP0",
              "type": "uint256"
            },
            {
              "internalType": "uint256",
              "name": "minAmountLP1",
              "type": "uint256"
            }
          ],
          "internalType": "struct IZapAnalyzer.SwapReturns",
          "name": "returnValues",
          "type": "tuple"
        }
      ],
      "stateMutability": "view",
      "type": "function"
    },
    {
      "inputs": [
        {
          "internalType": "bytes[]",
          "name": "data",
          "type": "bytes[]"
        }
      ],
      "name": "multicall",
      "outputs": [
        {
          "internalType": "bytes[]",
          "name": "results",
          "type": "bytes[]"
        }
      ],
      "stateMutability": "payable",
      "type": "function"
    },
    {
      "inputs": [
        {
          "components": [
            {
              "internalType": "contract IApeRouter02",
              "name": "router",
              "type": "address"
            },
            {
              "internalType": "contract IApePair",
              "name": "lp",
              "type": "address"
            },
            {
              "internalType": "uint256",
              "name": "amount",
              "type": "uint256"
            },
            {
              "internalType": "uint256",
              "name": "amountAMinRemove",
              "type": "uint256"
            },
            {
              "internalType": "uint256",
              "name": "amountBMinRemove",
              "type": "uint256"
            },
            {
              "internalType": "address",
              "name": "recipient",
              "type": "address"
            },
            {
              "internalType": "uint256",
              "name": "deadline",
              "type": "uint256"
            }
          ],
          "internalType": "struct IZapLiquidity.RemoveLiquidityV2Params",
          "name": "params",
          "type": "tuple"
        }
      ],
      "name": "removeLiquidityV2",
      "outputs": [
        {
          "internalType": "uint256",
          "name": "amountAReceived",
          "type": "uint256"
        },
        {
          "internalType": "uint256",
          "name": "amountBReceived",
          "type": "uint256"
        }
      ],
      "stateMutability": "nonpayable",
      "type": "function"
    },
    {
      "inputs": [
        {
          "components": [
            {
              "internalType": "contract IERC20",
              "name": "inputToken",
              "type": "address"
            },
            {
              "internalType": "uint256",
              "name": "inputAmount",
              "type": "uint256"
            },
            {
              "internalType": "enum IZapSwap.SwapType2",
              "name": "swapType",
              "type": "uint8"
            },
            {
              "internalType": "address",
              "name": "caller",
              "type": "address"
            },
            {
              "internalType": "bytes[]",
              "name": "swapData",
              "type": "bytes[]"
            },
            {
              "internalType": "address",
              "name": "to",
              "type": "address"
            },
            {
              "internalType": "uint256",
              "name": "deadline",
              "type": "uint256"
            }
          ],
          "internalType": "struct IZapSwap.SwapParams",
          "name": "params",
          "type": "tuple"
        }
      ],
      "name": "swap",
      "outputs": [],
      "stateMutability": "payable",
      "type": "function"
    },
    {
      "inputs": [
        {
          "internalType": "uint256",
          "name": "value",
          "type": "uint256"
        }
      ],
      "name": "wrapNative",
      "outputs": [],
      "stateMutability": "payable",
      "type": "function"
    },
    {
      "inputs": [
        {
          "internalType": "uint256",
          "name": "inputAmount",
          "type": "uint256"
        },
        {
          "internalType": "contract ICErc20",
          "name": "market",
          "type": "address"
        },
        {
          "internalType": "address",
          "name": "recipient",
          "type": "address"
        }
      ],
      "name": "zapLending",
      "outputs": [],
      "stateMutability": "payable",
      "type": "function"
    },
    {
      "inputs": [
        {
          "internalType": "uint256",
          "name": "inputAmount",
          "type": "uint256"
        },
        {
          "internalType": "contract ICErc20",
          "name": "market",
          "type": "address"
        }
      ],
      "name": "zapLendingMarket",
      "outputs": [],
      "stateMutability": "payable",
      "type": "function"
    },
    {
      "inputs": [
        {
          "components": [
            {
              "internalType": "uint256",
              "name": "inputAmount",
              "type": "uint256"
            },
            {
              "internalType": "contract IMiniApeV2",
              "name": "miniApe",
              "type": "address"
            },
            {
              "internalType": "uint256",
              "name": "pid",
              "type": "uint256"
            },
            {
              "internalType": "address",
              "name": "recipient",
              "type": "address"
            }
          ],
          "internalType": "struct ApeSwapZapMiniApeV2.zapMiniApeV2Params",
          "name": "params",
          "type": "tuple"
        }
      ],
      "name": "zapMiniApeV2",
      "outputs": [],
      "stateMutability": "nonpayable",
      "type": "function"
    },
    {
      "inputs": [
        {
          "components": [
            {
              "internalType": "contract ICustomBill",
              "name": "bill",
              "type": "address"
            },
            {
              "internalType": "uint256",
              "name": "inputAmount",
              "type": "uint256"
            },
            {
              "internalType": "uint256",
              "name": "maxPrice",
              "type": "uint256"
            },
            {
              "internalType": "address",
              "name": "recipient",
              "type": "address"
            }
          ],
          "internalType": "struct ApeSwapZapTBills.zapTBillParams",
          "name": "params",
          "type": "tuple"
        }
      ],
      "name": "zapTBill",
      "outputs": [],
      "stateMutability": "nonpayable",
      "type": "function"
    },
    {
      "inputs": [
        {
          "components": [
            {
              "internalType": "uint256",
              "name": "inputAmount",
              "type": "uint256"
            },
            {
              "internalType": "contract IMaximizerVaultApe",
              "name": "maximizerVaultApe",
              "type": "address"
            },
            {
              "internalType": "uint256",
              "name": "vaultPid",
              "type": "uint256"
            },
            {
              "internalType": "address",
              "name": "recipient",
              "type": "address"
            }
          ],
          "internalType": "struct ApeSwapZapVaults.zapVaultParams",
          "name": "params",
          "type": "tuple"
        }
      ],
      "name": "zapVault",
      "outputs": [],
      "stateMutability": "nonpayable",
      "type": "function"
    }
  ],
  "bytecode": "0x60e06040523480156200001157600080fd5b5060405162005e0c38038062005e0c833981016040819052620000349162000201565b600080546001600160a01b0319166001600160a01b038416178155600180558190808046603803620000d5576001600160a01b038416620000d55760405162461bcd60e51b815260206004820152603160248201527f4d7573742070726f7669646520476f6c64656e2042414e414e412054726561736044820152703ab93c903337b9102127211021b430b4b760791b606482015260840160405180910390fd5b6001600160a01b03841615620001bc57839250826001600160a01b031663c3cafc6f6040518163ffffffff1660e01b8152600401602060405180830381865afa15801562000127573d6000803e3d6000fd5b505050506040513d601f19601f820116820180604052508101906200014d919062000240565b9150826001600160a01b0316634099c0c86040518163ffffffff1660e01b8152600401602060405180830381865afa1580156200018e573d6000803e3d6000fd5b505050506040513d601f19601f82011682018060405250810190620001b4919062000240565b9050620001c6565b5060009150819050805b6001600160a01b0392831660c0529082166080521660a0525062000267915050565b6001600160a01b0381168114620001fe57600080fd5b50565b600080604083850312156200021557600080fd5b82516200022281620001e8565b60208401519092506200023581620001e8565b809150509250929050565b6000602082840312156200025357600080fd5b81516200026081620001e8565b9392505050565b60805160a05160c051615b7562000297600039600061027a015260006101a70152600061036f0152615b756000f3fe6080604052600436106101295760003560e01c80639169d833116100a5578063c0083f4211610074578063d0de103411610059578063d0de103414610391578063f3ec43c7146103d5578063f7c9943d146103f557600080fd5b8063c0083f421461034a578063c8b35c7a1461035d57600080fd5b80639169d833146102c257806399bcfb08146102d5578063a7aff3e91461030a578063ac9650d81461032a57600080fd5b80636321ba6c116100fc5780637c146872116100e15780637c146872146102685780637cd85ab31461029c5780637fe40e4e146102af57600080fd5b80636321ba6c146101e95780636ffc93c51461025557600080fd5b806319a671d31461012e57806322e41609146101505780632b51489f146101955780633d482113146101c9575b600080fd5b34801561013a57600080fd5b5061014e6101493660046147f4565b610408565b005b34801561015c57600080fd5b5061017873eeeeeeeeeeeeeeeeeeeeeeeeeeeeeeeeeeeeeeee81565b6040516001600160a01b0390911681526020015b60405180910390f35b3480156101a157600080fd5b506101787f000000000000000000000000000000000000000000000000000000000000000081565b3480156101d557600080fd5b5061014e6101e4366004614849565b6106c7565b3480156101f557600080fd5b50610209610204366004614ac8565b610979565b60405161018c9190600060c082019050825182526020830151602083015260408301516040830152606083015160608301526080830151608083015260a083015160a083015292915050565b61014e610263366004614c04565b611283565b34801561027457600080fd5b506101787f000000000000000000000000000000000000000000000000000000000000000081565b61014e6102aa366004614c46565b611772565b61014e6102bd366004614d6c565b611975565b61014e6102d0366004614e34565b611cc1565b3480156102e157600080fd5b506102f56102f0366004614e4d565b611d2b565b6040805192835260208301919091520161018c565b34801561031657600080fd5b5061014e6103253660046147f4565b611fbf565b61033d610338366004614eeb565b6122dc565b60405161018c919061500d565b6102f5610358366004615020565b612434565b34801561036957600080fd5b506101787f000000000000000000000000000000000000000000000000000000000000000081565b6103a461039f3660046150c7565b6126b3565b604080519485526fffffffffffffffffffffffffffffffff909316602085015291830152606082015260800161018c565b3480156103e157600080fd5b50600054610178906001600160a01b031681565b6102f5610403366004615194565b612aff565b600081602001516001600160a01b03166378ed5d1f83604001516040518263ffffffff1660e01b815260040161044091815260200190565b6020604051808303816000875af115801561045f573d6000803e3d6000fd5b505050506040513d601f19601f820116820180604052508101906104839190615229565b9050610493818360000151612d25565b825260608201516001600160a01b0316600019016104b6573360608301526104db565b60026001600160a01b031682606001516001600160a01b0316036104db573060608301525b6020820151825160405163095ea7b360e01b81526001600160a01b0384169263095ea7b392610520926004016001600160a01b03929092168252602082015260400190565b6020604051808303816000875af115801561053f573d6000803e3d6000fd5b505050506040513d601f19601f820116820180604052508101906105639190615256565b506020820151604080840151845160608601519251638dbdbe6d60e01b8152600481019290925260248201526001600160a01b039182166044820152911690638dbdbe6d90606401600060405180830381600087803b1580156105c557600080fd5b505af11580156105d9573d6000803e3d6000fd5b50505050602082015160405163095ea7b360e01b81526001600160a01b039182166004820152600060248201529082169063095ea7b3906044016020604051808303816000875af1158015610632573d6000803e3d6000fd5b505050506040513d601f19601f820116820180604052508101906106569190615256565b507f4f77b14b98fea9dfbe532020adb1d2b1b16e62086530538c69471554e36e3324826040516106bb9190815181526020808301516001600160a01b039081169183019190915260408084015190830152606092830151169181019190915260800190565b60405180910390a15050565b600081600001516001600160a01b031663dbc162de6040518163ffffffff1660e01b81526004016020604051808303816000875af115801561070d573d6000803e3d6000fd5b505050506040513d601f19601f820116820180604052508101906107319190615229565b9050610741818360200151612d25565b602083015260608201516001600160a01b0316600019016107675733606083015261078c565b60026001600160a01b031682606001516001600160a01b03160361078c573060608301525b8151602083015160405163095ea7b360e01b81526001600160a01b0384169263095ea7b3926107d1926004016001600160a01b03929092168252602082015260400190565b6020604051808303816000875af11580156107f0573d6000803e3d6000fd5b505050506040513d601f19601f820116820180604052508101906108149190615256565b508151602083015160408085015160608601519151638dbdbe6d60e01b8152600481019390935260248301526001600160a01b03908116604483015290911690638dbdbe6d906064016020604051808303816000875af115801561087c573d6000803e3d6000fd5b505050506040513d601f19601f820116820180604052508101906108a09190615271565b50815160405163095ea7b360e01b81526001600160a01b039182166004820152600060248201529082169063095ea7b3906044016020604051808303816000875af11580156108f3573d6000803e3d6000fd5b505050506040513d601f19601f820116820180604052508101906109179190615256565b507fce54e2eded6d6e8d11b730770c27157c4af72210021a6e7bb617cab89a0f29b4826040516106bb919081516001600160a01b0390811682526020808401519083015260408084015190830152606092830151169181019190915260800190565b6109b26040518060c001604052806000815260200160008152602001600081526020016000815260200160008152602001600081525090565b610a53604051806101a001604052806000815260200160006001600160a01b0316815260200160006001600160a01b0316815260200160006001600160a01b0316815260200160006001600160a01b031681526020016000815260200160008152602001600081526020016000815260200160006001600160a01b0316815260200160006001600160a01b0316815260200160008152602001600081525090565b610a916040518060400160405280600581526020017f5354415254000000000000000000000000000000000000000000000000000000815250612dde565b60208301515115610b285760208301518051610aaf906001906152a0565b81518110610abf57610abf6152b7565b602002602001015160400151600184602001516001866020015151610ae491906152a0565b81518110610af457610af46152b7565b60200260200101516040015151610b0b91906152a0565b81518110610b1b57610b1b6152b7565b6020026020010151610b66565b8260400151600081518110610b3f57610b3f6152b7565b602002602001015160400151600081518110610b5d57610b5d6152b7565b60200260200101515b6001600160a01b03166040808301919091528301515115610c0d5760408301518051610b94906001906152a0565b81518110610ba457610ba46152b7565b602002602001015160400151600184604001516001866040015151610bc991906152a0565b81518110610bd957610bd96152b7565b60200260200101516040015151610bf091906152a0565b81518110610c0057610c006152b7565b6020026020010151610c4b565b8260200151600081518110610c2457610c246152b7565b602002602001015160400151600081518110610c4257610c426152b7565b60200260200101515b6001600160a01b03166060820152602083015151610ca5578260400151600081518110610c7a57610c7a6152b7565b602002602001015160400151600081518110610c9857610c986152b7565b6020026020010151610ce3565b8260200151600081518110610cbc57610cbc6152b7565b602002602001015160400151600081518110610cda57610cda6152b7565b60200260200101515b6001600160a01b03166080820181905260408201516060830151610d0692612e3d565b60008360600151602001516002811115610d2257610d226152cd565b03610d4f578251610d35906002906152f9565b82528251610d45906002906152f9565b602083015261114f565b60018360600151602001516002811115610d6b57610d6b6152cd565b03610e115760408051610140810182526080808401516001600160a01b039081168352865160208085019190915285850151821684860152606080870151831681860152808901805187015162ffffff1685870152805190910151600290810b60a087015281519094015190930b60c085015287015160e0840152928601516101008301525151909116610120820152610e0481612eb3565b602085015283525061114f565b60028360600151602001516002811115610e2d57610e2d6152cd565b0361114f578260600151600001516001600160a01b031663c45a01556040518163ffffffff1660e01b8152600401602060405180830381865afa158015610e78573d6000803e3d6000fd5b505050506040513d601f19601f82011682018060405250810190610e9c9190615229565b604080830151606080850151908701518301519251630b4c774160e11b81526001600160a01b039283166004820152908216602482015262ffffff90921660448301529190911690631698ee8290606401602060405180830381865afa158015610f0a573d6000803e3d6000fd5b505050506040513d601f19601f82011682018060405250810190610f2e9190615229565b6001600160a01b03166101208201819052606084015160a00151610f5291906131b1565b8161014001906001600160a01b031690816001600160a01b031681525050600060405180610140016040528083608001516001600160a01b031681526020018560000151815260200183604001516001600160a01b0316815260200183606001516001600160a01b0316815260200185606001516040015162ffffff1681526020018361014001516001600160a01b0316639b1344ac6040518163ffffffff1660e01b8152600401602060405180830381865afa158015611017573d6000803e3d6000fd5b505050506040513d601f19601f8201168201806040525081019061103b919061531b565b60020b81526020018361014001516001600160a01b031663727dd2286040518163ffffffff1660e01b8152600401602060405180830381865afa158015611086573d6000803e3d6000fd5b505050506040513d601f19601f820116820180604052508101906110aa919061531b565b60020b815260200185602001518152602001856040015181526020018560600151600001516001600160a01b031663c45a01556040518163ffffffff1660e01b8152600401602060405180830381865afa15801561110c573d6000803e3d6000fd5b505050506040513d601f19601f820116820180604052508101906111309190615229565b6001600160a01b03169052905061114681612eb3565b60208501528352505b6111976040518060400160405280600c81526020017f73776170546f546f6b656e7300000000000000000000000000000000000000008152508360000151846020015161340c565b80604001516001600160a01b031681608001516001600160a01b0316146111ca576111c5836020015161346c565b6111d4565b670de0b6b3a76400005b610160820152606081015160808201516001600160a01b0390811691161461120857611203836040015161346c565b611212565b670de0b6b3a76400005b6101808201526101608101518251670de0b6b3a76400009161123391615338565b61123d91906152f9565b6040830181905260808301526101808101516020830151670de0b6b3a76400009161126791615338565b61127191906152f9565b6060830181905260a083015250919050565b6000826001600160a01b0316636f307dc36040518163ffffffff1660e01b8152600401602060405180830381865afa1580156112c3573d6000803e3d6000fd5b505050506040513d601f19601f820116820180604052508101906112e79190615229565b90506112f38185612d25565b93507fffffffffffffffffffffffff11111111111111111111111111111111111111126001600160a01b03821601611384576000349050836001600160a01b0316631249c58b826040518263ffffffff1660e01b81526004016000604051808303818588803b15801561136557600080fd5b505af1158015611379573d6000803e3d6000fd5b5050505050506115ba565b6040516370a0823160e01b81523060048201526000906001600160a01b038316906370a0823190602401602060405180830381865afa1580156113cb573d6000803e3d6000fd5b505050506040513d601f19601f820116820180604052508101906113ef9190615271565b60405163095ea7b360e01b81526001600160a01b038681166004830152602482018390529192509083169063095ea7b3906044016020604051808303816000875af1158015611442573d6000803e3d6000fd5b505050506040513d601f19601f820116820180604052508101906114669190615256565b506040517fa0712d68000000000000000000000000000000000000000000000000000000008152600481018290526000906001600160a01b0386169063a0712d68906024016020604051808303816000875af11580156114ca573d6000803e3d6000fd5b505050506040513d601f19601f820116820180604052508101906114ee9190615271565b905080156115435760405162461bcd60e51b815260206004820152601e60248201527f417065537761705a61704c656e64696e673a204d696e74206661696c6564000060448201526064015b60405180910390fd5b60405163095ea7b360e01b81526001600160a01b0386811660048301526000602483015284169063095ea7b3906044016020604051808303816000875af1158015611592573d6000803e3d6000fd5b505050506040513d601f19601f820116820180604052508101906115b69190615256565b5050505b6040516370a0823160e01b81523060048201526000906001600160a01b038516906370a0823190602401602060405180830381865afa158015611601573d6000803e3d6000fd5b505050506040513d601f19601f820116820180604052508101906116259190615271565b90506000811161169c5760405162461bcd60e51b8152602060048201526024808201527f417065537761705a61704c656e64696e673a204e6f7468696e67206465706f7360448201527f6974656400000000000000000000000000000000000000000000000000000000606482015260840161153a565b6001600160a01b0383166002146117225760405163a9059cbb60e01b81526001600160a01b0384811660048301526024820183905283169063a9059cbb906044016020604051808303816000875af11580156116fc573d6000803e3d6000fd5b505050506040513d601f19601f820116820180604052508101906117209190615256565b505b604080518681526001600160a01b03861660208201529081018290527f3ef48a56b7115a116ba6cb944d7716d6ed59fb27262cfe8f0d81132fcf0be30e9060600160405180910390a15050505050565b6000816001600160a01b0316636f307dc36040518163ffffffff1660e01b8152600401602060405180830381865afa1580156117b2573d6000803e3d6000fd5b505050506040513d601f19601f820116820180604052508101906117d69190615229565b90506117e28184612d25565b60405163095ea7b360e01b81526001600160a01b038481166004830152602482018390529194509082169063095ea7b3906044016020604051808303816000875af1158015611835573d6000803e3d6000fd5b505050506040513d601f19601f820116820180604052508101906118599190615256565b5060405163a9059cbb60e01b8152336004820152602481018490526001600160a01b0383169063a9059cbb90604401600060405180830381600087803b1580156118a257600080fd5b505af11580156118b6573d6000803e3d6000fd5b505060405163095ea7b360e01b81526001600160a01b038581166004830152600060248301528416925063095ea7b391506044016020604051808303816000875af1158015611909573d6000803e3d6000fd5b505050506040513d601f19601f8201168201806040525081019061192d9190615256565b50604080518481526001600160a01b03841660208201527fd96d67c77c0822b47ea855a426e7173cf27fa1e263c5fbc00d439a3e229b509c91015b60405180910390a1505050565b6002600154036119c75760405162461bcd60e51b815260206004820152601f60248201527f5265656e7472616e637947756172643a207265656e7472616e742063616c6c00604482015260640161153a565b600260015560a08101516001600160a01b0316611a4c5760405162461bcd60e51b815260206004820152602560248201527f417065537761705a61703a2043616e2774207a617020746f206e756c6c20616460448201527f6472657373000000000000000000000000000000000000000000000000000000606482015260840161153a565b60608101516001600160a01b0316611acc5760405162461bcd60e51b815260206004820152602860248201527f417065537761705a61703a2063616c6c65722063616e2774206265206e756c6c60448201527f2061646472657373000000000000000000000000000000000000000000000000606482015260840161153a565b611ade81600001518260200151612d25565b602082018190528151606083015160405163095ea7b360e01b81526001600160a01b0391821660048201526024810193909352169063095ea7b3906044016020604051808303816000875af1158015611b3b573d6000803e3d6000fd5b505050506040513d601f19601f82011682018060405250810190611b5f9190615256565b50600060408201518015611b7557611b756152cd565b03611c1557606081015160808201516040517fac9650d80000000000000000000000000000000000000000000000000000000081526001600160a01b039092169163ac9650d891611bc89160040161500d565b6000604051808303816000875af1158015611be7573d6000803e3d6000fd5b505050506040513d6000823e601f3d908101601f19168201604052611c0f9190810190615387565b50611c83565b60405162461bcd60e51b815260206004820152602360248201527f417065537761705a61703a20537761702074797065206e6f7420737570706f7260448201527f7465640000000000000000000000000000000000000000000000000000000000606482015260840161153a565b7fc5ca703aec5b044c3190c72ccc4d33209d1f7b27814752b95cdec44841ab6bd981604051611cb2919061544d565b60405180910390a15060018055565b60008054906101000a90046001600160a01b03166001600160a01b031663d0e30db0826040518263ffffffff1660e01b81526004016000604051808303818588803b158015611d0f57600080fd5b505af1158015611d23573d6000803e3d6000fd5b505050505050565b60008060016001600160a01b03168360a001516001600160a01b031603611d57573360a0840152611d7c565b60026001600160a01b03168360a001516001600160a01b031603611d7c573060a08401525b600083602001516001600160a01b0316630dfe16816040518163ffffffff1660e01b8152600401602060405180830381865afa158015611dc0573d6000803e3d6000fd5b505050506040513d601f19601f82011682018060405250810190611de49190615229565b9050600084602001516001600160a01b031663d21220a76040518163ffffffff1660e01b8152600401602060405180830381865afa158015611e2a573d6000803e3d6000fd5b505050506040513d601f19601f82011682018060405250810190611e4e9190615229565b9050611e6285602001518660400151612d25565b604086810182905260208701518751915163095ea7b360e01b81526001600160a01b0392831660048201526024810193909352169063095ea7b3906044016020604051808303816000875af1158015611ebf573d6000803e3d6000fd5b505050506040513d601f19601f82011682018060405250810190611ee39190615256565b5084516040808701516060880151608089015160a08a015160c08b015194517fbaa2abde0000000000000000000000000000000000000000000000000000000081526001600160a01b0389811660048301528881166024830152604482019590955260648101939093526084830191909152821660a482015260c48101929092529091169063baa2abde9060e40160408051808303816000875af1158015611f8f573d6000803e3d6000fd5b505050506040513d601f19601f82011682018060405250810190611fb391906154fd565b90969095509350505050565b600081602001516001600160a01b0316638c64ea4a83604001516040518263ffffffff1660e01b8152600401611ff791815260200190565b602060405180830381865afa158015612014573d6000803e3d6000fd5b505050506040513d601f19601f820116820180604052508101906120389190615229565b90506000816001600160a01b031663d363c6876040518163ffffffff1660e01b81526004016020604051808303816000875af115801561207c573d6000803e3d6000fd5b505050506040513d601f19601f820116820180604052508101906120a09190615229565b90506120b0818460000151612d25565b835260608301516001600160a01b0316600019016120d3573360608401526120f8565b60026001600160a01b031683606001516001600160a01b0316036120f8573060608401525b6020830151835160405163095ea7b360e01b81526001600160a01b0384169263095ea7b39261213d926004016001600160a01b03929092168252602082015260400190565b6020604051808303816000875af115801561215c573d6000803e3d6000fd5b505050506040513d601f19601f820116820180604052508101906121809190615256565b5060208301516040808501516060860151865192517f72e5186c00000000000000000000000000000000000000000000000000000000815260048101929092526001600160a01b03908116602483015260448201929092529116906372e5186c90606401600060405180830381600087803b1580156121fe57600080fd5b505af1158015612212573d6000803e3d6000fd5b50505050602083015160405163095ea7b360e01b81526001600160a01b039182166004820152600060248201529082169063095ea7b3906044016020604051808303816000875af115801561226b573d6000803e3d6000fd5b505050506040513d601f19601f8201168201806040525081019061228f9190615256565b50825160408085015181516001600160a01b03851681526020810193909352908201527f18666a4b17745baf38ce6b4b1a23f6bf1128f63c0347ffa6b41ee1b2026ccd0190606001611968565b60608167ffffffffffffffff8111156122f7576122f76146b2565b60405190808252806020026020018201604052801561232a57816020015b60608152602001906001900390816123155790505b50905060005b8281101561242d576000803086868581811061234e5761234e6152b7565b90506020028101906123609190615521565b60405161236e92919061556f565b600060405180830381855af49150503d80600081146123a9576040519150601f19603f3d011682016040523d82523d6000602084013e6123ae565b606091505b5091509150816123fa576044815110156123c757600080fd5b600481019050808060200190518101906123e1919061557f565b60405162461bcd60e51b815260040161153a91906155c8565b8084848151811061240d5761240d6152b7565b602002602001018190525050508080612425906155db565b915050612330565b5092915050565b60008061244983602001518460800151612d25565b6080840152604083015160a08401516124629190612d25565b60a084015260208301518351608085015160405163095ea7b360e01b81526001600160a01b039283166004820152602481019190915291169063095ea7b3906044016020604051808303816000875af11580156124c3573d6000803e3d6000fd5b505050506040513d601f19601f820116820180604052508101906124e79190615256565b50604083810151845160a0860151925163095ea7b360e01b81526001600160a01b0391821660048201526024810193909352169063095ea7b3906044016020604051808303816000875af1158015612543573d6000803e3d6000fd5b505050506040513d601f19601f820116820180604052508101906125679190615256565b5060016001600160a01b03168361010001516001600160a01b03160361259357336101008401526125ba565b60026001600160a01b03168361010001516001600160a01b0316036125ba57306101008401525b82516060840151608085015160a086015160c087015160e08801516101008901516040517ffb9f47890000000000000000000000000000000000000000000000000000000081526001600160a01b0396871660048201526024810195909552604485019390935260648401919091526084830152821660a482015291169063fb9f47899060c4015b6060604051808303816000875af1158015612661573d6000803e3d6000fd5b505050506040513d601f19601f8201168201806040525081019061268591906155f4565b506020850151919350915061269c906000336137d4565b506126ad83604001516000336137d4565b50915091565b60008060008084604001516001600160a01b031685602001516001600160a01b03161061276e5760405162461bcd60e51b815260206004820152604260248201527f417065537761705a61703a20746f6b656e30206d75737420626520737472696360448201527f746c79206c657373207468616e20746f6b656e3120627920736f7274206f726460648201527f6572000000000000000000000000000000000000000000000000000000000000608482015260a40161153a565b61278085602001518660c00151612d25565b60c0860152604085015160e08601516127999190612d25565b60e08601526020850151855160c087015160405163095ea7b360e01b81526001600160a01b039283166004820152602481019190915291169063095ea7b3906044016020604051808303816000875af11580156127fa573d6000803e3d6000fd5b505050506040513d601f19601f8201168201806040525081019061281e9190615256565b50604085810151865160e0880151925163095ea7b360e01b81526001600160a01b0391821660048201526024810193909352169063095ea7b3906044016020604051808303816000875af115801561287a573d6000803e3d6000fd5b505050506040513d601f19601f8201168201806040525081019061289e9190615256565b5060016001600160a01b03168561014001516001600160a01b0316036128ca57336101408601526128f1565b60026001600160a01b03168561014001516001600160a01b0316036128f157306101408601525b6128fe8560c0015161386a565b61290b8560e0015161386a565b84600001516001600160a01b0316638831645660405180610160016040528088602001516001600160a01b0316815260200188604001516001600160a01b03168152602001886060015162ffffff168152602001886080015160020b81526020018860a0015160020b81526020018860c0015181526020018860e001518152602001886101000151815260200188610120015181526020018861014001516001600160a01b031681526020018861016001518152506040518263ffffffff1660e01b81526004016129dc9190615622565b6080604051808303816000875af11580156129fb573d6000803e3d6000fd5b505050506040513d601f19601f82011682018060405250810190612a1f91906156e6565b60208901516040516370a0823160e01b81523060048201529498509296509094509250612aa2916001600160a01b03909116906370a08231906024015b602060405180830381865afa158015612a79573d6000803e3d6000fd5b505050506040513d601f19601f82011682018060405250810190612a9d9190615271565b61386a565b60408086015190516370a0823160e01b8152306004820152612ad6916001600160a01b0316906370a0823190602401612a5c565b612ae685602001516000336137d4565b50612af785604001516000336137d4565b509193509193565b600080612b1483602001518460600151612d25565b606084015260408301516080840151612b2d9190612d25565b608084015260208301518351606085015160405163095ea7b360e01b81526001600160a01b039283166004820152602481019190915291169063095ea7b3906044016020604051808303816000875af1158015612b8e573d6000803e3d6000fd5b505050506040513d601f19601f82011682018060405250810190612bb29190615256565b5060408381015184516080860151925163095ea7b360e01b81526001600160a01b0391821660048201526024810193909352169063095ea7b3906044016020604051808303816000875af1158015612c0e573d6000803e3d6000fd5b505050506040513d601f19601f82011682018060405250810190612c329190615256565b5060016001600160a01b03168360e001516001600160a01b031603612c5c573360e0840152612c81565b60026001600160a01b03168360e001516001600160a01b031603612c81573060e08401525b825160208401516040808601516060870151608088015160a089015160c08a015160e08b01516101008c015196517fe8e337000000000000000000000000000000000000000000000000000000000081526001600160a01b039889166004820152958816602487015260448601949094526064850192909252608484015260a4830152831660c482015260e481019190915291169063e8e337009061010401612642565b600081612d9b576040516370a0823160e01b81523060048201526001600160a01b038416906370a0823190602401602060405180830381865afa158015612d70573d6000803e3d6000fd5b505050506040513d601f19601f82011682018060405250810190612d949190615271565b9150612dd5565b6000612da6846138c8565b9050612dbd6001600160a01b038516333086613933565b80612dc7856138c8565b612dd191906152a0565b9250505b50805b92915050565b612e3a81604051602401612df291906155c8565b60408051601f198184030181529190526020810180516001600160e01b03167f41304fac000000000000000000000000000000000000000000000000000000001790526139d5565b50565b6040516001600160a01b038085166024830152808416604483015282166064820152612eae9060840160408051601f198184030181529190526020810180516001600160e01b03167f018c84c2000000000000000000000000000000000000000000000000000000001790526139d5565b505050565b600080612efe60405180610100016040528060008152602001600081526020016000815260200160008152602001600081526020016000815260200160008152602001600081525090565b612f258461012001518560400151866060015187608001518860a001518960c001516139f6565b602080840191825291835260408051808201909152600a81527f756e6465726c79696e67000000000000000000000000000000000000000000009281019290925282519051612f7592919061340c565b83604001516001600160a01b031663313ce5676040518163ffffffff1660e01b8152600401602060405180830381865afa158015612fb7573d6000803e3d6000fd5b505050506040513d601f19601f82011682018060405250810190612fdb919061574a565b60ff1681604001818152505083606001516001600160a01b031663313ce5676040518163ffffffff1660e01b8152600401602060405180830381865afa158015613029573d6000803e3d6000fd5b505050506040513d601f19601f8201168201806040525081019061304d919061574a565b60ff166060820152805160408201516130669190613bb5565b81526020810151606082015161307c9190613bb5565b6020820152604084015184516001600160a01b039081169116146130ac576130a78460e0015161346c565b6130b6565b670de0b6b3a76400005b6080820152606084015184516001600160a01b039081169116146130e7576130e284610100015161346c565b6130f1565b670de0b6b3a76400005b60a0820152602081015181516000919061311390670de0b6b3a7640000615338565b61311d91906152f9565b90508160a001518161312f9190615338565b613148906ec097ce7bc90715b34b9f1000000000615765565b60a0830151602087015161315c9084615338565b6131669190615338565b61317091906152f9565b935083856020015161318291906152a0565b925084604001516001600160a01b031685606001516001600160a01b031610156131aa579192915b5050915091565b600080826001600160a01b031663607c12b56040518163ffffffff1660e01b8152600401600060405180830381865afa1580156131f2573d6000803e3d6000fd5b505050506040513d6000823e601f3d908101601f1916820160405261321a919081019061577d565b905060005b815181101561339d576000846001600160a01b0316635c39f46784848151811061324b5761324b6152b7565b60200260200101516040518263ffffffff1660e01b815260040161327e91906001600160a01b0391909116815260200190565b600060405180830381865afa15801561329b573d6000803e3d6000fd5b505050506040513d6000823e601f3d908101601f191682016040526132c3919081019061577d565b905060005b81518110156133885760008282815181106132e5576132e56152b7565b60200260200101519050876001600160a01b0316816001600160a01b03166316f0115b6040518163ffffffff1660e01b8152600401602060405180830381865afa158015613337573d6000803e3d6000fd5b505050506040513d601f19601f8201168201806040525081019061335b9190615229565b6001600160a01b031603613375579450612dd89350505050565b5080613380816155db565b9150506132c8565b50508080613395906155db565b91505061321f565b5060405162461bcd60e51b815260206004820152602360248201527f417272616b69734d6174683a20417272616b697320706f6f6c206e6f7420666f60448201527f756e640000000000000000000000000000000000000000000000000000000000606482015260840161153a565b612eae8383836040516024016134249392919061580c565b60408051601f198184030181529190526020810180516001600160e01b03167fca47c4eb000000000000000000000000000000000000000000000000000000001790526139d5565b670de0b6b3a764000060005b82518110156137ce576134c06040518060400160405280600581526020017f737461727400000000000000000000000000000000000000000000000000000081525082613bd7565b60008382815181106134d4576134d46152b7565b60200260200101519050600060018111156134f1576134f16152cd565b81602001516001811115613507576135076152cd565b03613622576040810151805160009161354391613526906001906152a0565b81518110613536576135366152b7565b6020026020010151613c39565b9050600082600001516001600160a01b031663d06ca61f670de0b6b3a764000085604001516040518363ffffffff1660e01b8152600401613585929190615831565b600060405180830381865afa1580156135a2573d6000803e3d6000fd5b505050506040513d6000823e601f3d908101601f191682016040526135ca9190810190615888565b9050670de0b6b3a764000061360582600184516135e791906152a0565b815181106135f7576135f76152b7565b602002602001015184613bb5565b61360f9087615338565b61361991906152f9565b94505050613779565b60018160200151600181111561363a5761363a6152cd565b036137795760005b600182604001515161365491906152a0565b811015613777576136d382604001518281518110613674576136746152b7565b6020026020010151836040015183600161368e9190615765565b8151811061369e5761369e6152b7565b6020026020010151846060015184815181106136bc576136bc6152b7565b602002602001015162ffffff168560000151613cac565b670de0b6b3a764000061374f836040015183815181106136f5576136f56152b7565b6020026020010151846040015184600161370f9190615765565b8151811061371f5761371f6152b7565b60200260200101518560600151858151811061373d5761373d6152b7565b60200260200101518660000151613d24565b6137599086615338565b61376391906152f9565b93508061376f816155db565b915050613642565b505b6137bb6040518060400160405280600d81526020017f776569676874656450726963650000000000000000000000000000000000000081525083865186613f49565b50806137c6816155db565b915050613478565b50919050565b600082613846576040516370a0823160e01b81523060048201526001600160a01b038516906370a0823190602401602060405180830381865afa15801561381f573d6000803e3d6000fd5b505050506040513d601f19601f820116820180604052508101906138439190615271565b92505b8215613860576138606001600160a01b0385168385613fab565b50815b9392505050565b612e3a8160405160240161388091815260200190565b60408051601f198184030181529190526020810180516001600160e01b03167ff82c50f1000000000000000000000000000000000000000000000000000000001790526139d5565b6040516370a0823160e01b81523060048201526000906001600160a01b038316906370a0823190602401602060405180830381865afa15801561390f573d6000803e3d6000fd5b505050506040513d601f19601f82011682018060405250810190612dd89190615271565b6040516001600160a01b03808516602483015283166044820152606481018290526139cf9085907f23b872dd00000000000000000000000000000000000000000000000000000000906084015b60408051601f198184030181529190526020810180516001600160e01b03167fffffffff0000000000000000000000000000000000000000000000000000000090931692909217909152613fdb565b50505050565b80516a636f6e736f6c652e6c6f67602083016000808483855afa5050505050565b6000806000613a04856140c0565b604051630b4c774160e11b81526001600160a01b038a81166004830152898116602483015262ffffff891660448301529192506000918b1690631698ee8290606401602060405180830381865afa158015613a63573d6000803e3d6000fd5b505050506040513d601f19601f82011682018060405250810190613a879190615229565b6001600160a01b0316633850c7bd6040518163ffffffff1660e01b815260040160e060405180830381865afa158015613ac4573d6000803e3d6000fd5b505050506040513d601f19601f82011682018060405250810190613ae89190615920565b50505050505090506000613afb866140c0565b90506000613b29836001600160a01b0316836001600160a01b03166c01000000000000000000000000614409565b90506000613b5a613b55670de0b6b3a764000084613b4788886159ab565b6001600160a01b0316614409565b6144bb565b670de0b6b3a764000097509050613ba36fffffffffffffffffffffffffffffffff8216613b8787876159ab565b6001600160a01b03166c010000000000000000000000006144da565b95505050505050965096945050505050565b6000613bc28260126152a0565b613bcd90600a615ab7565b6138639084615338565b613c358282604051602401613bed929190615ac3565b60408051601f198184030181529190526020810180516001600160e01b03167fb60e72cc000000000000000000000000000000000000000000000000000000001790526139d5565b5050565b6000816001600160a01b031663313ce5676040518163ffffffff1660e01b8152600401602060405180830381865afa925050508015613c95575060408051601f3d908101601f19168201909252613c929181019061574a565b60015b613ca157506012919050565b60ff1690505b919050565b6040516001600160a01b038086166024830152808516604483015260648201849052821660848201526139cf9060a40160408051601f198184030181529190526020810180516001600160e01b03167f8da6def5000000000000000000000000000000000000000000000000000000001790526139d5565b604051630b4c774160e11b81526001600160a01b038581166004830152848116602483015262ffffff841660448301526000918291841690631698ee8290606401602060405180830381865afa158015613d82573d6000803e3d6000fd5b505050506040513d601f19601f82011682018060405250810190613da69190615229565b9050803b6000819003613dfb5760405162461bcd60e51b815260206004820152601460248201527f556e6956332070616972206e6f7420666f756e64000000000000000000000000604482015260640161153a565b6000826001600160a01b0316633850c7bd6040518163ffffffff1660e01b815260040160e060405180830381865afa158015613e3b573d6000803e3d6000fd5b505050506040513d601f19601f82011682018060405250810190613e5f9190615920565b50506001600160a01b03909416945060009350613e8192508b9150613c399050565b90506000613e8e89613c39565b9050896001600160a01b0316896001600160a01b03161015613ef55780613eb6836012615765565b613ec091906152a0565b613ecb90600a615ab7565b613ed6600285615ae5565b613ee091906152f9565b613eee90600160c01b6152f9565b9550613f3c565b80613f01836012615765565b613f0b91906152a0565b613f1690600a615ab7565b613f2490600160c01b6152f9565b613f2f600285615ae5565b613f3991906152f9565b95505b5050505050949350505050565b6139cf84848484604051602401613f639493929190615af4565b60408051601f198184030181529190526020810180516001600160e01b03167fa7a87853000000000000000000000000000000000000000000000000000000001790526139d5565b6040516001600160a01b038316602482015260448101829052612eae90849063a9059cbb60e01b90606401613980565b6000614030826040518060400160405280602081526020017f5361666545524332303a206c6f772d6c6576656c2063616c6c206661696c6564815250856001600160a01b031661451a9092919063ffffffff16565b805190915015612eae578080602001905181019061404e9190615256565b612eae5760405162461bcd60e51b815260206004820152602a60248201527f5361666545524332303a204552433230206f7065726174696f6e20646964206e60448201527f6f74207375636365656400000000000000000000000000000000000000000000606482015260840161153a565b60008060008360020b126140d7578260020b6140df565b8260020b6000035b9050620d89e881111561411e576040517f2bc80f3a00000000000000000000000000000000000000000000000000000000815260040160405180910390fd5b60008160011660000361414257700100000000000000000000000000000000614154565b6ffffcb933bd6fad37aa2d162d1a5940015b70ffffffffffffffffffffffffffffffffff1690506002821615614188576ffff97272373d413259a46990580e213a0260801c5b60048216156141a7576ffff2e50f5f656932ef12357cf3c7fdcc0260801c5b60088216156141c6576fffe5caca7e10e4e61c3624eaa0941cd00260801c5b60108216156141e5576fffcb9843d60f6159c9db58835c9266440260801c5b6020821615614204576fff973b41fa98c081472e6896dfb254c00260801c5b6040821615614223576fff2ea16466c96a3843ec78b326b528610260801c5b6080821615614242576ffe5dee046a99a2a811c461f1969c30530260801c5b610100821615614262576ffcbe86c7900a88aedcffc83b479aa3a40260801c5b610200821615614282576ff987a7253ac413176f2b074cf7815e540260801c5b6104008216156142a2576ff3392b0822b70005940c7a398e4b70f30260801c5b6108008216156142c2576fe7159475a2c29b7443b29c7fa6e889d90260801c5b6110008216156142e2576fd097f3bdfd2022b8845ad8f792aa58250260801c5b612000821615614302576fa9f746462d870fdf8a65dc1f90e061e50260801c5b614000821615614322576f70d869a156d2a1b890bb3df62baf32f70260801c5b618000821615614342576f31be135f97d08fd981231505542fcfa60260801c5b62010000821615614363576f09aa508b5b7a84e1c677de54f3e99bc90260801c5b62020000821615614383576e5d6af8dedb81196699c329225ee6040260801c5b620400008216156143a2576d2216e584f5fa1ea926041bedfe980260801c5b620800008216156143bf576b048a170391f7dc42444e8fa20260801c5b60008460020b13156143e05780600019816143dc576143dc6152e3565b0490505b6401000000008106156143f45760016143f7565b60005b60ff16602082901c0192505050919050565b6000808060001985870985870292508281108382030391505080600003614442576000841161443757600080fd5b508290049050613863565b80841161444e57600080fd5b6000848688096000868103871696879004966002600389028118808a02820302808a02820302808a02820302808a02820302808a02820302808a02909103029181900381900460010186841190950394909402919094039290920491909117919091029150509392505050565b806fffffffffffffffffffffffffffffffff81168114613ca757600080fd5b60006144e7848484614409565b9050600082806144f9576144f96152e3565b848609111561386357600019811061451057600080fd5b6001019392505050565b60606145298484600085614531565b949350505050565b6060824710156145a95760405162461bcd60e51b815260206004820152602660248201527f416464726573733a20696e73756666696369656e742062616c616e636520666f60448201527f722063616c6c0000000000000000000000000000000000000000000000000000606482015260840161153a565b6001600160a01b0385163b6146005760405162461bcd60e51b815260206004820152601d60248201527f416464726573733a2063616c6c20746f206e6f6e2d636f6e7472616374000000604482015260640161153a565b600080866001600160a01b0316858760405161461c9190615b23565b60006040518083038185875af1925050503d8060008114614659576040519150601f19603f3d011682016040523d82523d6000602084013e61465e565b606091505b509150915061466e828286614679565b979650505050505050565b60608315614688575081613863565b8251156146985782518084602001fd5b8160405162461bcd60e51b815260040161153a91906155c8565b634e487b7160e01b600052604160045260246000fd5b6040516080810167ffffffffffffffff811182821017156146eb576146eb6146b2565b60405290565b60405160c0810167ffffffffffffffff811182821017156146eb576146eb6146b2565b60405160e0810167ffffffffffffffff811182821017156146eb576146eb6146b2565b604051610140810167ffffffffffffffff811182821017156146eb576146eb6146b2565b604051610180810167ffffffffffffffff811182821017156146eb576146eb6146b2565b604051610120810167ffffffffffffffff811182821017156146eb576146eb6146b2565b604051601f8201601f1916810167ffffffffffffffff811182821017156147cc576147cc6146b2565b604052919050565b6001600160a01b0381168114612e3a57600080fd5b8035613ca7816147d4565b60006080828403121561480657600080fd5b61480e6146c8565b823581526020830135614820816147d4565b602082015260408381013590820152606083013561483d816147d4565b60608201529392505050565b60006080828403121561485b57600080fd5b6148636146c8565b823561486e816147d4565b808252506020830135602082015260408301356040820152606083013561483d816147d4565b600067ffffffffffffffff8211156148ae576148ae6146b2565b5060051b60200190565b600082601f8301126148c957600080fd5b813560206148de6148d983614894565b6147a3565b82815260059290921b840181019181810190868411156148fd57600080fd5b8286015b84811015614921578035614914816147d4565b8352918301918301614901565b509695505050505050565b803562ffffff81168114613ca757600080fd5b600082601f83011261495057600080fd5b813560206149606148d983614894565b82815260059290921b8401810191818101908684111561497f57600080fd5b8286015b84811015614921576149948161492c565b8352918301918301614983565b600082601f8301126149b257600080fd5b813560206149c26148d983614894565b82815260059290921b840181019181810190868411156149e157600080fd5b8286015b8481101561492157803567ffffffffffffffff80821115614a065760008081fd5b908801906080828b03601f1901811315614a205760008081fd5b614a286146c8565b87840135614a35816147d4565b815260408481013560028110614a4b5760008081fd5b828a015260608581013585811115614a635760008081fd5b614a718f8c838a01016148b8565b8484015250928501359284841115614a8b57600091508182fd5b614a998e8b8689010161493f565b908301525086525050509183019183016149e5565b8060020b8114612e3a57600080fd5b8035613ca781614aae565b600060208284031215614ada57600080fd5b813567ffffffffffffffff80821115614af257600080fd5b90830190818503610120811215614b0857600080fd5b614b106146c8565b83358152602084013583811115614b2657600080fd5b614b32888287016149a1565b602083015250604084013583811115614b4a57600080fd5b614b56888287016149a1565b60408301525060c0605f1983011215614b6e57600080fd5b614b766146f1565b925060608401359150614b88826147d4565b90825260808301359060038210614b9e57600080fd5b816020840152614bb060a0850161492c565b604084015260c08401359150614bc582614aae565b81606084015260e08401359150614bdb82614aae565b816080840152614bee61010085016147e9565b60a0840152606081019290925250949350505050565b600080600060608486031215614c1957600080fd5b833592506020840135614c2b816147d4565b91506040840135614c3b816147d4565b809150509250925092565b60008060408385031215614c5957600080fd5b823591506020830135614c6b816147d4565b809150509250929050565b803560018110613ca757600080fd5b600067ffffffffffffffff821115614c9f57614c9f6146b2565b50601f01601f191660200190565b600082601f830112614cbe57600080fd5b81356020614cce6148d983614894565b82815260059290921b84018101918181019086841115614ced57600080fd5b8286015b8481101561492157803567ffffffffffffffff811115614d115760008081fd5b8701603f81018913614d235760008081fd5b848101356040614d356148d983614c85565b8281528b82848601011115614d4a5760008081fd5b8282850189830137600092810188019290925250845250918301918301614cf1565b600060208284031215614d7e57600080fd5b813567ffffffffffffffff80821115614d9657600080fd5b9083019060e08286031215614daa57600080fd5b614db2614714565b614dbb836147e9565b815260208301356020820152614dd360408401614c76565b6040820152614de4606084016147e9565b6060820152608083013582811115614dfb57600080fd5b614e0787828601614cad565b608083015250614e1960a084016147e9565b60a082015260c083013560c082015280935050505092915050565b600060208284031215614e4657600080fd5b5035919050565b600060e08284031215614e5f57600080fd5b60405160e0810181811067ffffffffffffffff82111715614e8257614e826146b2565b6040528235614e90816147d4565b81526020830135614ea0816147d4565b8060208301525060408301356040820152606083013560608201526080830135608082015260a0830135614ed3816147d4565b60a082015260c0928301359281019290925250919050565b60008060208385031215614efe57600080fd5b823567ffffffffffffffff80821115614f1657600080fd5b818501915085601f830112614f2a57600080fd5b813581811115614f3957600080fd5b8660208260051b8501011115614f4e57600080fd5b60209290920196919550909350505050565b60005b83811015614f7b578181015183820152602001614f63565b838111156139cf5750506000910152565b60008151808452614fa4816020860160208601614f60565b601f01601f19169290920160200192915050565b600081518084526020808501808196508360051b8101915082860160005b85811015615000578284038952614fee848351614f8c565b98850198935090840190600101614fd6565b5091979650505050505050565b6020815260006138636020830184614fb8565b6000610140828403121561503357600080fd5b61503b614737565b615044836147e9565b8152615052602084016147e9565b6020820152615063604084016147e9565b6040820152615074606084016147e9565b60608201526080830135608082015260a083013560a082015260c083013560c082015260e083013560e08201526101006150af8185016147e9565b90820152610120928301359281019290925250919050565b600061018082840312156150da57600080fd5b6150e261475b565b6150eb836147e9565b81526150f9602084016147e9565b602082015261510a604084016147e9565b604082015261511b6060840161492c565b606082015261512c60808401614abd565b608082015261513d60a08401614abd565b60a082015260c083013560c082015260e083013560e082015261010080840135818301525061012080840135818301525061014061517c8185016147e9565b90820152610160928301359281019290925250919050565b600061012082840312156151a757600080fd5b6151af61477f565b6151b8836147e9565b81526151c6602084016147e9565b60208201526151d7604084016147e9565b6040820152606083013560608201526080830135608082015260a083013560a082015260c083013560c082015261521060e084016147e9565b60e0820152610100928301359281019290925250919050565b60006020828403121561523b57600080fd5b8151613863816147d4565b80518015158114613ca757600080fd5b60006020828403121561526857600080fd5b61386382615246565b60006020828403121561528357600080fd5b5051919050565b634e487b7160e01b600052601160045260246000fd5b6000828210156152b2576152b261528a565b500390565b634e487b7160e01b600052603260045260246000fd5b634e487b7160e01b600052602160045260246000fd5b634e487b7160e01b600052601260045260246000fd5b60008261531657634e487b7160e01b600052601260045260246000fd5b500490565b60006020828403121561532d57600080fd5b815161386381614aae565b60008160001904831182151516156153525761535261528a565b500290565b60006153656148d984614c85565b905082815283838301111561537957600080fd5b613863836020830184614f60565b6000602080838503121561539a57600080fd5b825167ffffffffffffffff808211156153b257600080fd5b818501915085601f8301126153c657600080fd5b81516153d46148d982614894565b81815260059190911b830184019084810190888311156153f357600080fd5b8585015b838110156154405780518581111561540f5760008081fd5b8601603f81018b136154215760008081fd5b6154328b8983015160408401615357565b8452509186019186016153f7565b5098975050505050505050565b602081526001600160a01b03825116602082015260208201516040820152600060408301516001811061549057634e487b7160e01b600052602160045260246000fd5b8060608401525060608301516154b160808401826001600160a01b03169052565b50608083015160e060a08401526154cc610100840182614fb8565b905060a08401516154e860c08501826001600160a01b03169052565b5060c084015160e08401528091505092915050565b6000806040838503121561551057600080fd5b505080516020909101519092909150565b6000808335601e1984360301811261553857600080fd5b83018035915067ffffffffffffffff82111561555357600080fd5b60200191503681900382131561556857600080fd5b9250929050565b8183823760009101908152919050565b60006020828403121561559157600080fd5b815167ffffffffffffffff8111156155a857600080fd5b8201601f810184136155b957600080fd5b61452984825160208401615357565b6020815260006138636020830184614f8c565b6000600182016155ed576155ed61528a565b5060010190565b60008060006060848603121561560957600080fd5b8351925060208401519150604084015190509250925092565b81516001600160a01b031681526101608101602083015161564e60208401826001600160a01b03169052565b506040830151615665604084018262ffffff169052565b50606083015161567a606084018260020b9052565b50608083015161568f608084018260020b9052565b5060a083015160a083015260c083015160c083015260e083015160e0830152610100808401518184015250610120808401516156d5828501826001600160a01b03169052565b505061014092830151919092015290565b600080600080608085870312156156fc57600080fd5b8451935060208501516fffffffffffffffffffffffffffffffff8116811461572357600080fd5b6040860151606090960151949790965092505050565b805160ff81168114613ca757600080fd5b60006020828403121561575c57600080fd5b61386382615739565b600082198211156157785761577861528a565b500190565b6000602080838503121561579057600080fd5b825167ffffffffffffffff8111156157a757600080fd5b8301601f810185136157b857600080fd5b80516157c66148d982614894565b81815260059190911b820183019083810190878311156157e557600080fd5b928401925b8284101561466e5783516157fd816147d4565b825292840192908401906157ea565b60608152600061581f6060830186614f8c565b60208301949094525060400152919050565b6000604082018483526020604081850152818551808452606086019150828701935060005b8181101561587b5784516001600160a01b031683529383019391830191600101615856565b5090979650505050505050565b6000602080838503121561589b57600080fd5b825167ffffffffffffffff8111156158b257600080fd5b8301601f810185136158c357600080fd5b80516158d16148d982614894565b81815260059190911b820183019083810190878311156158f057600080fd5b928401925b8284101561466e578351825292840192908401906158f5565b805161ffff81168114613ca757600080fd5b600080600080600080600060e0888a03121561593b57600080fd5b8751615946816147d4565b602089015190975061595781614aae565b95506159656040890161590e565b94506159736060890161590e565b93506159816080890161590e565b925061598f60a08901615739565b915061599d60c08901615246565b905092959891949750929550565b60006001600160a01b03838116908316818110156159cb576159cb61528a565b039392505050565b600181815b80851115615a0e5781600019048211156159f4576159f461528a565b80851615615a0157918102915b93841c93908002906159d8565b509250929050565b600082615a2557506001612dd8565b81615a3257506000612dd8565b8160018114615a485760028114615a5257615a6e565b6001915050612dd8565b60ff841115615a6357615a6361528a565b50506001821b612dd8565b5060208310610133831016604e8410600b8410161715615a91575081810a612dd8565b615a9b83836159d3565b8060001904821115615aaf57615aaf61528a565b029392505050565b60006138638383615a16565b604081526000615ad66040830185614f8c565b90508260208301529392505050565b600061386360ff841683615a16565b608081526000615b076080830187614f8c565b6020830195909552506040810192909252606090910152919050565b60008251615b35818460208701614f60565b919091019291505056fea264697066735822122058023f6c70ca6ec1f4ba0f5bcbf59f1e8c148867642120de629963cf647edc8264736f6c634300080f0033",
  "linkReferences": {},
  "deployedLinkReferences": {}
}