{
  "_format": "hh-sol-artifact-1",
  "contractName": "ApeSwapZapFullV5",
  "sourceName": "contracts/ApeSwapZapFullV5.sol",
  "abi": [
    {
      "inputs": [
        {
          "internalType": "contract IWETH",
          "name": "wNative",
          "type": "address"
        },
        {
          "internalType": "contract ITreasury",
          "name": "goldenBananaTreasury",
          "type": "address"
        },
        {
          "internalType": "address",
          "name": "_zapAnalyzer",
          "type": "address"
        }
      ],
      "stateMutability": "nonpayable",
      "type": "constructor"
    },
    {
      "anonymous": false,
      "inputs": [
        {
          "components": [
            {
              "internalType": "address",
              "name": "lpRouter",
              "type": "address"
            },
            {
              "internalType": "address",
              "name": "token0",
              "type": "address"
            },
            {
              "internalType": "address",
              "name": "token1",
              "type": "address"
            },
            {
              "internalType": "uint24",
              "name": "fee",
              "type": "uint24"
            },
            {
              "internalType": "uint256",
              "name": "amount0Desired",
              "type": "uint256"
            },
            {
              "internalType": "uint256",
              "name": "amount1Desired",
              "type": "uint256"
            },
            {
              "internalType": "uint256",
              "name": "amount0Min",
              "type": "uint256"
            },
            {
              "internalType": "uint256",
              "name": "amount1Min",
              "type": "uint256"
            },
            {
              "internalType": "address",
              "name": "recipient",
              "type": "address"
            },
            {
              "internalType": "uint256",
              "name": "deadline",
              "type": "uint256"
            },
            {
              "internalType": "address",
              "name": "arrakisFactory",
              "type": "address"
            }
          ],
          "indexed": false,
          "internalType": "struct ZapLiquidity.AddLiquidityArrakisParams",
          "name": "params",
          "type": "tuple"
        }
      ],
      "name": "AddLiquidityArrakis",
      "type": "event"
    },
    {
      "anonymous": false,
      "inputs": [
        {
          "components": [
            {
              "internalType": "address",
              "name": "hypervisor",
              "type": "address"
            },
            {
              "internalType": "address",
              "name": "token0",
              "type": "address"
            },
            {
              "internalType": "address",
              "name": "token1",
              "type": "address"
            },
            {
              "internalType": "uint256",
              "name": "amount0Desired",
              "type": "uint256"
            },
            {
              "internalType": "uint256",
              "name": "amount1Desired",
              "type": "uint256"
            },
            {
              "internalType": "address",
              "name": "recipient",
              "type": "address"
            },
            {
              "internalType": "uint256[4]",
              "name": "inMin",
              "type": "uint256[4]"
            }
          ],
          "indexed": false,
          "internalType": "struct ZapLiquidity.AddLiquidityGammaParams",
          "name": "params",
          "type": "tuple"
        }
      ],
      "name": "AddLiquidityGamma",
      "type": "event"
    },
    {
      "anonymous": false,
      "inputs": [
        {
          "components": [
            {
              "internalType": "address",
              "name": "lpRouter",
              "type": "address"
            },
            {
              "internalType": "address",
              "name": "token0",
              "type": "address"
            },
            {
              "internalType": "address",
              "name": "token1",
              "type": "address"
            },
            {
              "internalType": "uint256",
              "name": "amount0Desired",
              "type": "uint256"
            },
            {
              "internalType": "uint256",
              "name": "amount1Desired",
              "type": "uint256"
            },
            {
              "internalType": "uint256",
              "name": "amount0Min",
              "type": "uint256"
            },
            {
              "internalType": "uint256",
              "name": "amount1Min",
              "type": "uint256"
            },
            {
              "internalType": "address",
              "name": "recipient",
              "type": "address"
            },
            {
              "internalType": "uint256",
              "name": "deadline",
              "type": "uint256"
            }
          ],
          "indexed": false,
          "internalType": "struct ZapLiquidity.AddLiquidityV2Params",
          "name": "params",
          "type": "tuple"
        }
      ],
      "name": "AddLiquidityV2",
      "type": "event"
    },
    {
      "anonymous": false,
      "inputs": [
        {
          "components": [
            {
              "internalType": "address",
              "name": "lpRouter",
              "type": "address"
            },
            {
              "internalType": "address",
              "name": "token0",
              "type": "address"
            },
            {
              "internalType": "address",
              "name": "token1",
              "type": "address"
            },
            {
              "internalType": "uint24",
              "name": "fee",
              "type": "uint24"
            },
            {
              "internalType": "int24",
              "name": "tickLower",
              "type": "int24"
            },
            {
              "internalType": "int24",
              "name": "tickUpper",
              "type": "int24"
            },
            {
              "internalType": "uint256",
              "name": "amount0Desired",
              "type": "uint256"
            },
            {
              "internalType": "uint256",
              "name": "amount1Desired",
              "type": "uint256"
            },
            {
              "internalType": "uint256",
              "name": "amount0Min",
              "type": "uint256"
            },
            {
              "internalType": "uint256",
              "name": "amount1Min",
              "type": "uint256"
            },
            {
              "internalType": "address",
              "name": "recipient",
              "type": "address"
            },
            {
              "internalType": "uint256",
              "name": "deadline",
              "type": "uint256"
            }
          ],
          "indexed": false,
          "internalType": "struct ZapLiquidity.AddLiquidityV3Params",
          "name": "params",
          "type": "tuple"
        }
      ],
      "name": "AddLiquidityV3",
      "type": "event"
    },
    {
      "anonymous": false,
      "inputs": [
        {
          "components": [
            {
              "internalType": "address",
              "name": "hypervisor",
              "type": "address"
            },
            {
              "internalType": "uint256",
              "name": "shares",
              "type": "uint256"
            },
            {
              "internalType": "address",
              "name": "recipient",
              "type": "address"
            },
            {
              "internalType": "uint256[4]",
              "name": "minAmounts",
              "type": "uint256[4]"
            }
          ],
          "indexed": false,
          "internalType": "struct ZapLiquidity.RemoveLiquidityGammaParams",
          "name": "params",
          "type": "tuple"
        }
      ],
      "name": "RemoveLiquidityGamma",
      "type": "event"
    },
    {
      "anonymous": false,
      "inputs": [
        {
          "components": [
            {
              "internalType": "contract IApeRouter02",
              "name": "router",
              "type": "address"
            },
            {
              "internalType": "contract IApePair",
              "name": "lp",
              "type": "address"
            },
            {
              "internalType": "uint256",
              "name": "amount",
              "type": "uint256"
            },
            {
              "internalType": "uint256",
              "name": "amountAMinRemove",
              "type": "uint256"
            },
            {
              "internalType": "uint256",
              "name": "amountBMinRemove",
              "type": "uint256"
            },
            {
              "internalType": "address",
              "name": "recipient",
              "type": "address"
            },
            {
              "internalType": "uint256",
              "name": "deadline",
              "type": "uint256"
            }
          ],
          "indexed": false,
          "internalType": "struct ZapLiquidity.RemoveLiquidityV2Params",
          "name": "params",
          "type": "tuple"
        }
      ],
      "name": "RemoveLiquidityV2",
      "type": "event"
    },
    {
      "anonymous": false,
      "inputs": [
        {
          "components": [
            {
              "internalType": "contract IERC20",
              "name": "inputToken",
              "type": "address"
            },
            {
              "internalType": "uint256",
              "name": "inputAmount",
              "type": "uint256"
            },
            {
              "internalType": "enum ZapSwap.SwapType2",
              "name": "swapType",
              "type": "uint8"
            },
            {
              "internalType": "address",
              "name": "caller",
              "type": "address"
            },
            {
              "internalType": "bytes[]",
              "name": "swapData",
              "type": "bytes[]"
            },
            {
              "internalType": "address",
              "name": "to",
              "type": "address"
            },
            {
              "internalType": "uint256",
              "name": "deadline",
              "type": "uint256"
            }
          ],
          "indexed": false,
          "internalType": "struct ZapSwap.SwapParams",
          "name": "params",
          "type": "tuple"
        }
      ],
      "name": "Swap",
      "type": "event"
    },
    {
      "anonymous": false,
      "inputs": [
        {
          "indexed": false,
          "internalType": "uint256",
          "name": "inputAmount",
          "type": "uint256"
        },
        {
          "indexed": false,
          "internalType": "contract ICErc20",
          "name": "market",
          "type": "address"
        },
        {
          "indexed": false,
          "internalType": "uint256",
          "name": "outputAmount",
          "type": "uint256"
        }
      ],
      "name": "ZapLending",
      "type": "event"
    },
    {
      "anonymous": false,
      "inputs": [
        {
          "indexed": false,
          "internalType": "uint256",
          "name": "inputAmount",
          "type": "uint256"
        },
        {
          "indexed": false,
          "internalType": "contract ICErc20",
          "name": "market",
          "type": "address"
        }
      ],
      "name": "ZapLendingMarket",
      "type": "event"
    },
    {
      "anonymous": false,
      "inputs": [
        {
          "components": [
            {
              "internalType": "uint256",
              "name": "inputAmount",
              "type": "uint256"
            },
            {
              "internalType": "contract IMiniApeV2",
              "name": "miniApe",
              "type": "address"
            },
            {
              "internalType": "uint256",
              "name": "pid",
              "type": "uint256"
            },
            {
              "internalType": "address",
              "name": "recipient",
              "type": "address"
            }
          ],
          "indexed": false,
          "internalType": "struct ApeSwapZapMiniApeV2.zapMiniApeV2Params",
          "name": "params",
          "type": "tuple"
        }
      ],
      "name": "ZapMiniApeV2",
      "type": "event"
    },
    {
      "anonymous": false,
      "inputs": [
        {
          "components": [
            {
              "internalType": "uint256",
              "name": "inputAmount",
              "type": "uint256"
            },
            {
              "internalType": "contract IBEP20RewardApeV5",
              "name": "pool",
              "type": "address"
            },
            {
              "internalType": "address",
              "name": "recipient",
              "type": "address"
            }
          ],
          "indexed": false,
          "internalType": "struct ApeSwapZapPools.ZapPoolParams",
          "name": "params",
          "type": "tuple"
        }
      ],
      "name": "ZapPool",
      "type": "event"
    },
    {
      "anonymous": false,
      "inputs": [
        {
          "components": [
            {
              "internalType": "contract ICustomBill",
              "name": "bill",
              "type": "address"
            },
            {
              "internalType": "uint256",
              "name": "inputAmount",
              "type": "uint256"
            },
            {
              "internalType": "uint256",
              "name": "maxPrice",
              "type": "uint256"
            },
            {
              "internalType": "address",
              "name": "recipient",
              "type": "address"
            }
          ],
          "indexed": false,
          "internalType": "struct ApeSwapZapTBills.zapTBillParams",
          "name": "params",
          "type": "tuple"
        }
      ],
      "name": "ZapTBill",
      "type": "event"
    },
    {
      "anonymous": false,
      "inputs": [
        {
          "indexed": false,
          "internalType": "contract IERC20",
          "name": "inputToken",
          "type": "address"
        },
        {
          "indexed": false,
          "internalType": "uint256",
          "name": "inputAmount",
          "type": "uint256"
        },
        {
          "indexed": false,
          "internalType": "uint256",
          "name": "vaultPid",
          "type": "uint256"
        }
      ],
      "name": "ZapVault",
      "type": "event"
    },
    {
      "inputs": [],
      "name": "BANANA",
      "outputs": [
        {
          "internalType": "contract IERC20",
          "name": "",
          "type": "address"
        }
      ],
      "stateMutability": "view",
      "type": "function"
    },
    {
      "inputs": [],
      "name": "GNANA",
      "outputs": [
        {
          "internalType": "contract IERC20",
          "name": "",
          "type": "address"
        }
      ],
      "stateMutability": "view",
      "type": "function"
    },
    {
      "inputs": [],
      "name": "GNANA_TREASURY",
      "outputs": [
        {
          "internalType": "contract ITreasury",
          "name": "",
          "type": "address"
        }
      ],
      "stateMutability": "view",
      "type": "function"
    },
    {
      "inputs": [],
      "name": "LENDING_NATIVE_UNDERLYING",
      "outputs": [
        {
          "internalType": "address",
          "name": "",
          "type": "address"
        }
      ],
      "stateMutability": "view",
      "type": "function"
    },
    {
      "inputs": [],
      "name": "WNative",
      "outputs": [
        {
          "internalType": "contract IWETH",
          "name": "",
          "type": "address"
        }
      ],
      "stateMutability": "view",
      "type": "function"
    },
    {
      "inputs": [
        {
          "components": [
            {
              "internalType": "address",
              "name": "lpRouter",
              "type": "address"
            },
            {
              "internalType": "address",
              "name": "token0",
              "type": "address"
            },
            {
              "internalType": "address",
              "name": "token1",
              "type": "address"
            },
            {
              "internalType": "uint24",
              "name": "fee",
              "type": "uint24"
            },
            {
              "internalType": "uint256",
              "name": "amount0Desired",
              "type": "uint256"
            },
            {
              "internalType": "uint256",
              "name": "amount1Desired",
              "type": "uint256"
            },
            {
              "internalType": "uint256",
              "name": "amount0Min",
              "type": "uint256"
            },
            {
              "internalType": "uint256",
              "name": "amount1Min",
              "type": "uint256"
            },
            {
              "internalType": "address",
              "name": "recipient",
              "type": "address"
            },
            {
              "internalType": "uint256",
              "name": "deadline",
              "type": "uint256"
            },
            {
              "internalType": "address",
              "name": "arrakisFactory",
              "type": "address"
            }
          ],
          "internalType": "struct ZapLiquidity.AddLiquidityArrakisParams",
          "name": "params",
          "type": "tuple"
        }
      ],
      "name": "addLiquidityArrakis",
      "outputs": [
        {
          "internalType": "uint256",
          "name": "amount0Lp",
          "type": "uint256"
        },
        {
          "internalType": "uint256",
          "name": "amount1Lp",
          "type": "uint256"
        }
      ],
      "stateMutability": "payable",
      "type": "function"
    },
    {
      "inputs": [
        {
          "components": [
            {
              "internalType": "address",
              "name": "hypervisor",
              "type": "address"
            },
            {
              "internalType": "address",
              "name": "token0",
              "type": "address"
            },
            {
              "internalType": "address",
              "name": "token1",
              "type": "address"
            },
            {
              "internalType": "uint256",
              "name": "amount0Desired",
              "type": "uint256"
            },
            {
              "internalType": "uint256",
              "name": "amount1Desired",
              "type": "uint256"
            },
            {
              "internalType": "address",
              "name": "recipient",
              "type": "address"
            },
            {
              "internalType": "uint256[4]",
              "name": "inMin",
              "type": "uint256[4]"
            }
          ],
          "internalType": "struct ZapLiquidity.AddLiquidityGammaParams",
          "name": "params",
          "type": "tuple"
        }
      ],
      "name": "addLiquidityGamma",
      "outputs": [
        {
          "internalType": "uint256",
          "name": "shares",
          "type": "uint256"
        }
      ],
      "stateMutability": "payable",
      "type": "function"
    },
    {
      "inputs": [
        {
          "components": [
            {
              "internalType": "address",
              "name": "lpRouter",
              "type": "address"
            },
            {
              "internalType": "address",
              "name": "token0",
              "type": "address"
            },
            {
              "internalType": "address",
              "name": "token1",
              "type": "address"
            },
            {
              "internalType": "uint256",
              "name": "amount0Desired",
              "type": "uint256"
            },
            {
              "internalType": "uint256",
              "name": "amount1Desired",
              "type": "uint256"
            },
            {
              "internalType": "uint256",
              "name": "amount0Min",
              "type": "uint256"
            },
            {
              "internalType": "uint256",
              "name": "amount1Min",
              "type": "uint256"
            },
            {
              "internalType": "address",
              "name": "recipient",
              "type": "address"
            },
            {
              "internalType": "uint256",
              "name": "deadline",
              "type": "uint256"
            }
          ],
          "internalType": "struct ZapLiquidity.AddLiquidityV2Params",
          "name": "params",
          "type": "tuple"
        }
      ],
      "name": "addLiquidityV2",
      "outputs": [
        {
          "internalType": "uint256",
          "name": "amount0Lp",
          "type": "uint256"
        },
        {
          "internalType": "uint256",
          "name": "amount1Lp",
          "type": "uint256"
        }
      ],
      "stateMutability": "payable",
      "type": "function"
    },
    {
      "inputs": [
        {
          "components": [
            {
              "internalType": "address",
              "name": "lpRouter",
              "type": "address"
            },
            {
              "internalType": "address",
              "name": "token0",
              "type": "address"
            },
            {
              "internalType": "address",
              "name": "token1",
              "type": "address"
            },
            {
              "internalType": "uint24",
              "name": "fee",
              "type": "uint24"
            },
            {
              "internalType": "int24",
              "name": "tickLower",
              "type": "int24"
            },
            {
              "internalType": "int24",
              "name": "tickUpper",
              "type": "int24"
            },
            {
              "internalType": "uint256",
              "name": "amount0Desired",
              "type": "uint256"
            },
            {
              "internalType": "uint256",
              "name": "amount1Desired",
              "type": "uint256"
            },
            {
              "internalType": "uint256",
              "name": "amount0Min",
              "type": "uint256"
            },
            {
              "internalType": "uint256",
              "name": "amount1Min",
              "type": "uint256"
            },
            {
              "internalType": "address",
              "name": "recipient",
              "type": "address"
            },
            {
              "internalType": "uint256",
              "name": "deadline",
              "type": "uint256"
            }
          ],
          "internalType": "struct ZapLiquidity.AddLiquidityV3Params",
          "name": "params",
          "type": "tuple"
        }
      ],
      "name": "addLiquidityV3",
      "outputs": [
        {
          "internalType": "uint256",
          "name": "tokenId",
          "type": "uint256"
        },
        {
          "internalType": "uint128",
          "name": "liquidity",
          "type": "uint128"
        },
        {
          "internalType": "uint256",
          "name": "amount0",
          "type": "uint256"
        },
        {
          "internalType": "uint256",
          "name": "amount1",
          "type": "uint256"
        }
      ],
      "stateMutability": "payable",
      "type": "function"
    },
    {
      "inputs": [
        {
          "components": [
            {
              "internalType": "uint256",
              "name": "inputAmount",
              "type": "uint256"
            },
            {
              "components": [
                {
                  "internalType": "address",
                  "name": "swapRouter",
                  "type": "address"
                },
                {
                  "internalType": "enum ZapAnalyzer.SwapType",
                  "name": "swapType",
                  "type": "uint8"
                },
                {
                  "internalType": "address[]",
                  "name": "path",
                  "type": "address[]"
                },
                {
                  "internalType": "uint24[]",
                  "name": "uniV3PoolFees",
                  "type": "uint24[]"
                }
              ],
              "internalType": "struct ZapAnalyzer.SwapPath[]",
              "name": "path0",
              "type": "tuple[]"
            },
            {
              "components": [
                {
                  "internalType": "address",
                  "name": "swapRouter",
                  "type": "address"
                },
                {
                  "internalType": "enum ZapAnalyzer.SwapType",
                  "name": "swapType",
                  "type": "uint8"
                },
                {
                  "internalType": "address[]",
                  "name": "path",
                  "type": "address[]"
                },
                {
                  "internalType": "uint24[]",
                  "name": "uniV3PoolFees",
                  "type": "uint24[]"
                }
              ],
              "internalType": "struct ZapAnalyzer.SwapPath[]",
              "name": "path1",
              "type": "tuple[]"
            },
            {
              "components": [
                {
                  "internalType": "address",
                  "name": "lpRouter",
                  "type": "address"
                },
                {
                  "internalType": "enum ZapAnalyzer.LiquidityType",
                  "name": "liquidityType",
                  "type": "uint8"
                },
                {
                  "internalType": "uint24",
                  "name": "uniV3PoolLPFee",
                  "type": "uint24"
                },
                {
                  "internalType": "int24",
                  "name": "tickLower",
                  "type": "int24"
                },
                {
                  "internalType": "int24",
                  "name": "tickUpper",
                  "type": "int24"
                },
                {
                  "internalType": "address",
                  "name": "arrakisFactory",
                  "type": "address"
                }
              ],
              "internalType": "struct ZapAnalyzer.LiquidityPath",
              "name": "liquidityPath",
              "type": "tuple"
            }
          ],
          "internalType": "struct ZapAnalyzer.SwapReturnsParams",
          "name": "params",
          "type": "tuple"
        }
      ],
      "name": "estimateSwapReturns",
      "outputs": [
        {
          "components": [
            {
              "internalType": "uint256",
              "name": "swapToToken0",
              "type": "uint256"
            },
            {
              "internalType": "uint256",
              "name": "swapToToken1",
              "type": "uint256"
            },
            {
              "internalType": "uint256",
              "name": "minAmountSwap0",
              "type": "uint256"
            },
            {
              "internalType": "uint256",
              "name": "minAmountSwap1",
              "type": "uint256"
            }
          ],
          "internalType": "struct ZapAnalyzer.SwapReturns",
          "name": "returnValues",
          "type": "tuple"
        }
      ],
      "stateMutability": "view",
      "type": "function"
    },
    {
      "inputs": [
        {
          "internalType": "bytes[]",
          "name": "data",
          "type": "bytes[]"
        }
      ],
      "name": "multicall",
      "outputs": [
        {
          "internalType": "bytes[]",
          "name": "results",
          "type": "bytes[]"
        }
      ],
      "stateMutability": "payable",
      "type": "function"
    },
    {
      "inputs": [
        {
          "components": [
            {
              "internalType": "address",
              "name": "hypervisor",
              "type": "address"
            },
            {
              "internalType": "uint256",
              "name": "shares",
              "type": "uint256"
            },
            {
              "internalType": "address",
              "name": "recipient",
              "type": "address"
            },
            {
              "internalType": "uint256[4]",
              "name": "minAmounts",
              "type": "uint256[4]"
            }
          ],
          "internalType": "struct ZapLiquidity.RemoveLiquidityGammaParams",
          "name": "params",
          "type": "tuple"
        }
      ],
      "name": "removeLiquidityGamma",
      "outputs": [
        {
          "internalType": "uint256",
          "name": "amount0",
          "type": "uint256"
        },
        {
          "internalType": "uint256",
          "name": "amount1",
          "type": "uint256"
        }
      ],
      "stateMutability": "payable",
      "type": "function"
    },
    {
      "inputs": [
        {
          "components": [
            {
              "internalType": "contract IApeRouter02",
              "name": "router",
              "type": "address"
            },
            {
              "internalType": "contract IApePair",
              "name": "lp",
              "type": "address"
            },
            {
              "internalType": "uint256",
              "name": "amount",
              "type": "uint256"
            },
            {
              "internalType": "uint256",
              "name": "amountAMinRemove",
              "type": "uint256"
            },
            {
              "internalType": "uint256",
              "name": "amountBMinRemove",
              "type": "uint256"
            },
            {
              "internalType": "address",
              "name": "recipient",
              "type": "address"
            },
            {
              "internalType": "uint256",
              "name": "deadline",
              "type": "uint256"
            }
          ],
          "internalType": "struct ZapLiquidity.RemoveLiquidityV2Params",
          "name": "params",
          "type": "tuple"
        }
      ],
      "name": "removeLiquidityV2",
      "outputs": [
        {
          "internalType": "uint256",
          "name": "amountAReceived",
          "type": "uint256"
        },
        {
          "internalType": "uint256",
          "name": "amountBReceived",
          "type": "uint256"
        }
      ],
      "stateMutability": "payable",
      "type": "function"
    },
    {
      "inputs": [
        {
          "components": [
            {
              "internalType": "contract IERC20",
              "name": "inputToken",
              "type": "address"
            },
            {
              "internalType": "uint256",
              "name": "inputAmount",
              "type": "uint256"
            },
            {
              "internalType": "enum ZapSwap.SwapType2",
              "name": "swapType",
              "type": "uint8"
            },
            {
              "internalType": "address",
              "name": "caller",
              "type": "address"
            },
            {
              "internalType": "bytes[]",
              "name": "swapData",
              "type": "bytes[]"
            },
            {
              "internalType": "address",
              "name": "to",
              "type": "address"
            },
            {
              "internalType": "uint256",
              "name": "deadline",
              "type": "uint256"
            }
          ],
          "internalType": "struct ZapSwap.SwapParams",
          "name": "params",
          "type": "tuple"
        }
      ],
      "name": "swap",
      "outputs": [],
      "stateMutability": "payable",
      "type": "function"
    },
    {
      "inputs": [
        {
          "internalType": "uint256",
          "name": "amount",
          "type": "uint256"
        },
        {
          "internalType": "address",
          "name": "recipient",
          "type": "address"
        }
      ],
      "name": "unwrapNative",
      "outputs": [],
      "stateMutability": "nonpayable",
      "type": "function"
    },
    {
      "inputs": [
        {
          "internalType": "uint256",
          "name": "amount",
          "type": "uint256"
        },
        {
          "internalType": "address",
          "name": "recipient",
          "type": "address"
        }
      ],
      "name": "wrapNative",
      "outputs": [],
      "stateMutability": "payable",
      "type": "function"
    },
    {
      "inputs": [],
      "name": "zapAnalyzer",
      "outputs": [
        {
          "internalType": "contract ZapAnalyzer",
          "name": "",
          "type": "address"
        }
      ],
      "stateMutability": "view",
      "type": "function"
    },
    {
      "inputs": [
        {
          "internalType": "uint256",
          "name": "inputAmount",
          "type": "uint256"
        },
        {
          "internalType": "contract ICErc20",
          "name": "market",
          "type": "address"
        },
        {
          "internalType": "address",
          "name": "recipient",
          "type": "address"
        }
      ],
      "name": "zapLendingMarket",
      "outputs": [],
      "stateMutability": "payable",
      "type": "function"
    },
    {
      "inputs": [
        {
          "components": [
            {
              "internalType": "uint256",
              "name": "inputAmount",
              "type": "uint256"
            },
            {
              "internalType": "contract IMiniApeV2",
              "name": "miniApe",
              "type": "address"
            },
            {
              "internalType": "uint256",
              "name": "pid",
              "type": "uint256"
            },
            {
              "internalType": "address",
              "name": "recipient",
              "type": "address"
            }
          ],
          "internalType": "struct ApeSwapZapMiniApeV2.zapMiniApeV2Params",
          "name": "params",
          "type": "tuple"
        }
      ],
      "name": "zapMiniApeV2",
      "outputs": [],
      "stateMutability": "payable",
      "type": "function"
    },
    {
      "inputs": [
        {
          "components": [
            {
              "internalType": "uint256",
              "name": "inputAmount",
              "type": "uint256"
            },
            {
              "internalType": "contract IBEP20RewardApeV5",
              "name": "pool",
              "type": "address"
            },
            {
              "internalType": "address",
              "name": "recipient",
              "type": "address"
            }
          ],
          "internalType": "struct ApeSwapZapPools.ZapPoolParams",
          "name": "params",
          "type": "tuple"
        }
      ],
      "name": "zapPool",
      "outputs": [],
      "stateMutability": "payable",
      "type": "function"
    },
    {
      "inputs": [
        {
          "components": [
            {
              "internalType": "contract ICustomBill",
              "name": "bill",
              "type": "address"
            },
            {
              "internalType": "uint256",
              "name": "inputAmount",
              "type": "uint256"
            },
            {
              "internalType": "uint256",
              "name": "maxPrice",
              "type": "uint256"
            },
            {
              "internalType": "address",
              "name": "recipient",
              "type": "address"
            }
          ],
          "internalType": "struct ApeSwapZapTBills.zapTBillParams",
          "name": "params",
          "type": "tuple"
        }
      ],
      "name": "zapTBill",
      "outputs": [],
      "stateMutability": "payable",
      "type": "function"
    },
    {
      "inputs": [
        {
          "components": [
            {
              "internalType": "uint256",
              "name": "inputAmount",
              "type": "uint256"
            },
            {
              "internalType": "contract IMaximizerVaultApe",
              "name": "maximizerVaultApe",
              "type": "address"
            },
            {
              "internalType": "uint256",
              "name": "vaultPid",
              "type": "uint256"
            },
            {
              "internalType": "address",
              "name": "recipient",
              "type": "address"
            }
          ],
          "internalType": "struct ApeSwapZapVaults.zapVaultParams",
          "name": "params",
          "type": "tuple"
        }
      ],
      "name": "zapVault",
      "outputs": [],
      "stateMutability": "payable",
      "type": "function"
    }
  ],
  "bytecode": "0x60e06040523480156200001157600080fd5b5060405162004d7838038062004d788339810160408190526200003491620001f0565b600080546001600160a01b0319166001600160a01b038516178155600180558290808046603803620000aa576001600160a01b038416620000aa5760405162461bcd60e51b8152600401620000a1906020808252600490820152631351d09560e21b604082015260600190565b60405180910390fd5b6001600160a01b038416156200019157839250826001600160a01b031663c3cafc6f6040518163ffffffff1660e01b8152600401602060405180830381865afa158015620000fc573d6000803e3d6000fd5b505050506040513d601f19601f8201168201806040525081019062000122919062000244565b9150826001600160a01b0316634099c0c86040518163ffffffff1660e01b8152600401602060405180830381865afa15801562000163573d6000803e3d6000fd5b505050506040513d601f19601f8201168201806040525081019062000189919062000244565b90506200019b565b5060009150819050805b6001600160a01b0392831660c052908216608052811660a052600280546001600160a01b0319169390911692909217909155506200026b915050565b6001600160a01b0381168114620001ed57600080fd5b50565b6000806000606084860312156200020657600080fd5b83516200021381620001d7565b60208501519093506200022681620001d7565b60408501519092506200023981620001d7565b809150509250925092565b6000602082840312156200025757600080fd5b81516200026481620001d7565b9392505050565b60805160a05160c051614ac1620002b7600039600081816102ca0152818161067d01526107750152600081816101e9015261060001526000818161039701526106500152614ac16000f3fe6080604052600436106101355760003560e01c80637c146872116100ab578063ac9650d81161006f578063ac9650d814610345578063b172af6d14610365578063c8b35c7a14610385578063d0de1034146103b9578063f3ec43c7146103f4578063f7c9943d1461041457600080fd5b80637c146872146102b85780637e9fe2e0146102ec5780637fe40e4e1461030c57806399bcfb081461031f578063a7aff3e91461033257600080fd5b80632b51489f116100fd5780632b51489f146101d75780633244c12c1461020b5780633d4821131461021e5780636321ba6c146102315780636620f7b1146102845780637923da481461029757600080fd5b80630d24dd001461013a578063112e287d1461016757806319a671d31461017c5780631be9ab4e1461018f57806322e41609146101a2575b600080fd5b61014d610148366004613444565b610427565b604080519283526020830191909152015b60405180910390f35b61017a6101753660046134a1565b61053e565b005b61017a61018a366004613509565b610a14565b61017a61019d366004613552565b610ca6565b3480156101ae57600080fd5b506101ca73eeeeeeeeeeeeeeeeeeeeeeeeeeeeeeeeeeeeeeee81565b60405161015e91906135a1565b3480156101e357600080fd5b506101ca7f000000000000000000000000000000000000000000000000000000000000000081565b61017a6102193660046135b5565b611145565b61017a61022c3660046135e5565b61126c565b34801561023d57600080fd5b5061025161024c36600461385a565b6114fe565b60405161015e91908151815260208083015190820152604080830151908201526060918201519181019190915260800190565b61014d61029236600461398e565b6115a0565b6102aa6102a5366004613a45565b61193c565b60405190815260200161015e565b3480156102c457600080fd5b506101ca7f000000000000000000000000000000000000000000000000000000000000000081565b3480156102f857600080fd5b506002546101ca906001600160a01b031681565b61017a61031a366004613bc9565b611c1b565b61014d61032d366004613c90565b611e5f565b61017a610340366004613509565b612153565b610358610353366004613d2d565b612439565b60405161015e9190613e4e565b34801561037157600080fd5b5061017a6103803660046135b5565b612590565b34801561039157600080fd5b506101ca7f000000000000000000000000000000000000000000000000000000000000000081565b6103cc6103c7366004613e61565b6126d9565b604080519485526001600160801b03909316602085015291830152606082015260800161015e565b34801561040057600080fd5b506000546101ca906001600160a01b031681565b61014d610422366004613f2e565b612a29565b60008060016001600160a01b031683604001516001600160a01b03160361045357336040840152610478565b60026001600160a01b031683604001516001600160a01b031603610478573060408401525b82600001516001600160a01b031663a8559872846020015185604001513387606001516040518563ffffffff1660e01b81526004016104ba9493929190613fe6565b60408051808303816000875af11580156104d8573d6000803e3d6000fd5b505050506040513d601f19601f820116820180604052508101906104fc919061401a565b60405191935091507ff87796ffe333ba789c59cc73d9bcb08fed9e21054613a547f5dfe667d2e3bb699061053190859061403e565b60405180910390a1915091565b600081602001516001600160a01b0316631c39b6726040518163ffffffff1660e01b8152600401602060405180830381865afa158015610582573d6000803e3d6000fd5b505050506040513d601f19601f820116820180604052508101906105a6919061407b565b90506105b6818360000151612cc4565b825260408201516001600160a01b0316600019016105d9573360408301526105fe565b60026001600160a01b031682604001516001600160a01b0316036105fe573060408301525b7f00000000000000000000000000000000000000000000000000000000000000006001600160a01b0316816001600160a01b03160361085b57815160405163095ea7b360e01b81526001600160a01b037f0000000000000000000000000000000000000000000000000000000000000000169163095ea7b3916106a5917f000000000000000000000000000000000000000000000000000000000000000091600401614098565b6020604051808303816000875af11580156106c4573d6000803e3d6000fd5b505050506040513d601f19601f820116820180604052508101906106e891906140b1565b506040516370a0823160e01b81526000906001600160a01b038316906370a08231906107189030906004016135a1565b602060405180830381865afa158015610735573d6000803e3d6000fd5b505050506040513d601f19601f8201168201806040525081019061075991906140d3565b8351604051636cb504a560e11b81529192506001600160a01b037f0000000000000000000000000000000000000000000000000000000000000000169163d96a094a916107ac9160040190815260200190565b600060405180830381600087803b1580156107c657600080fd5b505af11580156107da573d6000803e3d6000fd5b50506040516370a0823160e01b81528392506001600160a01b03851691506370a082319061080c9030906004016135a1565b602060405180830381865afa158015610829573d6000803e3d6000fd5b505050506040513d601f19601f8201168201806040525081019061084d91906140d3565b6108579190614102565b8352505b6020820151825160405163095ea7b360e01b81526001600160a01b0384169263095ea7b39261088c92600401614098565b6020604051808303816000875af11580156108ab573d6000803e3d6000fd5b505050506040513d601f19601f820116820180604052508101906108cf91906140b1565b506020820151825160408085015190516370aff70f60e01b815260048101929092526001600160a01b039081166024830152909116906370aff70f90604401600060405180830381600087803b15801561092857600080fd5b505af115801561093c573d6000803e3d6000fd5b505050602083015160405163095ea7b360e01b81526001600160a01b038416925063095ea7b39161097291600090600401614098565b6020604051808303816000875af1158015610991573d6000803e3d6000fd5b505050506040513d601f19601f820116820180604052508101906109b591906140b1565b5060408051835181526020808501516001600160a01b03908116918301919091528285015116918101919091527f7736a6edd7164fef2114153502ffcaf78163a07497a7f609e3d8433820417cb7906060015b60405180910390a15050565b600081602001516001600160a01b03166378ed5d1f83604001516040518263ffffffff1660e01b8152600401610a4c91815260200190565b6020604051808303816000875af1158015610a6b573d6000803e3d6000fd5b505050506040513d601f19601f82011682018060405250810190610a8f919061407b565b9050610a9f818360000151612cc4565b825260608201516001600160a01b031660001901610ac257336060830152610ae7565b60026001600160a01b031682606001516001600160a01b031603610ae7573060608301525b6020820151825160405163095ea7b360e01b81526001600160a01b0384169263095ea7b392610b1892600401614098565b6020604051808303816000875af1158015610b37573d6000803e3d6000fd5b505050506040513d601f19601f82011682018060405250810190610b5b91906140b1565b506020820151604080840151845160608601519251638dbdbe6d60e01b81526001600160a01b0390941693638dbdbe6d93610b9a939291600401614119565b600060405180830381600087803b158015610bb457600080fd5b505af1158015610bc8573d6000803e3d6000fd5b505050602083015160405163095ea7b360e01b81526001600160a01b038416925063095ea7b391610bfe91600090600401614098565b6020604051808303816000875af1158015610c1d573d6000803e3d6000fd5b505050506040513d601f19601f82011682018060405250810190610c4191906140b1565b507f4f77b14b98fea9dfbe532020adb1d2b1b16e62086530538c69471554e36e332482604051610a089190815181526020808301516001600160a01b039081169183019190915260408084015190830152606092830151169181019190915260800190565b6000826001600160a01b0316636f307dc36040518163ffffffff1660e01b8152600401602060405180830381865afa158015610ce6573d6000803e3d6000fd5b505050506040513d601f19601f82011682018060405250810190610d0a919061407b565b905073eeeeeeeeeeeeeeeeeeeeeeeeeeeeeeeeeeeeeeed196001600160a01b03821601610d9d5760008415610d3f5784610d41565b475b9050836001600160a01b0316631249c58b826040518263ffffffff1660e01b81526004016000604051808303818588803b158015610d7e57600080fd5b505af1158015610d92573d6000803e3d6000fd5b505050505050610fab565b610da78185612cc4565b93506000816001600160a01b03166370a08231306040518263ffffffff1660e01b8152600401610dd791906135a1565b602060405180830381865afa158015610df4573d6000803e3d6000fd5b505050506040513d601f19601f82011682018060405250810190610e1891906140d3565b60405163095ea7b360e01b81529091506001600160a01b0383169063095ea7b390610e499087908590600401614098565b6020604051808303816000875af1158015610e68573d6000803e3d6000fd5b505050506040513d601f19601f82011682018060405250810190610e8c91906140b1565b5060405163140e25ad60e31b8152600481018290526000906001600160a01b0386169063a0712d68906024016020604051808303816000875af1158015610ed7573d6000803e3d6000fd5b505050506040513d601f19601f82011682018060405250810190610efb91906140d3565b90508015610f355760405162461bcd60e51b815260206004820152600260248201526126a360f11b60448201526064015b60405180910390fd5b60405163095ea7b360e01b81526001600160a01b0384169063095ea7b390610f64908890600090600401614098565b6020604051808303816000875af1158015610f83573d6000803e3d6000fd5b505050506040513d601f19601f82011682018060405250810190610fa791906140b1565b5050505b6040516370a0823160e01b81526000906001600160a01b038516906370a0823190610fda9030906004016135a1565b602060405180830381865afa158015610ff7573d6000803e3d6000fd5b505050506040513d601f19601f8201168201806040525081019061101b91906140d3565b9050600081116110525760405162461bcd60e51b815260206004820152600260248201526104e560f41b6044820152606401610f2c565b6000196001600160a01b03841601611068573392505b6001600160a01b03831660021480159061108b57506001600160a01b0383163014155b156111035760405163a9059cbb60e01b81526001600160a01b0383169063a9059cbb906110be9086908590600401614098565b6020604051808303816000875af11580156110dd573d6000803e3d6000fd5b505050506040513d601f19601f8201168201806040525081019061110191906140b1565b505b7f3ef48a56b7115a116ba6cb944d7716d6ed59fb27262cfe8f0d81132fcf0be30e85858360405161113693929190614138565b60405180910390a15050505050565b60008054906101000a90046001600160a01b03166001600160a01b031663d0e30db0836040518263ffffffff1660e01b81526004016000604051808303818588803b15801561119357600080fd5b505af11580156111a7573d6000803e3d6000fd5b505050505060016001600160a01b0316816001600160a01b0316036111c95750335b6001600160a01b0381166002148015906111ec57506001600160a01b0381163014155b156112685760005460405163a9059cbb60e01b81526001600160a01b039091169063a9059cbb906112239084908690600401614098565b6020604051808303816000875af1158015611242573d6000803e3d6000fd5b505050506040513d601f19601f8201168201806040525081019061126691906140b1565b505b5050565b600081600001516001600160a01b031663dbc162de6040518163ffffffff1660e01b81526004016020604051808303816000875af11580156112b2573d6000803e3d6000fd5b505050506040513d601f19601f820116820180604052508101906112d6919061407b565b90506112e6818360200151612cc4565b602083015260608201516001600160a01b03166000190161130c57336060830152611331565b60026001600160a01b031682606001516001600160a01b031603611331573060608301525b8151602083015160405163095ea7b360e01b81526001600160a01b0384169263095ea7b39261136292600401614098565b6020604051808303816000875af1158015611381573d6000803e3d6000fd5b505050506040513d601f19601f820116820180604052508101906113a591906140b1565b508151602083015160408085015160608601519151638dbdbe6d60e01b81526001600160a01b0390941693638dbdbe6d936113e593909291600401614119565b6020604051808303816000875af1158015611404573d6000803e3d6000fd5b505050506040513d601f19601f8201168201806040525081019061142891906140d3565b50815160405163095ea7b360e01b81526001600160a01b0383169163095ea7b3916114599190600090600401614098565b6020604051808303816000875af1158015611478573d6000803e3d6000fd5b505050506040513d601f19601f8201168201806040525081019061149c91906140b1565b507fce54e2eded6d6e8d11b730770c27157c4af72210021a6e7bb617cab89a0f29b482604051610a08919081516001600160a01b0390811682526020808401519083015260408084015190830152606092830151169181019190915260800190565b6115296040518060800160405280600081526020016000815260200160008152602001600081525090565b6002546040516318c86e9b60e21b81526001600160a01b0390911690636321ba6c90611559908590600401614284565b608060405180830381865afa158015611576573d6000803e3d6000fd5b505050506040513d601f19601f8201168201806040525081019061159a9190614347565b92915050565b6000806115b583602001518460800151612cc4565b6080840152604083015160a08401516115ce9190612cc4565b60a084015260208301518351608085015160405163095ea7b360e01b81526001600160a01b039093169263095ea7b39261160c929091600401614098565b6020604051808303816000875af115801561162b573d6000803e3d6000fd5b505050506040513d601f19601f8201168201806040525081019061164f91906140b1565b50604080840151845160a0860151925163095ea7b360e01b81526001600160a01b039092169263095ea7b392611689929190600401614098565b6020604051808303816000875af11580156116a8573d6000803e3d6000fd5b505050506040513d601f19601f820116820180604052508101906116cc91906140b1565b5060016001600160a01b03168361010001516001600160a01b0316036116f8573361010084015261171f565b60026001600160a01b03168361010001516001600160a01b03160361171f57306101008401525b600083600001516001600160a01b031663c45a01556040518163ffffffff1660e01b8152600401602060405180830381865afa158015611763573d6000803e3d6000fd5b505050506040513d601f19601f82011682018060405250810190611787919061407b565b602085015160408087015160608801519151630b4c774160e11b81526001600160a01b039384166004820152908316602482015262ffffff9091166044820152911690631698ee8290606401602060405180830381865afa1580156117f0573d6000803e3d6000fd5b505050506040513d601f19601f82011682018060405250810190611814919061407b565b9050600061182782866101400151612d1b565b8551608087015160a088015160c089015160e08a01516101008b015160405163fb9f478960e01b81526001600160a01b0380891660048301526024820196909652604481019490945260648401929092526084830152821660a4820152929350169063fb9f47899060c4016060604051808303816000875af11580156118b1573d6000803e3d6000fd5b505050506040513d601f19601f820116820180604052508101906118d5919061438d565b50602087015191955093506118ec90600033612f27565b506118fd8560400151600033612f27565b507fff2c117798279d22f69a0738853c004234cf56bf7c5db1d504e0c8f9d0aafbf58560405161192d91906143bb565b60405180910390a15050915091565b600061195082602001518360600151612cc4565b6060830152604082015160808301516119699190612cc4565b608083015260208201518251606084015160405163095ea7b360e01b81526001600160a01b039093169263095ea7b3926119a7929091600401614098565b6020604051808303816000875af11580156119c6573d6000803e3d6000fd5b505050506040513d601f19601f820116820180604052508101906119ea91906140b1565b5060408083015183516080850151925163095ea7b360e01b81526001600160a01b039092169263095ea7b392611a24929190600401614098565b6020604051808303816000875af1158015611a43573d6000803e3d6000fd5b505050506040513d601f19601f82011682018060405250810190611a6791906140b1565b5060016001600160a01b03168260a001516001600160a01b031603611a91573360a0830152611ab6565b60026001600160a01b03168260a001516001600160a01b031603611ab6573060a08301525b81600001516001600160a01b03166386a290816040518163ffffffff1660e01b8152600401602060405180830381865afa158015611af8573d6000803e3d6000fd5b505050506040513d601f19601f82011682018060405250810190611b1c919061407b565b6001600160a01b0316638e3c92e4836060015184608001518560a0015186600001518760c001516040518663ffffffff1660e01b8152600401611b6395949392919061446f565b6020604051808303816000875af1158015611b82573d6000803e3d6000fd5b505050506040513d601f19601f82011682018060405250810190611ba691906140d3565b9050611bbc826000015160008460a00151612f27565b50611bcd8260200151600033612f27565b50611bde8260400151600033612f27565b507f08a5b5475489477a8e33f706d7f854cce205b8257375af68ba1bb13ae32bf21082604051611c0e91906144ac565b60405180910390a1919050565b600260015403611c6d5760405162461bcd60e51b815260206004820152601f60248201527f5265656e7472616e637947756172643a207265656e7472616e742063616c6c006044820152606401610f2c565b600260015560a08101516001600160a01b0316611c9c5760405162461bcd60e51b8152600401610f2c9061450d565b60608101516001600160a01b0316611cc65760405162461bcd60e51b8152600401610f2c9061450d565b611cd881600001518260200151612cc4565b602082018190528151606083015160405163095ea7b360e01b81526001600160a01b039092169263095ea7b392611d13929190600401614098565b6020604051808303816000875af1158015611d32573d6000803e3d6000fd5b505050506040513d601f19601f82011682018060405250810190611d5691906140b1565b50600060408201518015611d6c57611d6c614157565b03611df35760608101516080820151604051631592ca1b60e31b81526001600160a01b039092169163ac9650d891611da691600401613e4e565b6000604051808303816000875af1158015611dc5573d6000803e3d6000fd5b505050506040513d6000823e601f3d908101601f19168201604052611ded9190810190614559565b50611e21565b60405162461bcd60e51b8152602060048201526003602482015262534e5360e81b6044820152606401610f2c565b7fd89cb1b6f6598a8cefbbcb4d6139a969564fb8261ae0e1fa3912beec3a8524c781604051611e50919061461e565b60405180910390a15060018055565b60008060016001600160a01b03168360a001516001600160a01b031603611e8b573360a0840152611eb0565b60026001600160a01b03168360a001516001600160a01b031603611eb0573060a08401525b600083602001516001600160a01b0316630dfe16816040518163ffffffff1660e01b8152600401602060405180830381865afa158015611ef4573d6000803e3d6000fd5b505050506040513d601f19601f82011682018060405250810190611f18919061407b565b9050600084602001516001600160a01b031663d21220a76040518163ffffffff1660e01b8152600401602060405180830381865afa158015611f5e573d6000803e3d6000fd5b505050506040513d601f19601f82011682018060405250810190611f82919061407b565b9050611f9685602001518660400151612cc4565b604080870182905260208701518751915163095ea7b360e01b81526001600160a01b039091169263095ea7b392611fd292909190600401614098565b6020604051808303816000875af1158015611ff1573d6000803e3d6000fd5b505050506040513d601f19601f8201168201806040525081019061201591906140b1565b5084516040808701516060880151608089015160a08a015160c08b01519451635d5155ef60e11b81526001600160a01b0389811660048301528881166024830152604482019590955260648101939093526084830191909152821660a482015260c48101929092529091169063baa2abde9060e40160408051808303816000875af11580156120a8573d6000803e3d6000fd5b505050506040513d601f19601f820116820180604052508101906120cc919061401a565b6040805188516001600160a01b0390811682526020808b015182169083015289830151928201929092526060808a0151908201526080808a01519082015260a0808a01519092169181019190915260c0808901519082015291955093507f42f69967c691bb0a5ebdaf1a586355b75c45cc889b911c5cc4d48c2b1eff01cb9060e00161192d565b600081602001516001600160a01b0316638c64ea4a83604001516040518263ffffffff1660e01b815260040161218b91815260200190565b602060405180830381865afa1580156121a8573d6000803e3d6000fd5b505050506040513d601f19601f820116820180604052508101906121cc919061407b565b90506000816001600160a01b031663d363c6876040518163ffffffff1660e01b81526004016020604051808303816000875af1158015612210573d6000803e3d6000fd5b505050506040513d601f19601f82011682018060405250810190612234919061407b565b9050612244818460000151612cc4565b835260608301516001600160a01b0316600019016122675733606084015261228c565b60026001600160a01b031683606001516001600160a01b03160361228c573060608401525b6020830151835160405163095ea7b360e01b81526001600160a01b0384169263095ea7b3926122bd92600401614098565b6020604051808303816000875af11580156122dc573d6000803e3d6000fd5b505050506040513d601f19601f8201168201806040525081019061230091906140b1565b506020830151604080850151606086015186519251631cb9461b60e21b81526001600160a01b03909416936372e5186c9361233f939291600401614138565b600060405180830381600087803b15801561235957600080fd5b505af115801561236d573d6000803e3d6000fd5b505050602084015160405163095ea7b360e01b81526001600160a01b038416925063095ea7b3916123a391600090600401614098565b6020604051808303816000875af11580156123c2573d6000803e3d6000fd5b505050506040513d601f19601f820116820180604052508101906123e691906140b1565b50825160408085015181516001600160a01b0385168152602081019390935282820152517f18666a4b17745baf38ce6b4b1a23f6bf1128f63c0347ffa6b41ee1b2026ccd019181900360600190a1505050565b6060816001600160401b03811115612453576124536132b1565b60405190808252806020026020018201604052801561248657816020015b60608152602001906001900390816124715790505b50905060005b8281101561258957600080308686858181106124aa576124aa6146af565b90506020028101906124bc91906146c5565b6040516124ca929190614712565b600060405180830381855af49150503d8060008114612505576040519150601f19603f3d011682016040523d82523d6000602084013e61250a565b606091505b5091509150816125565760448151101561252357600080fd5b6004810190508080602001905181019061253d9190614722565b60405162461bcd60e51b8152600401610f2c919061476a565b80848481518110612569576125696146af565b6020026020010181905250505080806125819061477d565b91505061248c565b5092915050565b600054604051632e1a7d4d60e01b8152600481018490526001600160a01b0390911690632e1a7d4d90602401600060405180830381600087803b1580156125d657600080fd5b505af11580156125ea573d6000803e3d6000fd5b5050505060016001600160a01b0316816001600160a01b03160361260b5750335b6001600160a01b03811660021480159061262e57506001600160a01b0381163014155b15611268576040805160008082526020820192839052916001600160a01b0384169161132391869161265f91614796565b600060405180830381858888f193505050503d806000811461269d576040519150601f19603f3d011682016040523d82523d6000602084013e6126a2565b606091505b50509050806112665760405162461bcd60e51b8152602060048201526003602482015262272a2360e91b6044820152606401610f2c565b60008060008084604001516001600160a01b031685602001516001600160a01b03161061272e5760405162461bcd60e51b815260206004820152600360248201526254534f60e81b6044820152606401610f2c565b61274085602001518660c00151612cc4565b60c0860152604085015160e08601516127599190612cc4565b60e08601526020850151855160c087015160405163095ea7b360e01b81526001600160a01b039093169263095ea7b392612797929091600401614098565b6020604051808303816000875af11580156127b6573d6000803e3d6000fd5b505050506040513d601f19601f820116820180604052508101906127da91906140b1565b50604080860151865160e0880151925163095ea7b360e01b81526001600160a01b039092169263095ea7b392612814929190600401614098565b6020604051808303816000875af1158015612833573d6000803e3d6000fd5b505050506040513d601f19601f8201168201806040525081019061285791906140b1565b5060016001600160a01b03168561014001516001600160a01b03160361288357336101408601526128aa565b60026001600160a01b03168561014001516001600160a01b0316036128aa57306101408601525b84600001516001600160a01b0316638831645660405180610160016040528088602001516001600160a01b0316815260200188604001516001600160a01b03168152602001886060015162ffffff168152602001886080015160020b81526020018860a0015160020b81526020018860c0015181526020018860e001518152602001886101000151815260200188610120015181526020018861014001516001600160a01b031681526020018861016001518152506040518263ffffffff1660e01b815260040161297b91906147b2565b6080604051808303816000875af115801561299a573d6000803e3d6000fd5b505050506040513d601f19601f820116820180604052508101906129be9190614868565b6020890151939750919550935091506129d990600033612f27565b506129ea8560400151600033612f27565b507fd665a1dd0dc7cbbc5c03f7f1af17d2a5389f35df4c6aba39f4b64cc9e6ee268185604051612a1a91906148b3565b60405180910390a19193509193565b600080612a3e83602001518460600151612cc4565b606084015260408301516080840151612a579190612cc4565b608084015260208301518351606085015160405163095ea7b360e01b81526001600160a01b039093169263095ea7b392612a95929091600401614098565b6020604051808303816000875af1158015612ab4573d6000803e3d6000fd5b505050506040513d601f19601f82011682018060405250810190612ad891906140b1565b5060408084015184516080860151925163095ea7b360e01b81526001600160a01b039092169263095ea7b392612b12929190600401614098565b6020604051808303816000875af1158015612b31573d6000803e3d6000fd5b505050506040513d601f19601f82011682018060405250810190612b5591906140b1565b5060016001600160a01b03168360e001516001600160a01b031603612b7f573360e0840152612ba4565b60026001600160a01b03168360e001516001600160a01b031603612ba4573060e08401525b825160208401516040808601516060870151608088015160a089015160c08a015160e08b01516101008c0151965162e8e33760e81b81526001600160a01b039889166004820152958816602487015260448601949094526064850192909252608484015260a4830152831660c482015260e481019190915291169063e8e3370090610104016060604051808303816000875af1158015612c48573d6000803e3d6000fd5b505050506040513d601f19601f82011682018060405250810190612c6c919061438d565b5060208501519193509150612c8390600033612f27565b50612c948360400151600033612f27565b507f5e1129670b6a8660ec68a7b9e2151c244385169301e8b6f2168bd4a301e3c48683604051610531919061497e565b600081612cdb57612cd483612f5e565b9150612d15565b6000612ce684612f5e565b9050612cfd6001600160a01b038516333086612fce565b80612d0785612f5e565b612d119190614102565b9250505b50919050565b600080826001600160a01b031663607c12b56040518163ffffffff1660e01b8152600401600060405180830381865afa158015612d5c573d6000803e3d6000fd5b505050506040513d6000823e601f3d908101601f19168201604052612d8491908101906149fd565b905060005b8151811015612ef8576000846001600160a01b0316635c39f467848481518110612db557612db56146af565b60200260200101516040518263ffffffff1660e01b8152600401612dd991906135a1565b600060405180830381865afa158015612df6573d6000803e3d6000fd5b505050506040513d6000823e601f3d908101601f19168201604052612e1e91908101906149fd565b905060005b8151811015612ee3576000828281518110612e4057612e406146af565b60200260200101519050876001600160a01b0316816001600160a01b03166316f0115b6040518163ffffffff1660e01b8152600401602060405180830381865afa158015612e92573d6000803e3d6000fd5b505050506040513d601f19601f82011682018060405250810190612eb6919061407b565b6001600160a01b031603612ed057945061159a9350505050565b5080612edb8161477d565b915050612e23565b50508080612ef09061477d565b915050612d89565b5060405162461bcd60e51b815260206004820152600360248201526250444560e81b6044820152606401610f2c565b600082612f3a57612f3784612f5e565b92505b8215612f5457612f546001600160a01b038516838561303f565b50815b9392505050565b6040516370a0823160e01b81526000906001600160a01b038316906370a0823190612f8d9030906004016135a1565b602060405180830381865afa158015612faa573d6000803e3d6000fd5b505050506040513d601f19601f8201168201806040525081019061159a91906140d3565b6040516001600160a01b03808516602483015283166044820152606481018290526130399085906323b872dd60e01b906084015b60408051601f198184030181529190526020810180516001600160e01b03166001600160e01b03199093169290921790915261305e565b50505050565b6112668363a9059cbb60e01b8484604051602401613002929190614098565b60006130b3826040518060400160405280602081526020017f5361666545524332303a206c6f772d6c6576656c2063616c6c206661696c6564815250856001600160a01b03166131309092919063ffffffff16565b80519091501561126657808060200190518101906130d191906140b1565b6112665760405162461bcd60e51b815260206004820152602a60248201527f5361666545524332303a204552433230206f7065726174696f6e20646964206e6044820152691bdd081cdd58d8d9595960b21b6064820152608401610f2c565b606061313f8484600085613147565b949350505050565b6060824710156131a85760405162461bcd60e51b815260206004820152602660248201527f416464726573733a20696e73756666696369656e742062616c616e636520666f6044820152651c8818d85b1b60d21b6064820152608401610f2c565b6001600160a01b0385163b6131ff5760405162461bcd60e51b815260206004820152601d60248201527f416464726573733a2063616c6c20746f206e6f6e2d636f6e74726163740000006044820152606401610f2c565b600080866001600160a01b0316858760405161321b9190614796565b60006040518083038185875af1925050503d8060008114613258576040519150601f19603f3d011682016040523d82523d6000602084013e61325d565b606091505b509150915061326d828286613278565b979650505050505050565b60608315613287575081612f57565b8251156132975782518084602001fd5b8160405162461bcd60e51b8152600401610f2c919061476a565b634e487b7160e01b600052604160045260246000fd5b604051608081016001600160401b03811182821017156132e9576132e96132b1565b60405290565b60405160c081016001600160401b03811182821017156132e9576132e96132b1565b60405161016081016001600160401b03811182821017156132e9576132e96132b1565b60405160e081016001600160401b03811182821017156132e9576132e96132b1565b60405161018081016001600160401b03811182821017156132e9576132e96132b1565b60405161012081016001600160401b03811182821017156132e9576132e96132b1565b604051601f8201601f191681016001600160401b03811182821017156133c4576133c46132b1565b604052919050565b6001600160a01b03811681146133e157600080fd5b50565b80356133ef816133cc565b919050565b600082601f83011261340557600080fd5b61340d6132c7565b80608084018581111561341f57600080fd5b845b81811015613439578035845260209384019301613421565b509095945050505050565b600060e0828403121561345657600080fd5b61345e6132c7565b8235613469816133cc565b8152602083810135908201526040830135613483816133cc565b604082015261349584606085016133f4565b60608201529392505050565b6000606082840312156134b357600080fd5b604051606081018181106001600160401b03821117156134d5576134d56132b1565b6040528235815260208301356134ea816133cc565b602082015260408301356134fd816133cc565b60408201529392505050565b60006080828403121561351b57600080fd5b6135236132c7565b823581526020830135613535816133cc565b6020820152604083810135908201526060830135613495816133cc565b60008060006060848603121561356757600080fd5b833592506020840135613579816133cc565b91506040840135613589816133cc565b809150509250925092565b6001600160a01b03169052565b6001600160a01b0391909116815260200190565b600080604083850312156135c857600080fd5b8235915060208301356135da816133cc565b809150509250929050565b6000608082840312156135f757600080fd5b6135ff6132c7565b823561360a816133cc565b8082525060208301356020820152604083013560408201526060830135613495816133cc565b60006001600160401b03821115613649576136496132b1565b5060051b60200190565b600082601f83011261366457600080fd5b8135602061367961367483613630565b61339c565b82815260059290921b8401810191818101908684111561369857600080fd5b8286015b848110156136bc5780356136af816133cc565b835291830191830161369c565b509695505050505050565b803562ffffff811681146133ef57600080fd5b600082601f8301126136eb57600080fd5b813560206136fb61367483613630565b82815260059290921b8401810191818101908684111561371a57600080fd5b8286015b848110156136bc5761372f816136c7565b835291830191830161371e565b600082601f83011261374d57600080fd5b8135602061375d61367483613630565b82815260059290921b8401810191818101908684111561377c57600080fd5b8286015b848110156136bc5780356001600160401b03808211156137a05760008081fd5b908801906080828b03601f19018113156137ba5760008081fd5b6137c26132c7565b878401356137cf816133cc565b8152604084810135600281106137e55760008081fd5b828a0152606085810135858111156137fd5760008081fd5b61380b8f8c838a0101613653565b848401525092850135928484111561382557600091508182fd5b6138338e8b868901016136da565b90830152508652505050918301918301613780565b8035600281900b81146133ef57600080fd5b60006020828403121561386c57600080fd5b81356001600160401b038082111561388357600080fd5b9083019081850361012081121561389957600080fd5b6138a16132c7565b833581526020840135838111156138b757600080fd5b6138c38882870161373c565b6020830152506040840135838111156138db57600080fd5b6138e78882870161373c565b60408301525060c0605f19830112156138ff57600080fd5b6139076132ef565b925060608401359150613919826133cc565b9082526080830135906004821061392f57600080fd5b81602084015261394160a085016136c7565b604084015261395260c08501613848565b606084015261396360e08501613848565b60808401526101008401359350613979846133cc565b60a08301939093525060608201529392505050565b600061016082840312156139a157600080fd5b6139a9613311565b6139b2836133e4565b81526139c0602084016133e4565b60208201526139d1604084016133e4565b60408201526139e2606084016136c7565b60608201526080830135608082015260a083013560a082015260c083013560c082015260e083013560e0820152610100613a1d8185016133e4565b908201526101208381013590820152610140613a3a8185016133e4565b908201529392505050565b60006101408284031215613a5857600080fd5b613a60613334565b8235613a6b816133cc565b81526020830135613a7b816133cc565b60208201526040830135613a8e816133cc565b80604083015250606083013560608201526080830135608082015260a0830135613ab7816133cc565b60a0820152613ac98460c085016133f4565b60c08201529392505050565b8035600181106133ef57600080fd5b60006001600160401b03821115613afd57613afd6132b1565b50601f01601f191660200190565b600082601f830112613b1c57600080fd5b81356020613b2c61367483613630565b82815260059290921b84018101918181019086841115613b4b57600080fd5b8286015b848110156136bc5780356001600160401b03811115613b6e5760008081fd5b8701603f81018913613b805760008081fd5b848101356040613b9261367483613ae4565b8281528b82848601011115613ba75760008081fd5b8282850189830137600092810188019290925250845250918301918301613b4f565b600060208284031215613bdb57600080fd5b81356001600160401b0380821115613bf257600080fd5b9083019060e08286031215613c0657600080fd5b613c0e613334565b613c17836133e4565b815260208301356020820152613c2f60408401613ad5565b6040820152613c40606084016133e4565b6060820152608083013582811115613c5757600080fd5b613c6387828601613b0b565b608083015250613c7560a084016133e4565b60a082015260c083013560c082015280935050505092915050565b600060e08284031215613ca257600080fd5b60405160e081018181106001600160401b0382111715613cc457613cc46132b1565b6040528235613cd2816133cc565b81526020830135613ce2816133cc565b8060208301525060408301356040820152606083013560608201526080830135608082015260a0830135613d15816133cc565b60a082015260c0928301359281019290925250919050565b60008060208385031215613d4057600080fd5b82356001600160401b0380821115613d5757600080fd5b818501915085601f830112613d6b57600080fd5b813581811115613d7a57600080fd5b8660208260051b8501011115613d8f57600080fd5b60209290920196919550909350505050565b60005b83811015613dbc578181015183820152602001613da4565b838111156130395750506000910152565b60008151808452613de5816020860160208601613da1565b601f01601f19169290920160200192915050565b600081518084526020808501808196508360051b8101915082860160005b85811015613e41578284038952613e2f848351613dcd565b98850198935090840190600101613e17565b5091979650505050505050565b602081526000612f576020830184613df9565b60006101808284031215613e7457600080fd5b613e7c613356565b613e85836133e4565b8152613e93602084016133e4565b6020820152613ea4604084016133e4565b6040820152613eb5606084016136c7565b6060820152613ec660808401613848565b6080820152613ed760a08401613848565b60a082015260c083013560c082015260e083013560e0820152610100808401358183015250610120808401358183015250610140613f168185016133e4565b90820152610160928301359281019290925250919050565b60006101208284031215613f4157600080fd5b613f49613379565b613f52836133e4565b8152613f60602084016133e4565b6020820152613f71604084016133e4565b6040820152606083013560608201526080830135608082015260a083013560a082015260c083013560c0820152613faa60e084016133e4565b60e0820152610100928301359281019290925250919050565b8060005b6004811015613039578151845260209384019390910190600101613fc7565b8481526001600160a01b0384811660208301528316604082015260e081016140116060830184613fc3565b95945050505050565b6000806040838503121561402d57600080fd5b505080516020909101519092909150565b81516001600160a01b039081168252602080840151908301526040808401519091169082015260608083015160e083019161258990840182613fc3565b60006020828403121561408d57600080fd5b8151612f57816133cc565b6001600160a01b03929092168252602082015260400190565b6000602082840312156140c357600080fd5b81518015158114612f5757600080fd5b6000602082840312156140e557600080fd5b5051919050565b634e487b7160e01b600052601160045260246000fd5b600082821015614114576141146140ec565b500390565b92835260208301919091526001600160a01b0316604082015260600190565b9283526001600160a01b03919091166020830152604082015260600190565b634e487b7160e01b600052602160045260246000fd5b600081518084526020808501945080840160005b838110156141a257815162ffffff1687529582019590820190600101614181565b509495945050505050565b600081518084526020808501808196508360051b810191508286016000805b86811015614276578385038a52825180516001600160a01b03908116875287820151608091828901916002811061420557614205614157565b898b0152604084810151908a019390935282519182905260a08901928a0191865b8181101561424457835183168552938b0193928b0192600101614226565b5050505060608083015192508782038189015250614262818361416d565b9b88019b96505050918501916001016141cc565b509298975050505050505050565b6020815281516020820152600060208301516101208060408501526142ad6101408501836141ad565b91506040850151601f198584030160608601526142ca83826141ad565b606087015180516001600160a01b0316608088015260208101519194509150600481106142f9576142f9614157565b8060a08701525062ffffff60408201511660c0860152606081015160020b60e0860152608081015160020b61010086015260a0810151905061433d82860182613594565b5090949350505050565b60006080828403121561435957600080fd5b6143616132c7565b825181526020830151602082015260408301516040820152606083015160608201528091505092915050565b6000806000606084860312156143a257600080fd5b8351925060208401519150604084015190509250925092565b6000610160820190506143cf828451613594565b60208301516143e16020840182613594565b5060408301516143f46040840182613594565b50606083015161440b606084018262ffffff169052565b506080830151608083015260a083015160a083015260c083015160c083015260e083015160e08301526101008084015161444782850182613594565b505061012083810151908301526101408084015161446782850182613594565b505092915050565b858152602081018590526001600160a01b0384811660408301528316606082015261010081016144a26080830184613fc3565b9695505050505050565b60006101408201905060018060a01b0380845116835280602085015116602084015280604085015116604084015260608401516060840152608084015160808401528060a08501511660a08401525060c083015161258960c0840182613fc3565b6020808252600290820152614e4160f01b604082015260600190565b600061453761367484613ae4565b905082815283838301111561454b57600080fd5b612f57836020830184613da1565b6000602080838503121561456c57600080fd5b82516001600160401b038082111561458357600080fd5b818501915085601f83011261459757600080fd5b81516145a561367482613630565b81815260059190911b830184019084810190888311156145c457600080fd5b8585015b83811015614611578051858111156145e05760008081fd5b8601603f81018b136145f25760008081fd5b6146038b8983015160408401614529565b8452509186019186016145c8565b5098975050505050505050565b6020815260018060a01b03825116602082015260208201516040820152600060408301516001811061465257614652614157565b80606084015250606083015161466b6080840182613594565b50608083015160e060a0840152614686610100840182613df9565b905060a084015161469a60c0850182613594565b5060c084015160e08401528091505092915050565b634e487b7160e01b600052603260045260246000fd5b6000808335601e198436030181126146dc57600080fd5b8301803591506001600160401b038211156146f657600080fd5b60200191503681900382131561470b57600080fd5b9250929050565b8183823760009101908152919050565b60006020828403121561473457600080fd5b81516001600160401b0381111561474a57600080fd5b8201601f8101841361475b57600080fd5b61313f84825160208401614529565b602081526000612f576020830184613dcd565b60006001820161478f5761478f6140ec565b5060010190565b600082516147a8818460208701613da1565b9190910192915050565b6000610160820190506147c6828451613594565b60208301516147d86020840182613594565b5060408301516147ef604084018262ffffff169052565b506060830151614804606084018260020b9052565b506080830151614819608084018260020b9052565b5060a083015160a083015260c083015160c083015260e083015160e08301526101008084015181840152506101208084015161485782850182613594565b505061014092830151919092015290565b6000806000806080858703121561487e57600080fd5b845160208601519094506001600160801b038116811461489d57600080fd5b6040860151606090960151949790965092505050565b6000610180820190506148c7828451613594565b60208301516148d96020840182613594565b5060408301516148ec6040840182613594565b506060830151614903606084018262ffffff169052565b506080830151614918608084018260020b9052565b5060a083015161492d60a084018260020b9052565b5060c083015160c083015260e083015160e08301526101008084015181840152506101208084015181840152506101408084015161496d82850182613594565b505061016092830151919092015290565b81516001600160a01b039081168252602080840151909116908201526040808301516101208301916149b290840182613594565b50606083015160608301526080830151608083015260a083015160a083015260c083015160c083015260e08301516149ed60e0840182613594565b5061010092830151919092015290565b60006020808385031215614a1057600080fd5b82516001600160401b03811115614a2657600080fd5b8301601f81018513614a3757600080fd5b8051614a4561367482613630565b81815260059190911b82018301908381019087831115614a6457600080fd5b928401925b8284101561326d578351614a7c816133cc565b82529284019290840190614a6956fea2646970667358221220f861fc1cb1d82cced12054b7bf20ebd0e344a9a815bb732b417a5a02da93306564736f6c634300080f0033",
  "linkReferences": {},
  "deployedLinkReferences": {}
}