{
  "_format": "hh-sol-artifact-1",
  "contractName": "CErc20",
  "sourceName": "contracts/CErc20.sol",
  "abi": [
    {
      "inputs": [],
      "payable": false,
      "stateMutability": "nonpayable",
      "type": "constructor"
    },
    {
      "anonymous": false,
      "inputs": [
        {
          "indexed": false,
          "internalType": "uint256",
          "name": "cashPrior",
          "type": "uint256"
        },
        {
          "indexed": false,
          "internalType": "uint256",
          "name": "interestAccumulated",
          "type": "uint256"
        },
        {
          "indexed": false,
          "internalType": "uint256",
          "name": "borrowIndex",
          "type": "uint256"
        },
        {
          "indexed": false,
          "internalType": "uint256",
          "name": "totalBorrows",
          "type": "uint256"
        }
      ],
      "name": "AccrueInterest",
      "type": "event"
    },
    {
      "anonymous": false,
      "inputs": [
        {
          "indexed": true,
          "internalType": "address",
          "name": "owner",
          "type": "address"
        },
        {
          "indexed": true,
          "internalType": "address",
          "name": "spender",
          "type": "address"
        },
        {
          "indexed": false,
          "internalType": "uint256",
          "name": "amount",
          "type": "uint256"
        }
      ],
      "name": "Approval",
      "type": "event"
    },
    {
      "anonymous": false,
      "inputs": [
        {
          "indexed": false,
          "internalType": "address",
          "name": "borrower",
          "type": "address"
        },
        {
          "indexed": false,
          "internalType": "uint256",
          "name": "borrowAmount",
          "type": "uint256"
        },
        {
          "indexed": false,
          "internalType": "uint256",
          "name": "accountBorrows",
          "type": "uint256"
        },
        {
          "indexed": false,
          "internalType": "uint256",
          "name": "totalBorrows",
          "type": "uint256"
        }
      ],
      "name": "Borrow",
      "type": "event"
    },
    {
      "anonymous": false,
      "inputs": [
        {
          "indexed": false,
          "internalType": "uint256",
          "name": "error",
          "type": "uint256"
        },
        {
          "indexed": false,
          "internalType": "uint256",
          "name": "info",
          "type": "uint256"
        },
        {
          "indexed": false,
          "internalType": "uint256",
          "name": "detail",
          "type": "uint256"
        }
      ],
      "name": "Failure",
      "type": "event"
    },
    {
      "anonymous": false,
      "inputs": [
        {
          "indexed": false,
          "internalType": "address",
          "name": "liquidator",
          "type": "address"
        },
        {
          "indexed": false,
          "internalType": "address",
          "name": "borrower",
          "type": "address"
        },
        {
          "indexed": false,
          "internalType": "uint256",
          "name": "repayAmount",
          "type": "uint256"
        },
        {
          "indexed": false,
          "internalType": "address",
          "name": "cTokenCollateral",
          "type": "address"
        },
        {
          "indexed": false,
          "internalType": "uint256",
          "name": "seizeTokens",
          "type": "uint256"
        }
      ],
      "name": "LiquidateBorrow",
      "type": "event"
    },
    {
      "anonymous": false,
      "inputs": [
        {
          "indexed": false,
          "internalType": "address",
          "name": "minter",
          "type": "address"
        },
        {
          "indexed": false,
          "internalType": "uint256",
          "name": "mintAmount",
          "type": "uint256"
        },
        {
          "indexed": false,
          "internalType": "uint256",
          "name": "mintTokens",
          "type": "uint256"
        }
      ],
      "name": "Mint",
      "type": "event"
    },
    {
      "anonymous": false,
      "inputs": [
        {
          "indexed": false,
          "internalType": "address",
          "name": "oldAdmin",
          "type": "address"
        },
        {
          "indexed": false,
          "internalType": "address",
          "name": "newAdmin",
          "type": "address"
        }
      ],
      "name": "NewAdmin",
      "type": "event"
    },
    {
      "anonymous": false,
      "inputs": [
        {
          "indexed": false,
          "internalType": "contract ComptrollerInterface",
          "name": "oldComptroller",
          "type": "address"
        },
        {
          "indexed": false,
          "internalType": "contract ComptrollerInterface",
          "name": "newComptroller",
          "type": "address"
        }
      ],
      "name": "NewComptroller",
      "type": "event"
    },
    {
      "anonymous": false,
      "inputs": [
        {
          "indexed": false,
          "internalType": "contract InterestRateModel",
          "name": "oldInterestRateModel",
          "type": "address"
        },
        {
          "indexed": false,
          "internalType": "contract InterestRateModel",
          "name": "newInterestRateModel",
          "type": "address"
        }
      ],
      "name": "NewMarketInterestRateModel",
      "type": "event"
    },
    {
      "anonymous": false,
      "inputs": [
        {
          "indexed": false,
          "internalType": "address",
          "name": "oldPendingAdmin",
          "type": "address"
        },
        {
          "indexed": false,
          "internalType": "address",
          "name": "newPendingAdmin",
          "type": "address"
        }
      ],
      "name": "NewPendingAdmin",
      "type": "event"
    },
    {
      "anonymous": false,
      "inputs": [
        {
          "indexed": false,
          "internalType": "uint256",
          "name": "oldReserveFactorMantissa",
          "type": "uint256"
        },
        {
          "indexed": false,
          "internalType": "uint256",
          "name": "newReserveFactorMantissa",
          "type": "uint256"
        }
      ],
      "name": "NewReserveFactor",
      "type": "event"
    },
    {
      "anonymous": false,
      "inputs": [
        {
          "indexed": false,
          "internalType": "address",
          "name": "redeemer",
          "type": "address"
        },
        {
          "indexed": false,
          "internalType": "uint256",
          "name": "redeemAmount",
          "type": "uint256"
        },
        {
          "indexed": false,
          "internalType": "uint256",
          "name": "redeemTokens",
          "type": "uint256"
        }
      ],
      "name": "Redeem",
      "type": "event"
    },
    {
      "anonymous": false,
      "inputs": [
        {
          "indexed": false,
          "internalType": "address",
          "name": "payer",
          "type": "address"
        },
        {
          "indexed": false,
          "internalType": "address",
          "name": "borrower",
          "type": "address"
        },
        {
          "indexed": false,
          "internalType": "uint256",
          "name": "repayAmount",
          "type": "uint256"
        },
        {
          "indexed": false,
          "internalType": "uint256",
          "name": "accountBorrows",
          "type": "uint256"
        },
        {
          "indexed": false,
          "internalType": "uint256",
          "name": "totalBorrows",
          "type": "uint256"
        }
      ],
      "name": "RepayBorrow",
      "type": "event"
    },
    {
      "anonymous": false,
      "inputs": [
        {
          "indexed": false,
          "internalType": "address",
          "name": "admin",
          "type": "address"
        },
        {
          "indexed": false,
          "internalType": "uint256",
          "name": "adminPart",
          "type": "uint256"
        },
        {
          "indexed": false,
          "internalType": "address",
          "name": "olaBank",
          "type": "address"
        },
        {
          "indexed": false,
          "internalType": "uint256",
          "name": "olaPart",
          "type": "uint256"
        },
        {
          "indexed": false,
          "internalType": "uint256",
          "name": "newTotalReserves",
          "type": "uint256"
        }
      ],
      "name": "ReservesReduced",
      "type": "event"
    },
    {
      "anonymous": false,
      "inputs": [
        {
          "indexed": true,
          "internalType": "address",
          "name": "from",
          "type": "address"
        },
        {
          "indexed": true,
          "internalType": "address",
          "name": "to",
          "type": "address"
        },
        {
          "indexed": false,
          "internalType": "uint256",
          "name": "amount",
          "type": "uint256"
        }
      ],
      "name": "Transfer",
      "type": "event"
    },
    {
      "constant": false,
      "inputs": [],
      "name": "_acceptAdmin",
      "outputs": [
        {
          "internalType": "uint256",
          "name": "",
          "type": "uint256"
        }
      ],
      "payable": false,
      "stateMutability": "nonpayable",
      "type": "function"
    },
    {
      "constant": false,
      "inputs": [
        {
          "internalType": "bytes",
          "name": "data",
          "type": "bytes"
        }
      ],
      "name": "_becomeImplementation",
      "outputs": [],
      "payable": false,
      "stateMutability": "nonpayable",
      "type": "function"
    },
    {
      "constant": false,
      "inputs": [
        {
          "internalType": "uint256",
          "name": "reduceAmount",
          "type": "uint256"
        }
      ],
      "name": "_reduceReserves",
      "outputs": [
        {
          "internalType": "uint256",
          "name": "",
          "type": "uint256"
        }
      ],
      "payable": false,
      "stateMutability": "nonpayable",
      "type": "function"
    },
    {
      "constant": false,
      "inputs": [],
      "name": "_resignImplementation",
      "outputs": [],
      "payable": false,
      "stateMutability": "nonpayable",
      "type": "function"
    },
    {
      "constant": false,
      "inputs": [
        {
          "internalType": "contract InterestRateModel",
          "name": "newInterestRateModel",
          "type": "address"
        }
      ],
      "name": "_setInterestRateModel",
      "outputs": [
        {
          "internalType": "uint256",
          "name": "",
          "type": "uint256"
        }
      ],
      "payable": false,
      "stateMutability": "nonpayable",
      "type": "function"
    },
    {
      "constant": false,
      "inputs": [
        {
          "internalType": "address payable",
          "name": "newPendingAdmin",
          "type": "address"
        }
      ],
      "name": "_setPendingAdmin",
      "outputs": [
        {
          "internalType": "uint256",
          "name": "",
          "type": "uint256"
        }
      ],
      "payable": false,
      "stateMutability": "nonpayable",
      "type": "function"
    },
    {
      "constant": false,
      "inputs": [
        {
          "internalType": "uint256",
          "name": "newReserveFactorMantissa",
          "type": "uint256"
        }
      ],
      "name": "_setReserveFactor",
      "outputs": [
        {
          "internalType": "uint256",
          "name": "",
          "type": "uint256"
        }
      ],
      "payable": false,
      "stateMutability": "nonpayable",
      "type": "function"
    },
    {
      "constant": true,
      "inputs": [],
      "name": "accrualBlockNumber",
      "outputs": [
        {
          "internalType": "uint256",
          "name": "",
          "type": "uint256"
        }
      ],
      "payable": false,
      "stateMutability": "view",
      "type": "function"
    },
    {
      "constant": true,
      "inputs": [],
      "name": "accrualBlockTimestamp",
      "outputs": [
        {
          "internalType": "uint256",
          "name": "",
          "type": "uint256"
        }
      ],
      "payable": false,
      "stateMutability": "view",
      "type": "function"
    },
    {
      "constant": false,
      "inputs": [],
      "name": "accrueInterest",
      "outputs": [
        {
          "internalType": "uint256",
          "name": "",
          "type": "uint256"
        }
      ],
      "payable": false,
      "stateMutability": "nonpayable",
      "type": "function"
    },
    {
      "constant": true,
      "inputs": [],
      "name": "admin",
      "outputs": [
        {
          "internalType": "address payable",
          "name": "",
          "type": "address"
        }
      ],
      "payable": false,
      "stateMutability": "view",
      "type": "function"
    },
    {
      "constant": true,
      "inputs": [
        {
          "internalType": "address",
          "name": "owner",
          "type": "address"
        },
        {
          "internalType": "address",
          "name": "spender",
          "type": "address"
        }
      ],
      "name": "allowance",
      "outputs": [
        {
          "internalType": "uint256",
          "name": "",
          "type": "uint256"
        }
      ],
      "payable": false,
      "stateMutability": "view",
      "type": "function"
    },
    {
      "constant": false,
      "inputs": [
        {
          "internalType": "address",
          "name": "spender",
          "type": "address"
        },
        {
          "internalType": "uint256",
          "name": "amount",
          "type": "uint256"
        }
      ],
      "name": "approve",
      "outputs": [
        {
          "internalType": "bool",
          "name": "",
          "type": "bool"
        }
      ],
      "payable": false,
      "stateMutability": "nonpayable",
      "type": "function"
    },
    {
      "constant": true,
      "inputs": [
        {
          "internalType": "address",
          "name": "owner",
          "type": "address"
        }
      ],
      "name": "balanceOf",
      "outputs": [
        {
          "internalType": "uint256",
          "name": "",
          "type": "uint256"
        }
      ],
      "payable": false,
      "stateMutability": "view",
      "type": "function"
    },
    {
      "constant": false,
      "inputs": [
        {
          "internalType": "address",
          "name": "owner",
          "type": "address"
        }
      ],
      "name": "balanceOfUnderlying",
      "outputs": [
        {
          "internalType": "uint256",
          "name": "",
          "type": "uint256"
        }
      ],
      "payable": false,
      "stateMutability": "nonpayable",
      "type": "function"
    },
    {
      "constant": true,
      "inputs": [],
      "name": "blocksBased",
      "outputs": [
        {
          "internalType": "bool",
          "name": "",
          "type": "bool"
        }
      ],
      "payable": false,
      "stateMutability": "view",
      "type": "function"
    },
    {
      "constant": false,
      "inputs": [
        {
          "internalType": "uint256",
          "name": "borrowAmount",
          "type": "uint256"
        }
      ],
      "name": "borrow",
      "outputs": [
        {
          "internalType": "uint256",
          "name": "",
          "type": "uint256"
        }
      ],
      "payable": false,
      "stateMutability": "nonpayable",
      "type": "function"
    },
    {
      "constant": false,
      "inputs": [
        {
          "internalType": "address",
          "name": "account",
          "type": "address"
        }
      ],
      "name": "borrowBalanceCurrent",
      "outputs": [
        {
          "internalType": "uint256",
          "name": "",
          "type": "uint256"
        }
      ],
      "payable": false,
      "stateMutability": "nonpayable",
      "type": "function"
    },
    {
      "constant": true,
      "inputs": [
        {
          "internalType": "address",
          "name": "account",
          "type": "address"
        }
      ],
      "name": "borrowBalanceStored",
      "outputs": [
        {
          "internalType": "uint256",
          "name": "",
          "type": "uint256"
        }
      ],
      "payable": false,
      "stateMutability": "view",
      "type": "function"
    },
    {
      "constant": true,
      "inputs": [],
      "name": "borrowIndex",
      "outputs": [
        {
          "internalType": "uint256",
          "name": "",
          "type": "uint256"
        }
      ],
      "payable": false,
      "stateMutability": "view",
      "type": "function"
    },
    {
      "constant": true,
      "inputs": [],
      "name": "borrowRatePerBlock",
      "outputs": [
        {
          "internalType": "uint256",
          "name": "",
          "type": "uint256"
        }
      ],
      "payable": false,
      "stateMutability": "view",
      "type": "function"
    },
    {
      "constant": true,
      "inputs": [],
      "name": "comptroller",
      "outputs": [
        {
          "internalType": "contract ComptrollerInterface",
          "name": "",
          "type": "address"
        }
      ],
      "payable": false,
      "stateMutability": "view",
      "type": "function"
    },
    {
      "constant": true,
      "inputs": [],
      "name": "contractNameHash",
      "outputs": [
        {
          "internalType": "bytes32",
          "name": "",
          "type": "bytes32"
        }
      ],
      "payable": false,
      "stateMutability": "view",
      "type": "function"
    },
    {
      "constant": true,
      "inputs": [],
      "name": "decimals",
      "outputs": [
        {
          "internalType": "uint8",
          "name": "",
          "type": "uint8"
        }
      ],
      "payable": false,
      "stateMutability": "view",
      "type": "function"
    },
    {
      "constant": false,
      "inputs": [],
      "name": "exchangeRateCurrent",
      "outputs": [
        {
          "internalType": "uint256",
          "name": "",
          "type": "uint256"
        }
      ],
      "payable": false,
      "stateMutability": "nonpayable",
      "type": "function"
    },
    {
      "constant": true,
      "inputs": [],
      "name": "exchangeRateStored",
      "outputs": [
        {
          "internalType": "uint256",
          "name": "",
          "type": "uint256"
        }
      ],
      "payable": false,
      "stateMutability": "view",
      "type": "function"
    },
    {
      "constant": true,
      "inputs": [
        {
          "internalType": "address",
          "name": "account",
          "type": "address"
        }
      ],
      "name": "getAccountSnapshot",
      "outputs": [
        {
          "internalType": "uint256",
          "name": "",
          "type": "uint256"
        },
        {
          "internalType": "uint256",
          "name": "",
          "type": "uint256"
        },
        {
          "internalType": "uint256",
          "name": "",
          "type": "uint256"
        },
        {
          "internalType": "uint256",
          "name": "",
          "type": "uint256"
        }
      ],
      "payable": false,
      "stateMutability": "view",
      "type": "function"
    },
    {
      "constant": true,
      "inputs": [],
      "name": "getAccrualBlockNumber",
      "outputs": [
        {
          "internalType": "uint256",
          "name": "",
          "type": "uint256"
        }
      ],
      "payable": false,
      "stateMutability": "view",
      "type": "function"
    },
    {
      "constant": true,
      "inputs": [],
      "name": "getCash",
      "outputs": [
        {
          "internalType": "uint256",
          "name": "",
          "type": "uint256"
        }
      ],
      "payable": false,
      "stateMutability": "view",
      "type": "function"
    },
    {
      "constant": true,
      "inputs": [],
      "name": "implementation",
      "outputs": [
        {
          "internalType": "address",
          "name": "",
          "type": "address"
        }
      ],
      "payable": false,
      "stateMutability": "view",
      "type": "function"
    },
    {
      "constant": false,
      "inputs": [
        {
          "internalType": "address",
          "name": "underlying_",
          "type": "address"
        },
        {
          "internalType": "contract ComptrollerInterface",
          "name": "comptroller_",
          "type": "address"
        },
        {
          "internalType": "contract InterestRateModel",
          "name": "interestRateModel_",
          "type": "address"
        },
        {
          "internalType": "uint256",
          "name": "initialExchangeRateMantissa_",
          "type": "uint256"
        },
        {
          "internalType": "string",
          "name": "name_",
          "type": "string"
        },
        {
          "internalType": "string",
          "name": "symbol_",
          "type": "string"
        },
        {
          "internalType": "uint8",
          "name": "decimals_",
          "type": "uint8"
        }
      ],
      "name": "initialize",
      "outputs": [],
      "payable": false,
      "stateMutability": "nonpayable",
      "type": "function"
    },
    {
      "constant": false,
      "inputs": [
        {
          "internalType": "contract ComptrollerInterface",
          "name": "comptroller_",
          "type": "address"
        },
        {
          "internalType": "contract InterestRateModel",
          "name": "interestRateModel_",
          "type": "address"
        },
        {
          "internalType": "uint256",
          "name": "initialExchangeRateMantissa_",
          "type": "uint256"
        },
        {
          "internalType": "string",
          "name": "name_",
          "type": "string"
        },
        {
          "internalType": "string",
          "name": "symbol_",
          "type": "string"
        },
        {
          "internalType": "uint8",
          "name": "decimals_",
          "type": "uint8"
        }
      ],
      "name": "initialize",
      "outputs": [],
      "payable": false,
      "stateMutability": "nonpayable",
      "type": "function"
    },
    {
      "constant": true,
      "inputs": [],
      "name": "interestRateModel",
      "outputs": [
        {
          "internalType": "contract InterestRateModel",
          "name": "",
          "type": "address"
        }
      ],
      "payable": false,
      "stateMutability": "view",
      "type": "function"
    },
    {
      "constant": true,
      "inputs": [],
      "name": "isCToken",
      "outputs": [
        {
          "internalType": "bool",
          "name": "",
          "type": "bool"
        }
      ],
      "payable": false,
      "stateMutability": "view",
      "type": "function"
    },
    {
      "constant": false,
      "inputs": [
        {
          "internalType": "address",
          "name": "borrower",
          "type": "address"
        },
        {
          "internalType": "uint256",
          "name": "repayAmount",
          "type": "uint256"
        },
        {
          "internalType": "contract CTokenInterface",
          "name": "cTokenCollateral",
          "type": "address"
        }
      ],
      "name": "liquidateBorrow",
      "outputs": [
        {
          "internalType": "uint256",
          "name": "",
          "type": "uint256"
        }
      ],
      "payable": false,
      "stateMutability": "nonpayable",
      "type": "function"
    },
    {
      "constant": false,
      "inputs": [
        {
          "internalType": "uint256",
          "name": "mintAmount",
          "type": "uint256"
        }
      ],
      "name": "mint",
      "outputs": [
        {
          "internalType": "uint256",
          "name": "",
          "type": "uint256"
        }
      ],
      "payable": false,
      "stateMutability": "nonpayable",
      "type": "function"
    },
    {
      "constant": true,
      "inputs": [],
      "name": "name",
      "outputs": [
        {
          "internalType": "string",
          "name": "",
          "type": "string"
        }
      ],
      "payable": false,
      "stateMutability": "view",
      "type": "function"
    },
    {
      "constant": true,
      "inputs": [],
      "name": "nativeCoinUnderlying",
      "outputs": [
        {
          "internalType": "address",
          "name": "",
          "type": "address"
        }
      ],
      "payable": false,
      "stateMutability": "view",
      "type": "function"
    },
    {
      "constant": true,
      "inputs": [],
      "name": "olaReserveFactorMantissa",
      "outputs": [
        {
          "internalType": "uint256",
          "name": "",
          "type": "uint256"
        }
      ],
      "payable": false,
      "stateMutability": "view",
      "type": "function"
    },
    {
      "constant": true,
      "inputs": [],
      "name": "pendingAdmin",
      "outputs": [
        {
          "internalType": "address payable",
          "name": "",
          "type": "address"
        }
      ],
      "payable": false,
      "stateMutability": "view",
      "type": "function"
    },
    {
      "constant": false,
      "inputs": [
        {
          "internalType": "uint256",
          "name": "redeemTokens",
          "type": "uint256"
        }
      ],
      "name": "redeem",
      "outputs": [
        {
          "internalType": "uint256",
          "name": "",
          "type": "uint256"
        }
      ],
      "payable": false,
      "stateMutability": "nonpayable",
      "type": "function"
    },
    {
      "constant": false,
      "inputs": [
        {
          "internalType": "uint256",
          "name": "redeemAmount",
          "type": "uint256"
        }
      ],
      "name": "redeemUnderlying",
      "outputs": [
        {
          "internalType": "uint256",
          "name": "",
          "type": "uint256"
        }
      ],
      "payable": false,
      "stateMutability": "nonpayable",
      "type": "function"
    },
    {
      "constant": false,
      "inputs": [
        {
          "internalType": "uint256",
          "name": "repayAmount",
          "type": "uint256"
        }
      ],
      "name": "repayBorrow",
      "outputs": [
        {
          "internalType": "uint256",
          "name": "",
          "type": "uint256"
        }
      ],
      "payable": false,
      "stateMutability": "nonpayable",
      "type": "function"
    },
    {
      "constant": false,
      "inputs": [
        {
          "internalType": "address",
          "name": "borrower",
          "type": "address"
        },
        {
          "internalType": "uint256",
          "name": "repayAmount",
          "type": "uint256"
        }
      ],
      "name": "repayBorrowBehalf",
      "outputs": [
        {
          "internalType": "uint256",
          "name": "",
          "type": "uint256"
        }
      ],
      "payable": false,
      "stateMutability": "nonpayable",
      "type": "function"
    },
    {
      "constant": true,
      "inputs": [],
      "name": "reserveFactorMantissa",
      "outputs": [
        {
          "internalType": "uint256",
          "name": "",
          "type": "uint256"
        }
      ],
      "payable": false,
      "stateMutability": "view",
      "type": "function"
    },
    {
      "constant": false,
      "inputs": [
        {
          "internalType": "address",
          "name": "liquidator",
          "type": "address"
        },
        {
          "internalType": "address",
          "name": "borrower",
          "type": "address"
        },
        {
          "internalType": "uint256",
          "name": "seizeTokens",
          "type": "uint256"
        }
      ],
      "name": "seize",
      "outputs": [
        {
          "internalType": "uint256",
          "name": "",
          "type": "uint256"
        }
      ],
      "payable": false,
      "stateMutability": "nonpayable",
      "type": "function"
    },
    {
      "constant": true,
      "inputs": [],
      "name": "supplyRatePerBlock",
      "outputs": [
        {
          "internalType": "uint256",
          "name": "",
          "type": "uint256"
        }
      ],
      "payable": false,
      "stateMutability": "view",
      "type": "function"
    },
    {
      "constant": false,
      "inputs": [
        {
          "internalType": "contract EIP20NonStandardInterface",
          "name": "token",
          "type": "address"
        }
      ],
      "name": "sweepToken",
      "outputs": [],
      "payable": false,
      "stateMutability": "nonpayable",
      "type": "function"
    },
    {
      "constant": true,
      "inputs": [],
      "name": "symbol",
      "outputs": [
        {
          "internalType": "string",
          "name": "",
          "type": "string"
        }
      ],
      "payable": false,
      "stateMutability": "view",
      "type": "function"
    },
    {
      "constant": true,
      "inputs": [],
      "name": "totalBorrows",
      "outputs": [
        {
          "internalType": "uint256",
          "name": "",
          "type": "uint256"
        }
      ],
      "payable": false,
      "stateMutability": "view",
      "type": "function"
    },
    {
      "constant": false,
      "inputs": [],
      "name": "totalBorrowsCurrent",
      "outputs": [
        {
          "internalType": "uint256",
          "name": "",
          "type": "uint256"
        }
      ],
      "payable": false,
      "stateMutability": "nonpayable",
      "type": "function"
    },
    {
      "constant": true,
      "inputs": [],
      "name": "totalReserves",
      "outputs": [
        {
          "internalType": "uint256",
          "name": "",
          "type": "uint256"
        }
      ],
      "payable": false,
      "stateMutability": "view",
      "type": "function"
    },
    {
      "constant": true,
      "inputs": [],
      "name": "totalSupply",
      "outputs": [
        {
          "internalType": "uint256",
          "name": "",
          "type": "uint256"
        }
      ],
      "payable": false,
      "stateMutability": "view",
      "type": "function"
    },
    {
      "constant": false,
      "inputs": [
        {
          "internalType": "address",
          "name": "dst",
          "type": "address"
        },
        {
          "internalType": "uint256",
          "name": "amount",
          "type": "uint256"
        }
      ],
      "name": "transfer",
      "outputs": [
        {
          "internalType": "bool",
          "name": "",
          "type": "bool"
        }
      ],
      "payable": false,
      "stateMutability": "nonpayable",
      "type": "function"
    },
    {
      "constant": false,
      "inputs": [
        {
          "internalType": "address",
          "name": "src",
          "type": "address"
        },
        {
          "internalType": "address",
          "name": "dst",
          "type": "address"
        },
        {
          "internalType": "uint256",
          "name": "amount",
          "type": "uint256"
        }
      ],
      "name": "transferFrom",
      "outputs": [
        {
          "internalType": "bool",
          "name": "",
          "type": "bool"
        }
      ],
      "payable": false,
      "stateMutability": "nonpayable",
      "type": "function"
    },
    {
      "constant": true,
      "inputs": [],
      "name": "underlying",
      "outputs": [
        {
          "internalType": "address",
          "name": "",
          "type": "address"
        }
      ],
      "payable": false,
      "stateMutability": "view",
      "type": "function"
    }
  ],
  "bytecode": "",
  "deployedBytecode": "608060405234801561001057600080fd5b506152a0806100206000396000f3fe608060405234801561001057600080fd5b50600436106103785760003560e01c8063852a12e3116101d3578063bd6d894d11610104578063f2b3abbd116100a2578063f851a4401161007c578063f851a44014610bcc578063f8f9da2814610bd4578063fca7820b14610bdc578063fe9c44ae14610bf957610378565b8063f2b3abbd14610b68578063f3fdb15a14610b8e578063f5e3c46214610b9657610378565b8063cfa99201116100de578063cfa9920114610b0d578063db006a7514610b15578063dd62ed3e14610b32578063e9c714f214610b6057610378565b8063bd6d894d14610a9c578063c37f68e214610aa4578063c5ebeaec14610af057610378565b8063a6afed9511610171578063ae9d70b01161014b578063ae9d70b014610a30578063b2a02ff114610a38578063b71d1a0c14610a6e578063b9ab55eb14610a9457610378565b8063a6afed95146109f4578063a9059cbb146109fc578063aa5af0fd14610a2857610378565b806395dd9193116101ad57806395dd91931461085b578063991754d21461088157806399d8c1b414610889578063a0712d68146109d757610378565b8063852a12e31461082e5780638f840ddd1461084b57806395d89b411461085357610378565b8063313ce567116102ad5780635fe3b5671161024b5780636f307dc3116102255780636f307dc3146107f057806370a08231146107f8578063721db5b11461081e57806373acee981461082657610378565b80635fe3b567146107c3578063601a0bf1146107cb5780636c540baf146107e857610378565b8063469ab1e311610287578063469ab1e31461070757806347bd37181461070f57806356e67728146107175780635c60da1b146107bb57610378565b8063313ce567146106bb5780633af9e669146106d95780633b1d21a2146106ff57610378565b8063182df0f51161031a57806323b872dd116102f457806323b872dd1461062d5780632608f81814610663578063267822471461068f5780632f703498146106b357610378565b8063182df0f5146104a95780631a31d465146104b15780631be195601461060757610378565b8063153ab50511610356578063153ab50514610469578063173b99041461047357806317bfdfbc1461047b57806318160ddd146104a157610378565b806306fdde031461037d578063095ea7b3146103fa5780630e7527021461043a575b600080fd5b610385610c01565b6040805160208082528351818301528351919283929083019185019080838360005b838110156103bf5781810151838201526020016103a7565b50505050905090810190601f1680156103ec5780820380516001836020036101000a031916815260200191505b509250505060405180910390f35b6104266004803603604081101561041057600080fd5b506001600160a01b038135169060200135610c8f565b604080519115158252519081900360200190f35b6104576004803603602081101561045057600080fd5b5035610cfc565b60408051918252519081900360200190f35b610471610d12565b005b610457610d5d565b6104576004803603602081101561049157600080fd5b50356001600160a01b0316610d63565b610457610ddf565b610457610de5565b610471600480360360e08110156104c757600080fd5b6001600160a01b03823581169260208101358216926040820135909216916060820135919081019060a081016080820135600160201b81111561050957600080fd5b82018360208201111561051b57600080fd5b803590602001918460018302840111600160201b8311171561053c57600080fd5b91908080601f0160208091040260200160405190810160405280939291908181526020018383808284376000920191909152509295949360208101935035915050600160201b81111561058e57600080fd5b8201836020820111156105a057600080fd5b803590602001918460018302840111600160201b831117156105c157600080fd5b91908080601f0160208091040260200160405190810160405280939291908181526020018383808284376000920191909152509295505050903560ff169150610e489050565b6104716004803603602081101561061d57600080fd5b50356001600160a01b0316610f00565b6104266004803603606081101561064357600080fd5b506001600160a01b03813581169160208101359091169060400135611099565b6104576004803603604081101561067957600080fd5b506001600160a01b0381351690602001356110c7565b6106976110dd565b604080516001600160a01b039092168252519081900360200190f35b6106976110ec565b6106c3611104565b6040805160ff9092168252519081900360200190f35b610457600480360360208110156106ef57600080fd5b50356001600160a01b031661110d565b6104576111c3565b6104576111d2565b6104576111d8565b6104716004803603602081101561072d57600080fd5b810190602081018135600160201b81111561074757600080fd5b82018360208201111561075957600080fd5b803590602001918460018302840111600160201b8311171561077a57600080fd5b91908080601f0160208091040260200160405190810160405280939291908181526020018383808284376000920191909152509295506111de945050505050565b61069761123f565b61069761124e565b610457600480360360208110156107e157600080fd5b503561125d565b6104576112ae565b6106976112b4565b6104576004803603602081101561080e57600080fd5b50356001600160a01b03166112c8565b6104576112e3565b6104576112ef565b6104576004803603602081101561084457600080fd5b5035611362565b61045761136d565b610385611373565b6104576004803603602081101561087157600080fd5b50356001600160a01b03166113ce565b610457611432565b610471600480360360c081101561089f57600080fd5b6001600160a01b03823581169260208101359091169160408201359190810190608081016060820135600160201b8111156108d957600080fd5b8201836020820111156108eb57600080fd5b803590602001918460018302840111600160201b8311171561090c57600080fd5b91908080601f0160208091040260200160405190810160405280939291908181526020018383808284376000920191909152509295949360208101935035915050600160201b81111561095e57600080fd5b82018360208201111561097057600080fd5b803590602001918460018302840111600160201b8311171561099157600080fd5b91908080601f0160208091040260200160405190810160405280939291908181526020018383808284376000920191909152509295505050903560ff1691506114389050565b610457600480360360208110156109ed57600080fd5b5035611723565b61045761172f565b61042660048036036040811015610a1257600080fd5b506001600160a01b038135169060200135611ac8565b610457611af5565b610457611afb565b61045760048036036060811015610a4e57600080fd5b506001600160a01b03813581169160208101359091169060400135611b9a565b61045760048036036020811015610a8457600080fd5b50356001600160a01b0316611bbe565b610426611c4c565b610457611c5c565b610aca60048036036020811015610aba57600080fd5b50356001600160a01b0316611cd0565b604080519485526020850193909352838301919091526060830152519081900360800190f35b61045760048036036020811015610b0657600080fd5b5035611d65565b610457611d70565b61045760048036036020811015610b2b57600080fd5b5035611d76565b61045760048036036040811015610b4857600080fd5b506001600160a01b0381358116916020013516611d81565b610457611dac565b61045760048036036020811015610b7e57600080fd5b50356001600160a01b0316611e9b565b610697611ed5565b61045760048036036060811015610bac57600080fd5b506001600160a01b03813581169160208101359160409091013516611ee4565b610697611efc565b610457611f0b565b61045760048036036020811015610bf257600080fd5b5035611f6f565b610426611fac565b6006805460408051602060026001851615610100026000190190941693909304601f81018490048402820184019092528181529291830182828015610c875780601f10610c5c57610100808354040283529160200191610c87565b820191906000526020600020905b815481529060010190602001808311610c6a57829003601f168201915b505050505081565b3360008181526013602090815260408083206001600160a01b03871680855290835281842086905581518681529151939493909284927f8c5be1e5ebec7d5bd14f71427d1e84f3dd0314c0f7b2291e5b200ac8c7c3b925929081900390910190a360019150505b92915050565b600080610d0883611fb1565b509150505b919050565b6002546001600160a01b03163314610d5b5760405162461bcd60e51b81526004018080602001828103825260338152602001806150146033913960400191505060405180910390fd5b565b600b5481565b600080610d6f81612014565b6000610d7961172f565b14610dc4576040805162461bcd60e51b81526020600482015260166024820152751858d8dc9d59481a5b9d195c995cdd0819985a5b195960521b604482015290519081900360640190fd5b610dcd836113ce565b91505b610dd9816120d3565b50919050565b60115481565b6000806000610df2612150565b90925090506000826003811115610e0557fe5b14610e415760405162461bcd60e51b81526004018080602001828103825260358152602001806151b76035913960400191505060405180910390fd5b9150505b90565b610e56868686868686611438565b86600860016101000a8154816001600160a01b0302191690836001600160a01b03160217905550600860019054906101000a90046001600160a01b03166001600160a01b03166318160ddd6040518163ffffffff1660e01b815260040160206040518083038186803b158015610ecb57600080fd5b505afa158015610edf573d6000803e3d6000fd5b505050506040513d6020811015610ef557600080fd5b505050505050505050565b6000546001600160a01b03163314610f5f576040805162461bcd60e51b815260206004820152601e60248201527f4345726332303a3a7377656570546f6b656e3a204f6e6c792061646d696e0000604482015290519081900360640190fd5b6008546001600160a01b03828116610100909204161415610fb15760405162461bcd60e51b8152600401808060200182810382526032815260200180614f756032913960400191505060405180910390fd5b604080516370a0823160e01b815230600482015290516000916001600160a01b038416916370a0823191602480820192602092909190829003018186803b158015610ffb57600080fd5b505afa15801561100f573d6000803e3d6000fd5b505050506040513d602081101561102557600080fd5b5051600080546040805163a9059cbb60e01b81526001600160a01b0392831660048201526024810185905290519394509085169263a9059cbb9260448084019391929182900301818387803b15801561107d57600080fd5b505af1158015611091573d6000803e3d6000fd5b505050505050565b6000806110a581612014565b60006110b3338787876121ff565b1491506110bf816120d3565b509392505050565b6000806110d4848461250d565b50949350505050565b6001546001600160a01b031681565b73eeeeeeeeeeeeeeeeeeeeeeeeeeeeeeeeeeeeeeee81565b60085460ff1681565b6000611117614dd9565b604051806020016040528061112a611c5c565b90526001600160a01b038416600090815260126020526040812054919250908190611156908490612572565b9092509050600082600381111561116957fe5b146111bb576040805162461bcd60e51b815260206004820152601f60248201527f62616c616e636520636f756c64206e6f742062652063616c63756c6174656400604482015290519081900360640190fd5b949350505050565b60006111cd6125c6565b905090565b60045481565b600f5481565b6000546001600160a01b031633148061120157506002546001600160a01b031633145b61123c5760405162461bcd60e51b815260040180806020018281038252603d815260200180614fd7603d913960400191505060405180910390fd5b50565b6003546001600160a01b031681565b6002546001600160a01b031681565b60008061126981612014565b600061127361172f565b905080156112995761129181601281111561128a57fe5b603061264b565b925050610dd0565b6112a2846126b1565b925050610dd9816120d3565b600c5481565b60085461010090046001600160a01b031681565b6001600160a01b031660009081526012602052604090205490565b6706f05b59d3b2000081565b6000806112fb81612014565b600061130561172f565b14611350576040805162461bcd60e51b81526020600482015260166024820152751858d8dc9d59481a5b9d195c995cdd0819985a5b195960521b604482015290519081900360640190fd5b600f54915061135e816120d3565b5090565b6000610cf682612896565b60105481565b6007805460408051602060026001851615610100026000190190941693909304601f81018490048402820184019092528181529291830182828015610c875780601f10610c5c57610100808354040283529160200191610c87565b60008060006113dc846128d6565b909250905060008260038111156113ef57fe5b1461142b5760405162461bcd60e51b81526004018080602001828103825260378152602001806150c26037913960400191505060405180910390fd5b9392505050565b600c5490565b6000546001600160a01b031633146114815760405162461bcd60e51b8152600401808060200182810382526024815260200180614f2e6024913960400191505060405180910390fd5b600c541580156114915750600e54155b6114cc5760405162461bcd60e51b8152600401808060200182810382526023815260200180614f526023913960400191505060405180910390fd5b600a8490558361150d5760405162461bcd60e51b8152600401808060200182810382526030815260200180614fa76030913960400191505060405180910390fd5b60006115188761298a565b9050801561156d576040805162461bcd60e51b815260206004820152601a60248201527f73657474696e6720636f6d7074726f6c6c6572206661696c6564000000000000604482015290519081900360640190fd5b611575612abd565b600c55611580612ac1565b600d55670de0b6b3a7640000600e5560025460408051635ab1bd5360e01b815290516000926001600160a01b031691635ab1bd53916004808301926020929190829003018186803b1580156115d457600080fd5b505afa1580156115e8573d6000803e3d6000fd5b505050506040513d60208110156115fe57600080fd5b50516040805163b9ab55eb60e01b815290519192506001600160a01b0383169163b9ab55eb91600480820192602092909190829003018186803b15801561164457600080fd5b505afa158015611658573d6000803e3d6000fd5b505050506040513d602081101561166e57600080fd5b505160088054911515600160a81b0260ff60a81b1990921691909117905561169587612ac5565b915081156116d45760405162461bcd60e51b81526004018080602001828103825260228152602001806150476022913960400191505060405180910390fd5b84516116e7906006906020880190614dec565b5083516116fb906007906020870190614dec565b50506008805460ff90931660ff19938416179055506005805490911660011790555050505050565b600080610d0883612d73565b60008061173a612abd565b600c54909150600061174a612ac1565b9050828214156117605760009350505050610e45565b6008546000908190600160a81b900460ff161561178b576117818585612db3565b909250905061179f565b600d546117988482612db3565b9093509150505b60008260038111156117ad57fe5b146117ff576040805162461bcd60e51b815260206004820152601960248201527f636f756c64206e6f742063616c63756c6174652064656c746100000000000000604482015290519081900360640190fd5b60006118096125c6565b600f54601054600e54600954604080516315f2405360e01b815260048101879052602481018690526044810185905290519596509394929391926000926001600160a01b03909216916315f24053916064808301926020929190829003018186803b15801561187757600080fd5b505afa15801561188b573d6000803e3d6000fd5b505050506040513d60208110156118a157600080fd5b5051905065048c27395000811115611900576040805162461bcd60e51b815260206004820152601c60248201527f626f72726f772072617465206973206162737572646c79206869676800000000604482015290519081900360640190fd5b611908614dd9565b6000806000806119266040518060200160405280888152508c612dd6565b909c50945060008c600381111561193957fe5b1461196c57611956600960068e600381111561195157fe5b612e3e565b9f50505050505050505050505050505050610e45565b611976858a612572565b909c50935060008c600381111561198957fe5b146119a157611956600960018e600381111561195157fe5b6119ab848a612ea4565b909c50925060008c60038111156119be57fe5b146119d657611956600960048e600381111561195157fe5b6119f16040518060200160405280600b54815250858a612eca565b909c50915060008c6003811115611a0457fe5b14611a1c57611956600960058e600381111561195157fe5b611a27858889612eca565b909c50905060008c6003811115611a3a57fe5b14611a5257611956600960038e600381111561195157fe5b600c8f9055600d8d9055600e819055600f8390556010829055604080518b8152602081018690528082018390526060810185905290517f4dec04e750ca11537cabcd8a9eab06494de08da3735bc8871cd41250e190bc049181900360800190a160009f5050505050505050505050505050505090565b600080611ad481612014565b6000611ae2333387876121ff565b149150611aee816120d3565b5092915050565b600e5481565b6009546000906001600160a01b031663b8168816611b176125c6565b600f54601054600b546040518563ffffffff1660e01b81526004018085815260200184815260200183815260200182815260200194505050505060206040518083038186803b158015611b6957600080fd5b505afa158015611b7d573d6000803e3d6000fd5b505050506040513d6020811015611b9357600080fd5b5051905090565b60006001611ba781612014565b611bb333868686612f26565b91506110bf816120d3565b600080546001600160a01b03163314611be457611bdd6001604561264b565b9050610d0d565b600180546001600160a01b038481166001600160a01b0319831681179093556040805191909216808252602082019390935281517fca4f2f25d0898edd99413412fb94012f9e54ec8142f9b093e7720646a95b16a9929181900390910190a160009392505050565b600854600160a81b900460ff1681565b600080611c6881612014565b6000611c7261172f565b14611cbd576040805162461bcd60e51b81526020600482015260166024820152751858d8dc9d59481a5b9d195c995cdd0819985a5b195960521b604482015290519081900360640190fd5b611cc5610de5565b915061135e816120d3565b6001600160a01b038116600090815260126020526040812054819081908190818080611cfb896128d6565b935090506000816003811115611d0d57fe5b14611d2b5760095b975060009650869550859450611d5e9350505050565b611d33612150565b925090506000816003811115611d4557fe5b14611d51576009611d15565b5060009650919450925090505b9193509193565b6000610cf682613184565b600d5481565b6000610cf6826131c2565b6001600160a01b03918216600090815260136020908152604080832093909416825291909152205490565b6001546000906001600160a01b031633141580611dc7575033155b15611ddf57611dd86001600061264b565b9050610e45565b60008054600180546001600160a01b038082166001600160a01b031980861682179687905590921690925560408051938316808552949092166020840152815190927ff9ffabca9c8276e99321725bcb43fb076a6c66a54b7f21c4e8146d8519b417dc92908290030190a1600154604080516001600160a01b038085168252909216602083015280517fca4f2f25d0898edd99413412fb94012f9e54ec8142f9b093e7720646a95b16a99281900390910190a160009250505090565b600080611ea661172f565b90508015611ecc57611ec4816012811115611ebd57fe5b604061264b565b915050610d0d565b61142b83612ac5565b6009546001600160a01b031681565b600080611ef28585856131fb565b5095945050505050565b6000546001600160a01b031681565b6009546000906001600160a01b03166315f24053611f276125c6565b600f546010546040518463ffffffff1660e01b815260040180848152602001838152602001828152602001935050505060206040518083038186803b158015611b6957600080fd5b600080611f7b81612014565b6000611f8561172f565b90508015611fa357611291816012811115611f9c57fe5b604661264b565b6112a2846132e7565b600181565b6000806000611fbf81612014565b6000611fc961172f565b90508015611ff457611fe7816012811115611fe057fe5b603661264b565b9350600092506120059050565b611fff3333876133a3565b93509350505b61200e816120d3565b50915091565b60055460ff16612058576040805162461bcd60e51b815260206004820152600a6024820152691c994b595b9d195c995960b21b604482015290519081900360640190fd5b806120c657600260009054906101000a90046001600160a01b03166001600160a01b031663c90c20b16040518163ffffffff1660e01b8152600401600060405180830381600087803b1580156120ad57600080fd5b505af11580156120c1573d6000803e3d6000fd5b505050505b506005805460ff19169055565b6005805460ff191660011790558061123c57600260009054906101000a90046001600160a01b03166001600160a01b031663632e51426040518163ffffffff1660e01b8152600401600060405180830381600087803b15801561213557600080fd5b505af1158015612149573d6000803e3d6000fd5b5050505050565b60115460009081908061216b575050600a54600091506121fb565b60006121756125c6565b90506000612181614dd9565b600061219284600f546010546136f1565b9350905060008160038111156121a457fe5b146121b9579550600094506121fb9350505050565b6121c3838661372f565b9250905060008160038111156121d557fe5b146121ea579550600094506121fb9350505050565b50516000955093506121fb92505050565b9091565b600254604080516317b9b84b60e31b81523060048201526001600160a01b03868116602483015285811660448301526064820185905291516000938493169163bdcdc25891608480830192602092919082900301818787803b15801561226457600080fd5b505af1158015612278573d6000803e3d6000fd5b505050506040513d602081101561228e57600080fd5b5051905080156122ad576122a56003604a83612e3e565b9150506111bb565b836001600160a01b0316856001600160a01b031614156122d3576122a56002604b61264b565b60006001600160a01b0387811690871614156122f2575060001961231a565b506001600160a01b038086166000908152601360209081526040808320938a16835292905220545b60008060008061232a8589612db3565b9094509250600084600381111561233d57fe5b1461235b5761234e6009604b61264b565b96505050505050506111bb565b6001600160a01b038a1660009081526012602052604090205461237e9089612db3565b9094509150600084600381111561239157fe5b146123a25761234e6009604c61264b565b6001600160a01b0389166000908152601260205260409020546123c59089612ea4565b909450905060008460038111156123d857fe5b146123e95761234e6009604d61264b565b6001600160a01b03808b16600090815260126020526040808220859055918b168152208190556000198514612441576001600160a01b03808b166000908152601360209081526040808320938f168352929052208390555b886001600160a01b03168a6001600160a01b03166000805160206151338339815191528a6040518082815260200191505060405180910390a36002546040805163352b4a3f60e11b81523060048201526001600160a01b038d811660248301528c81166044830152606482018c905291519190921691636a56947e91608480830192600092919082900301818387803b1580156124dd57600080fd5b505af11580156124f1573d6000803e3d6000fd5b50600092506124fe915050565b9b9a5050505050505050505050565b600080600061251b81612014565b600061252561172f565b905080156125505761254381601281111561253c57fe5b603561264b565b9350600092506125619050565b61255b3387876133a3565b93509350505b61256a816120d3565b509250929050565b600080600061257f614dd9565b6125898686612dd6565b9092509050600082600381111561259c57fe5b146125ad57509150600090506125bf565b60006125b8826137df565b9350935050505b9250929050565b600854604080516370a0823160e01b8152306004820152905160009261010090046001600160a01b03169182916370a0823191602480820192602092909190829003018186803b15801561261957600080fd5b505afa15801561262d573d6000803e3d6000fd5b505050506040513d602081101561264357600080fd5b505191505090565b60007f45b96fe442630264581b197e84bbada861235052c5a1aadfff9ea4e40a969aa083601281111561267a57fe5b83605181111561268657fe5b604080519283526020830191909152600082820152519081900360600190a182601281111561142b57fe5b6000806126bc612abd565b600c54146126d057611ec4600a603361264b565b826126d96125c6565b10156126eb57611ec4600e603261264b565b60105483111561270157611ec46002603461264b565b60008060008061270f6137ee565b9050600061271b6137fa565b905060006127276138ad565b90506127416040518060200160405280858152508a612572565b9096509350600086600381111561275457fe5b1461277a5761276c6009605188600381111561195157fe5b975050505050505050610d0d565b88841061278d5761276c6011605161264b565b83890394508885106127d05760405162461bcd60e51b815260040180806020018281038252602e815260200180615094602e913960400191505060405180910390fd5b60105489810397508711156128165760405162461bcd60e51b81526004018080602001828103825260248152602001806152486024913960400191505060405180910390fd5b601087905561282581866138f2565b61282f82856138f2565b604080516001600160a01b03808416825260208201889052841681830152606081018690526080810189905290517fa7056bfd8d6d9638f6ed07cccc0e7a92f9358651489250d566702ef2d8272abd9181900360a00190a160009998505050505050505050565b6000806128a281612014565b60006128ac61172f565b905080156128ca576112918160128111156128c357fe5b602761264b565b6112a2336000866139ed565b6001600160a01b03811660009081526014602052604081208054829182918291829161290d57506000945084935061298592505050565b61291d8160000154600e54613ebd565b9094509250600084600381111561293057fe5b14612945575091935060009250612985915050565b612953838260010154613efc565b9094509150600084600381111561296657fe5b1461297b575091935060009250612985915050565b5060009450925050505b915091565b600080600260009054906101000a90046001600160a01b03169050826001600160a01b0316627e3dd26040518163ffffffff1660e01b815260040160206040518083038186803b1580156129dd57600080fd5b505afa1580156129f1573d6000803e3d6000fd5b505050506040513d6020811015612a0757600080fd5b5051612a5a576040805162461bcd60e51b815260206004820152601c60248201527f6d61726b6572206d6574686f642072657475726e65642066616c736500000000604482015290519081900360640190fd5b600280546001600160a01b0319166001600160a01b03858116918217909255604080519284168352602083019190915280517f7ac369dbd14fa5ea3f473ed67cc9d598964a77501540ba6751eb0b3decf5870d9281900390910190a1600061142b565b4390565b4290565b6000805481906001600160a01b03163314612ae657611ec46001604261264b565b612aee612abd565b600c5414612b0257611ec4600a604161264b565b60025460408051635ab1bd5360e01b815290516000926001600160a01b031691635ab1bd53916004808301926020929190829003018186803b158015612b4757600080fd5b505afa158015612b5b573d6000803e3d6000fd5b505050506040513d6020811015612b7157600080fd5b5051604080516307406b2760e11b81526001600160a01b038781166004830152915192935090831691630e80d64e916024808201926020929091908290030181600087803b158015612bc257600080fd5b505af1158015612bd6573d6000803e3d6000fd5b505050506040513d6020811015612bec57600080fd5b5051612c3f576040805162461bcd60e51b815260206004820152601e60248201527f556e617070726f76656420696e7465726573742072617465206d6f64656c0000604482015290519081900360640190fd5b600960009054906101000a90046001600160a01b03169150836001600160a01b0316632191f92a6040518163ffffffff1660e01b815260040160206040518083038186803b158015612c9057600080fd5b505afa158015612ca4573d6000803e3d6000fd5b505050506040513d6020811015612cba57600080fd5b5051612d0d576040805162461bcd60e51b815260206004820152601c60248201527f6d61726b6572206d6574686f642072657475726e65642066616c736500000000604482015290519081900360640190fd5b600980546001600160a01b0319166001600160a01b03868116918217909255604080519285168352602083019190915280517fedffc32e068c7c95dfd4bdfd5c4d939a084d6b11c4199eac8436ed234d72f9269281900390910190a16000949350505050565b6000806000612d8181612014565b6000612d8b61172f565b90508015612da957611fe7816012811115612da257fe5b601e61264b565b611fff3386613f27565b600080838311612dca5750600090508183036125bf565b506003905060006125bf565b6000612de0614dd9565b600080612df1866000015186613ebd565b90925090506000826003811115612e0457fe5b14612e23575060408051602081019091526000815290925090506125bf565b60408051602081019091529081526000969095509350505050565b60007f45b96fe442630264581b197e84bbada861235052c5a1aadfff9ea4e40a969aa0846012811115612e6d57fe5b846051811115612e7957fe5b604080519283526020830191909152818101859052519081900360600190a18360128111156111bb57fe5b600080838301848110612ebc576000925090506125bf565b5060029150600090506125bf565b6000806000612ed7614dd9565b612ee18787612dd6565b90925090506000826003811115612ef457fe5b14612f055750915060009050612f1e565b612f17612f11826137df565b86612ea4565b9350935050505b935093915050565b6002546040805163d02f735160e01b81523060048201526001600160a01b038781166024830152868116604483015285811660648301526084820185905291516000938493169163d02f73519160a480830192602092919082900301818787803b158015612f9357600080fd5b505af1158015612fa7573d6000803e3d6000fd5b505050506040513d6020811015612fbd57600080fd5b505190508015612fd4576122a56003601b83612e3e565b846001600160a01b0316846001600160a01b03161415612ffa576122a56006601c61264b565b6001600160a01b038416600090815260126020526040812054819081906130219087612db3565b9093509150600083600381111561303457fe5b146130575761304c6009601a85600381111561195157fe5b9450505050506111bb565b6001600160a01b03881660009081526012602052604090205461307a9087612ea4565b9093509050600083600381111561308d57fe5b146130a55761304c6009601985600381111561195157fe5b6001600160a01b038088166000818152601260209081526040808320879055938c168083529184902085905583518a815293519193600080516020615133833981519152929081900390910190a36002546040805163352b4a3f60e11b81523060048201526001600160a01b038a811660248301528b81166044830152606482018a905291519190921691636a56947e91608480830192600092919082900301818387803b15801561315657600080fd5b505af115801561316a573d6000803e3d6000fd5b5060009250613177915050565b9998505050505050505050565b60008061319081612014565b600061319a61172f565b905080156131b8576112918160128111156131b157fe5b600861264b565b6112a23385614386565b6000806131ce81612014565b60006131d861172f565b905080156131ef576112918160128111156128c357fe5b6112a2338560006139ed565b600080600061320981612014565b600061321361172f565b9050801561323e5761323181601281111561322a57fe5b600f61264b565b9350600092506132d59050565b846001600160a01b031663a6afed956040518163ffffffff1660e01b8152600401602060405180830381600087803b15801561327957600080fd5b505af115801561328d573d6000803e3d6000fd5b505050506040513d60208110156132a357600080fd5b5051905080156132c3576132318160128111156132bc57fe5b601061264b565b6132cf33888888614622565b93509350505b6132de816120d3565b50935093915050565b600080546001600160a01b0316331461330657611bdd6001604761264b565b61330e612abd565b600c541461332257611bdd600a604861264b565b670429d069189e000082111561333e57611bdd6002604961264b565b66b1a2bc2ec5000082101561335957611bdd6002604961264b565b600b805490839055604080518281526020810185905281517faaa68312e2ea9d50e16af5068410ab56e1a1fd06037b1a35664812c30f821460929181900390910190a1600061142b565b60025460408051631200453160e11b81523060048201526001600160a01b0386811660248301528581166044830152606482018590529151600093849384939116916324008a629160848082019260209290919082900301818787803b15801561340c57600080fd5b505af1158015613420573d6000803e3d6000fd5b505050506040513d602081101561343657600080fd5b50519050801561345a5761344d6003603883612e3e565b925060009150612f1e9050565b613462612abd565b600c54146134765761344d600a603961264b565b61347e614e66565b6001600160a01b03861660009081526014602052604090206001015460608201526134a8866128d6565b60808301819052602083018260038111156134bf57fe5b60038111156134ca57fe5b90525060009050816020015160038111156134e157fe5b1461350b576134fd600960378360200151600381111561195157fe5b935060009250612f1e915050565b600019851415613524576080810151604082015261352c565b604081018590525b61353a878260400151614b14565b60e08201819052608082015161354f91612db3565b60a083018190526020830182600381111561356657fe5b600381111561357157fe5b905250600090508160200151600381111561358857fe5b146135c45760405162461bcd60e51b815260040180806020018281038252603a8152602001806150f9603a913960400191505060405180910390fd5b6135d4600f548260e00151612db3565b60c08301819052602083018260038111156135eb57fe5b60038111156135f657fe5b905250600090508160200151600381111561360d57fe5b146136495760405162461bcd60e51b81526004018080602001828103825260318152602001806151536031913960400191505060405180910390fd5b60a080820180516001600160a01b03808a16600081815260146020908152604091829020948555600e5460019095019490945560c0870151600f81905560e088015195518251948f16855294840192909252828101949094526060820192909252608081019190915290517f1a2a22cb034d26d1854bdc6666a5b91fe25efbbb5dcad3b0355478d6f5c362a1929181900390910190a160e00151600097909650945050505050565b6000806000806137018787612ea4565b9092509050600082600381111561371457fe5b146137255750915060009050612f1e565b612f178186612db3565b6000613739614dd9565b60008061374e86670de0b6b3a7640000613ebd565b9092509050600082600381111561376157fe5b14613780575060408051602081019091526000815290925090506125bf565b60008061378d8388613efc565b909250905060008260038111156137a057fe5b146137c2575060408051602081019091526000815290945092506125bf915050565b604080516020810190915290815260009890975095505050505050565b51670de0b6b3a7640000900490565b6706f05b59d3b2000090565b60025460408051635ab1bd5360e01b815290516000926001600160a01b031691635ab1bd53916004808301926020929190829003018186803b15801561383f57600080fd5b505afa158015613853573d6000803e3d6000fd5b505050506040513d602081101561386957600080fd5b505160408051635955498f60e11b815290516001600160a01b039092169163b2aa931e91600480820192602092909190829003018186803b158015611b6957600080fd5b60025460408051635d8d628160e01b815290516000926001600160a01b031691635d8d6281916004808301926020929190829003018186803b158015611b6957600080fd5b6008546040805163a9059cbb60e01b81526001600160a01b03858116600483015260248201859052915161010090930490911691829163a9059cbb91604480830192600092919082900301818387803b15801561394e57600080fd5b505af1158015613962573d6000803e3d6000fd5b5050505060003d6000811461397e576020811461398857600080fd5b6000199150613994565b60206000803e60005191505b50806139e7576040805162461bcd60e51b815260206004820152601960248201527f544f4b454e5f5452414e534645525f4f55545f4641494c454400000000000000604482015290519081900360640190fd5b50505050565b60008215806139fa575081155b613a355760405162461bcd60e51b81526004018080602001828103825260348152602001806152146034913960400191505060405180910390fd5b613a3d614eac565b613a45612150565b6040830181905260208301826003811115613a5c57fe5b6003811115613a6757fe5b9052506000905081602001516003811115613a7e57fe5b14613aa257613a9a6009602b8360200151600381111561195157fe5b91505061142b565b8315613b23576060810184905260408051602081018252908201518152613ac99085612572565b6080830181905260208301826003811115613ae057fe5b6003811115613aeb57fe5b9052506000905081602001516003811115613b0257fe5b14613b1e57613a9a600960298360200151600381111561195157fe5b613b9c565b613b3f8360405180602001604052808460400151815250614d68565b6060830181905260208301826003811115613b5657fe5b6003811115613b6157fe5b9052506000905081602001516003811115613b7857fe5b14613b9457613a9a6009602a8360200151600381111561195157fe5b608081018390525b60025460608201516040805163eabe7d9160e01b81523060048201526001600160a01b03898116602483015260448201939093529051600093929092169163eabe7d919160648082019260209290919082900301818787803b158015613c0157600080fd5b505af1158015613c15573d6000803e3d6000fd5b505050506040513d6020811015613c2b57600080fd5b505190508015613c4b57613c426003602883612e3e565b9250505061142b565b613c53612abd565b600c5414613c6757613c42600a602c61264b565b613c776011548360600151612db3565b60a0840181905260208401826003811115613c8e57fe5b6003811115613c9957fe5b9052506000905082602001516003811115613cb057fe5b14613ccc57613c426009602e8460200151600381111561195157fe5b6001600160a01b0386166000908152601260205260409020546060830151613cf49190612db3565b60c0840181905260208401826003811115613d0b57fe5b6003811115613d1657fe5b9052506000905082602001516003811115613d2d57fe5b14613d4957613c426009602d8460200151600381111561195157fe5b8160800151613d566125c6565b1015613d6857613c42600e602f61264b565b60a082015160115560c08201516001600160a01b0387166000908152601260205260409020556080820151613d9e9087906138f2565b6060820151604080519182525130916001600160a01b038916916000805160206151338339815191529181900360200190a36080820151606080840151604080516001600160a01b038b168152602081019490945283810191909152517fe5b754fb1abb7f01b499791d0b820ae3b6af3424ac1c59768edb53f4ec31a9299281900390910190a160025460808301516060840151604080516351dff98960e01b81523060048201526001600160a01b038b81166024830152604482019490945260648101929092525191909216916351dff98991608480830192600092919082900301818387803b158015613e9257600080fd5b505af1158015613ea6573d6000803e3d6000fd5b5060009250613eb3915050565b9695505050505050565b60008083613ed0575060009050806125bf565b83830283858281613edd57fe5b0414613ef1575060029150600090506125bf565b6000925090506125bf565b60008082613f1057506001905060006125bf565b6000838581613f1b57fe5b04915091509250929050565b60025460408051634ef4c3e160e01b81523060048201526001600160a01b03858116602483015260448201859052915160009384938493911691634ef4c3e19160648082019260209290919082900301818787803b158015613f8857600080fd5b505af1158015613f9c573d6000803e3d6000fd5b505050506040513d6020811015613fb257600080fd5b505190508015613fd657613fc96003601f83612e3e565b9250600091506125bf9050565b613fde612abd565b600c5414613ff257613fc9600a602261264b565b613ffa614eac565b614002612150565b604083018190526020830182600381111561401957fe5b600381111561402457fe5b905250600090508160200151600381111561403b57fe5b1461406557614057600960218360200151600381111561195157fe5b9350600092506125bf915050565b61406f8686614b14565b60c08201819052604080516020810182529083015181526140909190614d68565b60608301819052602083018260038111156140a757fe5b60038111156140b257fe5b90525060009050816020015160038111156140c957fe5b1461411b576040805162461bcd60e51b815260206004820181905260248201527f4d494e545f45584348414e47455f43414c43554c4154494f4e5f4641494c4544604482015290519081900360640190fd5b61412b6011548260600151612ea4565b608083018190526020830182600381111561414257fe5b600381111561414d57fe5b905250600090508160200151600381111561416457fe5b146141a05760405162461bcd60e51b81526004018080602001828103825260288152602001806151ec6028913960400191505060405180910390fd5b6001600160a01b03861660009081526012602052604090205460608201516141c89190612ea4565b60a08301819052602083018260038111156141df57fe5b60038111156141ea57fe5b905250600090508160200151600381111561420157fe5b1461423d5760405162461bcd60e51b815260040180806020018281038252602b815260200180615069602b913960400191505060405180910390fd5b608081015160115560a08101516001600160a01b0387166000818152601260209081526040918290209390935560c084015160608086015183519485529484019190915282820193909352517f4c209b5fc8ad50758f13e2e1088ba56a560dff690a1c6fef26394f4c03821c4f929181900390910190a1606081015160408051918252516001600160a01b0388169130916000805160206151338339815191529181900360200190a360025460c08201516060830151604080516341c728b960e01b81523060048201526001600160a01b038b81166024830152604482019490945260648101929092525191909216916341c728b991608480830192600092919082900301818387803b15801561435357600080fd5b505af1158015614367573d6000803e3d6000fd5b5060009250614374915050565b8160c001519350935050509250929050565b6002546040805163368f515360e21b81523060048201526001600160a01b0385811660248301526044820185905291516000938493169163da3d454c91606480830192602092919082900301818787803b1580156143e357600080fd5b505af11580156143f7573d6000803e3d6000fd5b505050506040513d602081101561440d57600080fd5b50519050801561442c576144246003600e83612e3e565b915050610cf6565b614434612abd565b600c541461444757614424600a8061264b565b826144506125c6565b101561446257614424600e600961264b565b61446a614eea565b614473856128d6565b602083018190528282600381111561448757fe5b600381111561449257fe5b90525060009050815160038111156144a657fe5b146144cb576144c2600960078360000151600381111561195157fe5b92505050610cf6565b6144d9816020015185612ea4565b60408301819052828260038111156144ed57fe5b60038111156144f857fe5b905250600090508151600381111561450c57fe5b14614528576144c26009600c8360000151600381111561195157fe5b614534600f5485612ea4565b606083018190528282600381111561454857fe5b600381111561455357fe5b905250600090508151600381111561456757fe5b14614583576144c26009600b8360000151600381111561195157fe5b6040808201516001600160a01b0387166000908152601460205291909120908155600e546001909101556060810151600f556145bf85856138f2565b60408082015160608084015183516001600160a01b038a16815260208101899052808501939093529082015290517f13ed6866d4e1ee6da46f845c46d7e54120883d75c5ea9a2dacc1c4ca8984ab809181900360800190a1600095945050505050565b60025460408051632fe3f38f60e11b81523060048201526001600160a01b0384811660248301528781166044830152868116606483015260848201869052915160009384938493911691635fc7e71e9160a48082019260209290919082900301818787803b15801561469357600080fd5b505af11580156146a7573d6000803e3d6000fd5b505050506040513d60208110156146bd57600080fd5b5051905080156146e1576146d46003601283612e3e565b925060009150614b0b9050565b6146e9612abd565b600c54146146fd576146d4600a601661264b565b614705612abd565b846001600160a01b031663991754d26040518163ffffffff1660e01b815260040160206040518083038186803b15801561473e57600080fd5b505afa158015614752573d6000803e3d6000fd5b505050506040513d602081101561476857600080fd5b50511461477b576146d4600a601161264b565b866001600160a01b0316866001600160a01b031614156147a1576146d46006601761264b565b846147b2576146d46007601561264b565b6000198514156147c8576146d46007601461264b565b6000806147d68989896133a3565b90925090508115614806576147f78260128111156147f057fe5b601861264b565b945060009350614b0b92505050565b6002546040805163c488847b60e01b81523060048201526001600160a01b038981166024830152604482018590528251600094859492169263c488847b926064808301939192829003018186803b15801561486057600080fd5b505afa158015614874573d6000803e3d6000fd5b505050506040513d604081101561488a57600080fd5b508051602090910151909250905081156148d55760405162461bcd60e51b81526004018080602001828103825260338152602001806151846033913960400191505060405180910390fd5b80886001600160a01b03166370a082318c6040518263ffffffff1660e01b815260040180826001600160a01b03166001600160a01b0316815260200191505060206040518083038186803b15801561492c57600080fd5b505afa158015614940573d6000803e3d6000fd5b505050506040513d602081101561495657600080fd5b505110156149ab576040805162461bcd60e51b815260206004820152601860248201527f4c49515549444154455f5345495a455f544f4f5f4d5543480000000000000000604482015290519081900360640190fd5b60006001600160a01b0389163014156149d1576149ca308d8d85612f26565b9050614a5b565b6040805163b2a02ff160e01b81526001600160a01b038e811660048301528d81166024830152604482018590529151918b169163b2a02ff1916064808201926020929091908290030181600087803b158015614a2c57600080fd5b505af1158015614a40573d6000803e3d6000fd5b505050506040513d6020811015614a5657600080fd5b505190505b8015614aa5576040805162461bcd60e51b81526020600482015260146024820152731d1bdad95b881cd95a5e9d5c994819985a5b195960621b604482015290519081900360640190fd5b604080516001600160a01b03808f168252808e1660208301528183018790528b1660608201526080810184905290517f298637f684da70674f26509b10f07ec2fbc77a335ab1e7d6215a4b2484d8bb529181900360a00190a16000975092955050505050505b94509492505050565b600854604080516370a0823160e01b8152306004820152905160009261010090046001600160a01b031691839183916370a08231916024808301926020929190829003018186803b158015614b6857600080fd5b505afa158015614b7c573d6000803e3d6000fd5b505050506040513d6020811015614b9257600080fd5b5051604080516323b872dd60e01b81526001600160a01b038881166004830152306024830152604482018890529151929350908416916323b872dd9160648082019260009290919082900301818387803b158015614bef57600080fd5b505af1158015614c03573d6000803e3d6000fd5b5050505060003d60008114614c1f5760208114614c2957600080fd5b6000199150614c35565b60206000803e60005191505b5080614c88576040805162461bcd60e51b815260206004820152601860248201527f544f4b454e5f5452414e534645525f494e5f4641494c45440000000000000000604482015290519081900360640190fd5b600854604080516370a0823160e01b8152306004820152905160009261010090046001600160a01b0316916370a08231916024808301926020929190829003018186803b158015614cd857600080fd5b505afa158015614cec573d6000803e3d6000fd5b505050506040513d6020811015614d0257600080fd5b5051905082811015614d5b576040805162461bcd60e51b815260206004820152601a60248201527f544f4b454e5f5452414e534645525f494e5f4f564552464c4f57000000000000604482015290519081900360640190fd5b9190910395945050505050565b6000806000614d75614dd9565b61258986866000614d84614dd9565b600080614d99670de0b6b3a764000087613ebd565b90925090506000826003811115614dac57fe5b14614dcb575060408051602081019091526000815290925090506125bf565b6125b881866000015161372f565b6040518060200160405280600081525090565b828054600181600116156101000203166002900490600052602060002090601f016020900481019282601f10614e2d57805160ff1916838001178555614e5a565b82800160010185558215614e5a579182015b82811115614e5a578251825591602001919060010190614e3f565b5061135e929150614f13565b6040805161010081019091528060008152602001600081526020016000815260200160008152602001600081526020016000815260200160008152602001600081525090565b6040805160e0810190915280600081526020016000815260200160008152602001600081526020016000815260200160008152602001600081525090565b604080516080810190915280600081526020016000815260200160008152602001600081525090565b610e4591905b8082111561135e5760008155600101614f1956fe6f6e6c792061646d696e206d617920696e697469616c697a6520746865206d61726b65746d61726b6574206d6179206f6e6c7920626520696e697469616c697a6564206f6e63654345726332303a3a7377656570546f6b656e3a2063616e206e6f7420737765657020756e6465726c79696e6720746f6b656e696e697469616c2065786368616e67652072617465206d7573742062652067726561746572207468616e207a65726f2e6f6e6c79207468652061646d696e20616e6420636f6d7074726f6c6c6572206d61792063616c6c205f6265636f6d65496d706c656d656e746174696f6e6f6e6c792074686520636f6d7074726f6c6c6572206d61792063616c6c205f72657369676e496d706c656d656e746174696f6e73657474696e6720696e7465726573742072617465206d6f64656c206661696c65644d494e545f4e45575f4143434f554e545f42414c414e43455f43414c43554c4154494f4e5f4641494c454472656475636520726573657276657320756e65787065637465642061646d696e5061727420756e646572666c6f77626f72726f7742616c616e636553746f7265643a20626f72726f7742616c616e636553746f726564496e7465726e616c206661696c656452455041595f424f52524f575f4e45575f4143434f554e545f424f52524f575f42414c414e43455f43414c43554c4154494f4e5f4641494c4544ddf252ad1be2c89b69c2b068fc378daa952ba7f163c4a11628f55a4df523b3ef52455041595f424f52524f575f4e45575f544f54414c5f42414c414e43455f43414c43554c4154494f4e5f4641494c45444c49515549444154455f434f4d5054524f4c4c45525f43414c43554c4154455f414d4f554e545f5345495a455f4641494c454465786368616e67655261746553746f7265643a2065786368616e67655261746553746f726564496e7465726e616c206661696c65644d494e545f4e45575f544f54414c5f535550504c595f43414c43554c4154494f4e5f4641494c45446f6e65206f662072656465656d546f6b656e73496e206f722072656465656d416d6f756e74496e206d757374206265207a65726f72656475636520726573657276657320756e657870656374656420756e646572666c6f77a265627a7a7231582077f2f374995968a552f2d8cc972ac03b40f12e3055c0cb21ff24ec6a0f22b4aa64736f6c63430005100032",
  "linkReferences": {},
  "deployedLinkReferences": {}
}